{
  "contractName": "HashDice",
  "abi": [
    {
      "constant": true,
      "inputs": [],
      "name": "gRoundWait",
      "outputs": [
        {
          "name": "",
          "type": "uint256"
        }
      ],
      "payable": false,
      "stateMutability": "view",
      "type": "function"
    },
    {
      "constant": true,
      "inputs": [],
      "name": "gOwner",
      "outputs": [
        {
          "name": "",
          "type": "address"
        }
      ],
      "payable": false,
      "stateMutability": "view",
      "type": "function"
    },
    {
      "constant": true,
      "inputs": [],
      "name": "gRoundPeriod",
      "outputs": [
        {
          "name": "",
          "type": "uint256"
        }
      ],
      "payable": false,
      "stateMutability": "view",
      "type": "function"
    },
    {
      "constant": true,
      "inputs": [],
      "name": "gRoomId",
      "outputs": [
        {
          "name": "",
          "type": "uint256"
        }
      ],
      "payable": false,
      "stateMutability": "view",
      "type": "function"
    },
    {
      "constant": true,
      "inputs": [],
      "name": "gProfitRatio",
      "outputs": [
        {
          "name": "",
          "type": "uint256"
        }
      ],
      "payable": false,
      "stateMutability": "view",
      "type": "function"
    },
    {
      "inputs": [],
      "payable": true,
      "stateMutability": "payable",
      "type": "constructor"
    },
    {
      "anonymous": false,
      "inputs": [
        {
          "indexed": false,
          "name": "creator",
          "type": "address"
        },
        {
          "indexed": false,
          "name": "erc20Addr",
          "type": "address"
        },
        {
          "indexed": false,
          "name": "symbol",
          "type": "string"
        },
        {
          "indexed": false,
          "name": "name",
          "type": "string"
        },
        {
          "indexed": false,
          "name": "id",
          "type": "uint256"
        },
        {
          "indexed": false,
          "name": "lastLockedValue",
          "type": "uint256"
        }
      ],
      "name": "RoomOpened",
      "type": "event"
    },
    {
      "anonymous": false,
      "inputs": [
        {
          "indexed": false,
          "name": "roomId",
          "type": "uint256"
        }
      ],
      "name": "RoomClosed",
      "type": "event"
    },
    {
      "anonymous": false,
      "inputs": [
        {
          "indexed": false,
          "name": "roomId",
          "type": "uint256"
        },
        {
          "indexed": false,
          "name": "value",
          "type": "uint256"
        },
        {
          "indexed": false,
          "name": "remained",
          "type": "uint256"
        }
      ],
      "name": "Withdrawed",
      "type": "event"
    },
    {
      "anonymous": false,
      "inputs": [
        {
          "indexed": false,
          "name": "roomId",
          "type": "uint256"
        },
        {
          "indexed": false,
          "name": "value",
          "type": "uint256"
        },
        {
          "indexed": false,
          "name": "remained",
          "type": "uint256"
        }
      ],
      "name": "Deposited",
      "type": "event"
    },
    {
      "anonymous": false,
      "inputs": [
        {
          "indexed": false,
          "name": "roomId",
          "type": "uint256"
        },
        {
          "indexed": false,
          "name": "roundId",
          "type": "uint256"
        },
        {
          "indexed": false,
          "name": "startBlock",
          "type": "uint256"
        },
        {
          "indexed": false,
          "name": "lockedValue",
          "type": "uint256"
        },
        {
          "indexed": false,
          "name": "timeStamp",
          "type": "uint256"
        }
      ],
      "name": "RoundOpened",
      "type": "event"
    },
    {
      "anonymous": false,
      "inputs": [
        {
          "indexed": false,
          "name": "roomId",
          "type": "uint256"
        },
        {
          "indexed": false,
          "name": "roundId",
          "type": "uint256"
        },
        {
          "indexed": false,
          "name": "totalBetValue",
          "type": "uint256"
        },
        {
          "indexed": false,
          "name": "compensate",
          "type": "uint256"
        },
        {
          "indexed": false,
          "name": "orderNum",
          "type": "uint256"
        }
      ],
      "name": "RoundClosed",
      "type": "event"
    },
    {
      "anonymous": false,
      "inputs": [
        {
          "indexed": false,
          "name": "roomId",
          "type": "uint256"
        },
        {
          "indexed": false,
          "name": "roundId",
          "type": "uint256"
        },
        {
          "indexed": false,
          "name": "orderId",
          "type": "uint256"
        },
        {
          "indexed": false,
          "name": "value",
          "type": "uint256"
        }
      ],
      "name": "NewBetOrder",
      "type": "event"
    },
    {
      "anonymous": false,
      "inputs": [
        {
          "indexed": false,
          "name": "current",
          "type": "uint256"
        },
        {
          "indexed": false,
          "name": "start",
          "type": "uint256"
        }
      ],
      "name": "CloseRoundTooLate",
      "type": "event"
    },
    {
      "anonymous": false,
      "inputs": [
        {
          "indexed": false,
          "name": "block",
          "type": "uint256"
        },
        {
          "indexed": false,
          "name": "start",
          "type": "uint256"
        }
      ],
      "name": "DebugAA",
      "type": "event"
    },
    {
      "anonymous": false,
      "inputs": [
        {
          "indexed": false,
          "name": "roomId",
          "type": "uint256"
        },
        {
          "indexed": false,
          "name": "roundId",
          "type": "uint256"
        },
        {
          "indexed": false,
          "name": "orderId",
          "type": "uint256"
        },
        {
          "indexed": false,
          "name": "value",
          "type": "uint256"
        }
      ],
      "name": "PayBetOwner",
      "type": "event"
    },
    {
      "constant": true,
      "inputs": [
        {
          "name": "roomId",
          "type": "uint256"
        },
        {
          "name": "roundId",
          "type": "uint256"
        },
        {
          "name": "orderId",
          "type": "uint256"
        }
      ],
      "name": "GetBetOrder",
      "outputs": [
        {
          "name": "",
          "type": "address"
        },
        {
          "name": "",
          "type": "uint256"
        },
        {
          "name": "",
          "type": "uint256"
        },
        {
          "name": "",
          "type": "uint256"
        },
        {
          "name": "",
          "type": "uint256[]"
        },
        {
          "name": "",
          "type": "uint256[]"
        }
      ],
      "payable": false,
      "stateMutability": "view",
      "type": "function"
    },
    {
      "constant": true,
      "inputs": [
        {
          "name": "roomId",
          "type": "uint256"
        },
        {
          "name": "roundId",
          "type": "uint256"
        }
      ],
      "name": "GetRoundInfo",
      "outputs": [
        {
          "name": "",
          "type": "uint256"
        },
        {
          "name": "",
          "type": "uint256"
        },
        {
          "name": "",
          "type": "uint256"
        },
        {
          "name": "",
          "type": "uint256"
        },
        {
          "name": "",
          "type": "uint256"
        },
        {
          "name": "",
          "type": "uint256"
        }
      ],
      "payable": false,
      "stateMutability": "view",
      "type": "function"
    },
    {
      "constant": true,
      "inputs": [
        {
          "name": "roomId",
          "type": "uint256"
        }
      ],
      "name": "GetRoomInfo",
      "outputs": [
        {
          "name": "",
          "type": "address"
        },
        {
          "name": "",
          "type": "address"
        },
        {
          "name": "",
          "type": "string"
        },
        {
          "name": "",
          "type": "string"
        },
        {
          "name": "",
          "type": "uint256[4]"
        },
        {
          "name": "",
          "type": "uint256[4]"
        },
        {
          "name": "",
          "type": "uint256"
        },
        {
          "name": "",
          "type": "bool"
        },
        {
          "name": "",
          "type": "bool"
        },
        {
          "name": "",
          "type": "uint256"
        },
        {
          "name": "",
          "type": "uint256"
        }
      ],
      "payable": false,
      "stateMutability": "view",
      "type": "function"
    },
    {
      "constant": true,
      "inputs": [],
      "name": "GetRooms",
      "outputs": [
        {
          "name": "",
          "type": "uint256"
        }
      ],
      "payable": false,
      "stateMutability": "view",
      "type": "function"
    },
    {
      "constant": true,
      "inputs": [],
      "name": "GetProfitRatio",
      "outputs": [
        {
          "name": "",
          "type": "uint256"
        }
      ],
      "payable": false,
      "stateMutability": "view",
      "type": "function"
    },
    {
      "constant": false,
      "inputs": [
        {
          "name": "ratio",
          "type": "uint256"
        }
      ],
      "name": "SetProfitRatio",
      "outputs": [],
      "payable": false,
      "stateMutability": "nonpayable",
      "type": "function"
    },
    {
      "constant": true,
      "inputs": [],
      "name": "GetRoundWait",
      "outputs": [
        {
          "name": "",
          "type": "uint256"
        }
      ],
      "payable": false,
      "stateMutability": "view",
      "type": "function"
    },
    {
      "constant": false,
      "inputs": [
        {
          "name": "value",
          "type": "uint256"
        }
      ],
      "name": "SetRoundWait",
      "outputs": [],
      "payable": false,
      "stateMutability": "nonpayable",
      "type": "function"
    },
    {
      "constant": true,
      "inputs": [],
      "name": "GetRoundPeriod",
      "outputs": [
        {
          "name": "",
          "type": "uint256"
        }
      ],
      "payable": false,
      "stateMutability": "view",
      "type": "function"
    },
    {
      "constant": false,
      "inputs": [
        {
          "name": "value",
          "type": "uint256"
        }
      ],
      "name": "SetRoundPeriod",
      "outputs": [],
      "payable": false,
      "stateMutability": "nonpayable",
      "type": "function"
    },
    {
      "constant": false,
      "inputs": [
        {
          "name": "erc20Addr",
          "type": "address"
        },
        {
          "name": "symbol",
          "type": "string"
        },
        {
          "name": "initLockedValue",
          "type": "uint256"
        },
        {
          "name": "roomName",
          "type": "string"
        },
        {
          "name": "nominator",
          "type": "uint256[4]"
        },
        {
          "name": "denominator",
          "type": "uint256[4]"
        }
      ],
      "name": "OpenRoom",
      "outputs": [
        {
          "name": "roomId",
          "type": "uint256"
        }
      ],
      "payable": true,
      "stateMutability": "payable",
      "type": "function"
    },
    {
      "constant": false,
      "inputs": [
        {
          "name": "roomId",
          "type": "uint256"
        }
      ],
      "name": "CloseRoom",
      "outputs": [],
      "payable": true,
      "stateMutability": "payable",
      "type": "function"
    },
    {
      "constant": true,
      "inputs": [
        {
          "name": "erc20Addr",
          "type": "address"
        }
      ],
      "name": "GetProfit",
      "outputs": [
        {
          "name": "",
          "type": "uint256"
        }
      ],
      "payable": false,
      "stateMutability": "view",
      "type": "function"
    },
    {
      "constant": false,
      "inputs": [
        {
          "name": "erc20Addr",
          "type": "address"
        },
        {
          "name": "value",
          "type": "uint256"
        },
        {
          "name": "receiver",
          "type": "address"
        }
      ],
      "name": "WithdrawProfit",
      "outputs": [],
      "payable": true,
      "stateMutability": "payable",
      "type": "function"
    },
    {
      "constant": false,
      "inputs": [
        {
          "name": "roomId",
          "type": "uint256"
        },
        {
          "name": "value",
          "type": "uint256"
        },
        {
          "name": "receiver",
          "type": "address"
        }
      ],
      "name": "Withdraw",
      "outputs": [],
      "payable": true,
      "stateMutability": "payable",
      "type": "function"
    },
    {
      "constant": false,
      "inputs": [
        {
          "name": "roomId",
          "type": "uint256"
        },
        {
          "name": "value",
          "type": "uint256"
        }
      ],
      "name": "Deposit",
      "outputs": [],
      "payable": true,
      "stateMutability": "payable",
      "type": "function"
    },
    {
      "constant": false,
      "inputs": [
        {
          "name": "roomId",
          "type": "uint256"
        },
        {
          "name": "startBlock",
          "type": "uint256"
        },
        {
          "name": "value",
          "type": "uint256"
        }
      ],
      "name": "OpenRound",
      "outputs": [
        {
          "name": "roundId",
          "type": "uint256"
        }
      ],
      "payable": true,
      "stateMutability": "payable",
      "type": "function"
    },
    {
      "constant": false,
      "inputs": [
        {
          "name": "roomId",
          "type": "uint256"
        },
        {
          "name": "roundId",
          "type": "uint256"
        }
      ],
      "name": "CloseRound",
      "outputs": [],
      "payable": true,
      "stateMutability": "payable",
      "type": "function"
    },
    {
      "constant": false,
      "inputs": [
        {
          "name": "roomId",
          "type": "uint256"
        },
        {
          "name": "roundId",
          "type": "uint256"
        },
        {
          "name": "betType",
          "type": "uint256"
        },
        {
          "name": "betValue",
          "type": "uint256[]"
        }
      ],
      "name": "SubmitBetOrder",
      "outputs": [
        {
          "name": "",
          "type": "uint256"
        }
      ],
      "payable": true,
      "stateMutability": "payable",
      "type": "function"
    }
  ],
  "bytecode": "0x6080604052336000806101000a81548173ffffffffffffffffffffffffffffffffffffffff021916908373ffffffffffffffffffffffffffffffffffffffff1602179055506000600181905550606460028190555060146003819055506002600481905550614cab806100736000396000f3fe60806040526004361061013e576000357c0100000000000000000000000000000000000000000000000000000000900463ffffffff1680630b543372146101435780630df298d11461016e5780631d424ea1146101a957806333d47a5b146101d75780633c3419e61461020257806358fb58d8146104115780635b1c48cb146104685780635c969600146104935780635ea431b2146104e9578063668b0daf146105145780636aa389da1461053f57806371ef96c41461067357806378463323146106cb578063876148ac146106f65780638a427002146107315780639b458bd31461076c578063a3af609b14610797578063a9fd4f9d146107cf578063c2aaf0281461084b578063c2ee982214610a5e578063caddfa0c14610acc578063ccc8efcc14610b04578063dd84095114610b69578063ef07207914610b94575b600080fd5b34801561014f57600080fd5b50610158610c7e565b6040518082815260200191505060405180910390f35b34801561017a57600080fd5b506101a76004803603602081101561019157600080fd5b8101908080359060200190929190505050610c84565b005b6101d5600480360360208110156101bf57600080fd5b8101908080359060200190929190505050610d78565b005b3480156101e357600080fd5b506101ec610f7e565b6040518082815260200191505060405180910390f35b34801561020e57600080fd5b5061023b6004803603602081101561022557600080fd5b8101908080359060200190929190505050610f88565b604051808c73ffffffffffffffffffffffffffffffffffffffff1673ffffffffffffffffffffffffffffffffffffffff1681526020018b73ffffffffffffffffffffffffffffffffffffffff1673ffffffffffffffffffffffffffffffffffffffff16815260200180602001806020018a600460200280838360005b838110156102d25780820151818401526020810190506102b7565b5050505090500189600460200280838360005b838110156103005780820151818401526020810190506102e5565b50505050905001888152602001871515151581526020018615151515815260200185815260200184815260200183810383528c818151815260200191508051906020019080838360005b8381101561036557808201518184015260208101905061034a565b50505050905090810190601f1680156103925780820380516001836020036101000a031916815260200191505b5083810382528b818151815260200191508051906020019080838360005b838110156103cb5780820151818401526020810190506103b0565b50505050905090810190601f1680156103f85780820380516001836020036101000a031916815260200191505b509d505050505050505050505050505060405180910390f35b34801561041d57600080fd5b50610426611234565b604051808273ffffffffffffffffffffffffffffffffffffffff1673ffffffffffffffffffffffffffffffffffffffff16815260200191505060405180910390f35b34801561047457600080fd5b5061047d611259565b6040518082815260200191505060405180910390f35b6104d3600480360360608110156104a957600080fd5b8101908080359060200190929190803590602001909291908035906020019092919050505061125f565b6040518082815260200191505060405180910390f35b3480156104f557600080fd5b506104fe6118fd565b6040518082815260200191505060405180910390f35b34801561052057600080fd5b50610529611903565b6040518082815260200191505060405180910390f35b34801561054b57600080fd5b5061058c6004803603606081101561056257600080fd5b81019080803590602001909291908035906020019092919080359060200190929190505050611909565b604051808773ffffffffffffffffffffffffffffffffffffffff1673ffffffffffffffffffffffffffffffffffffffff1681526020018681526020018581526020018481526020018060200180602001838103835285818151815260200191508051906020019060200280838360005b838110156106175780820151818401526020810190506105fc565b50505050905001838103825284818151815260200191508051906020019060200280838360005b8381101561065957808201518184015260208101905061063e565b505050509050019850505050505050505060405180910390f35b6106c96004803603606081101561068957600080fd5b810190808035906020019092919080359060200190929190803573ffffffffffffffffffffffffffffffffffffffff169060200190929190505050611a7d565b005b3480156106d757600080fd5b506106e0611d63565b6040518082815260200191505060405180910390f35b34801561070257600080fd5b5061072f6004803603602081101561071957600080fd5b8101908080359060200190929190505050611d6d565b005b34801561073d57600080fd5b5061076a6004803603602081101561075457600080fd5b8101908080359060200190929190505050611e61565b005b34801561077857600080fd5b50610781611fce565b6040518082815260200191505060405180910390f35b6107cd600480360360408110156107ad57600080fd5b810190808035906020019092919080359060200190929190505050611fd8565b005b3480156107db57600080fd5b50610812600480360360408110156107f257600080fd5b8101908080359060200190929190803590602001909291905050506120a6565b60405180878152602001868152602001858152602001848152602001838152602001828152602001965050505050505060405180910390f35b610a48600480360361018081101561086257600080fd5b81019080803573ffffffffffffffffffffffffffffffffffffffff1690602001909291908035906020019064010000000081111561089f57600080fd5b8201836020820111156108b157600080fd5b803590602001918460018302840111640100000000831117156108d357600080fd5b91908080601f016020809104026020016040519081016040528093929190818152602001838380828437600081840152601f19601f820116905080830192505050505050509192919290803590602001909291908035906020019064010000000081111561094057600080fd5b82018360208201111561095257600080fd5b8035906020019184600183028401116401000000008311171561097457600080fd5b91908080601f016020809104026020016040519081016040528093929190818152602001838380828437600081840152601f19601f82011690508083019250505050505050919291929080608001906004806020026040519081016040528092919082600460200280828437600081840152601f19601f820116905080830192505050505050919291929080608001906004806020026040519081016040528092919082600460200280828437600081840152601f19601f8201169050808301925050505050509192919290505050612130565b6040518082815260200191505060405180910390f35b610aca60048036036060811015610a7457600080fd5b81019080803573ffffffffffffffffffffffffffffffffffffffff16906020019092919080359060200190929190803573ffffffffffffffffffffffffffffffffffffffff16906020019092919050505061261a565b005b610b0260048036036040811015610ae257600080fd5b8101908080359060200190929190803590602001909291905050506128de565b005b348015610b1057600080fd5b50610b5360048036036020811015610b2757600080fd5b81019080803573ffffffffffffffffffffffffffffffffffffffff1690602001909291905050506137e9565b6040518082815260200191505060405180910390f35b348015610b7557600080fd5b50610b7e613832565b6040518082815260200191505060405180910390f35b610c6860048036036080811015610baa57600080fd5b8101908080359060200190929190803590602001909291908035906020019092919080359060200190640100000000811115610be557600080fd5b820183602082011115610bf757600080fd5b80359060200191846020830284011164010000000083111715610c1957600080fd5b919080806020026020016040519081016040528093929190818152602001838360200280828437600081840152601f19601f82011690508083019250505050505050919291929050505061383c565b6040518082815260200191505060405180910390f35b60035481565b6000809054906101000a900473ffffffffffffffffffffffffffffffffffffffff1673ffffffffffffffffffffffffffffffffffffffff163373ffffffffffffffffffffffffffffffffffffffff16141515610d6e576040517f08c379a00000000000000000000000000000000000000000000000000000000081526004018080602001828103825260218152602001807f4f6e6c7920616c6c6f7720636f6e7472616374206f776e657220746f2073657481526020017f210000000000000000000000000000000000000000000000000000000000000081525060400191505060405180910390fd5b8060048190555050565b600081111515610d8757600080fd5b60006005600083815260200190815260200160002090503373ffffffffffffffffffffffffffffffffffffffff168160000160009054906101000a900473ffffffffffffffffffffffffffffffffffffffff1673ffffffffffffffffffffffffffffffffffffffff16141515610e8b576040517f08c379a00000000000000000000000000000000000000000000000000000000081526004018080602001828103825260288152602001807f4f6e6c7920616c6c6f7720726f6f6d206f776e657220746f207769746864726181526020017f77206d6f6e65792100000000000000000000000000000000000000000000000081525060400191505060405180910390fd5b80600e0160019054906101000a900460ff1615610eb157610eb08282600d01546128de565b5b600081601001541115610f2657610f158160010160009054906101000a900473ffffffffffffffffffffffffffffffffffffffff168260000160009054906101000a900473ffffffffffffffffffffffffffffffffffffffff168360100154614293565b15610f2557600081601001819055505b5b600081600e0160006101000a81548160ff0219169083151502179055507f67acaceb58ff1ad2aa8b3069f69c4cd076824e06a09184b75fb197ead7040be7826040518082815260200191505060405180910390a15050565b6000600354905090565b600080606080610f966149c8565b610f9e6149c8565b6000806000806000808c111515610fb457600080fd5b6000600560008e815260200190815260200160002090508060000160009054906101000a900473ffffffffffffffffffffffffffffffffffffffff168160010160009054906101000a900473ffffffffffffffffffffffffffffffffffffffff168260020183600301846005018560090186600d015487600e0160009054906101000a900460ff1688600e0160019054906101000a900460ff1689600f01548a60100154888054600181600116156101000203166002900480601f0160208091040260200160405190810160405280929190818152602001828054600181600116156101000203166002900480156110ed5780601f106110c2576101008083540402835291602001916110ed565b820191906000526020600020905b8154815290600101906020018083116110d057829003601f168201915b50505050509850878054600181600116156101000203166002900480601f0160208091040260200160405190810160405280929190818152602001828054600181600116156101000203166002900480156111895780601f1061115e57610100808354040283529160200191611189565b820191906000526020600020905b81548152906001019060200180831161116c57829003601f168201915b50505050509750866004806020026040519081016040528092919082600480156111c8576020028201915b8154815260200190600101908083116111b4575b5050505050965085600480602002604051908101604052809291908260048015611207576020028201915b8154815260200190600101908083116111f3575b505050505095509b509b509b509b509b509b509b509b509b509b509b505091939597999b90929496989a50565b6000809054906101000a900473ffffffffffffffffffffffffffffffffffffffff1681565b60045481565b6000808411151561126f57600080fd5b60006005600086815260200190815260200160002090503373ffffffffffffffffffffffffffffffffffffffff168160000160009054906101000a900473ffffffffffffffffffffffffffffffffffffffff1673ffffffffffffffffffffffffffffffffffffffff16141515611373576040517f08c379a00000000000000000000000000000000000000000000000000000000081526004018080602001828103825260278152602001807f4f6e6c7920616c6c6f7720726f6f6d206f776e657220746f206f70656e206e6581526020017f7720726f756e640000000000000000000000000000000000000000000000000081525060400191505060405180910390fd5b80600e0160009054906101000a900460ff1615156113f9576040517f08c379a00000000000000000000000000000000000000000000000000000000081526004018080602001828103825260188152602001807f54686520726f6f6d206973206e6f74206163746976656421000000000000000081525060200191505060405180910390fd5b6000151581600e0160019054906101000a900460ff1615151415156114ac576040517f08c379a00000000000000000000000000000000000000000000000000000000081526004018080602001828103825260328152602001807f50726576696f757320726f756e64206d75737420626520636c6f73656420746f81526020017f206f70656e2061206e657720726f756e6421000000000000000000000000000081525060400191505060405180910390fd5b600081601101600083600d01548152602001908152602001600020905060008514156114e5576114de436003546144d2565b945061158f565b846114f2436003546144d2565b1115151561158e576040517f08c379a000000000000000000000000000000000000000000000000000000000815260040180806020018281038252602f8152602001807f4e657720726f756e6420737461727420626c6f636b2073686f756c642062652081526020017f696e20746865206665617475726521000000000000000000000000000000000081525060400191505060405180910390fd5b5b600082600d015414806115b45750846115b1600a8360010154016004546144d2565b11155b151561164e576040517f08c379a00000000000000000000000000000000000000000000000000000000081526004018080602001828103825260278152602001807f54776f20726f756e647320706572696f64206d7573742061626f76652031302081526020017f626c6f636b73210000000000000000000000000000000000000000000000000081525060400191505060405180910390fd5b600082601001541115156116f0576040517f08c379a00000000000000000000000000000000000000000000000000000000081526004018080602001828103825260248152602001807f4d757374206861766520746f6b656e7320746f207374617274206e657720726f81526020017f756e64210000000000000000000000000000000000000000000000000000000081525060400191505060405180910390fd5b60008411801561174f57503373ffffffffffffffffffffffffffffffffffffffff168260000160009054906101000a900473ffffffffffffffffffffffffffffffffffffffff1673ffffffffffffffffffffffffffffffffffffffff16145b156117a1576117848260010160009054906101000a900473ffffffffffffffffffffffffffffffffffffffff163330876144f3565b156117a0576117978260100154856144d2565b82601001819055505b5b6117a96149eb565b858160200181815250506000816040018181525050600081608001818152505060008160a0018181525050428160c00181815250506117ed83600d015460016144d2565b83600d018190555082600d01548160000181815250508083601101600085600d01548152602001908152602001600020600082015181600001556020820151816001015560408201518160020155606082015181600301556080820151816004015560a0820151816005015560c08201518160060155905050600183600e0160016101000a81548160ff021916908315150217905550600083600f01819055507feae4e388ff074a9a2b7c4b70ca3e14eea20bee144bfa34d3dfa79d5e0c9dc4a38784600d015488866010015442604051808681526020018581526020018481526020018381526020018281526020019550505050505060405180910390a182600d015493505050509392505050565b60015481565b60025481565b6000806000806060806000891180156119225750600088115b801561192e5750600087115b151561193957600080fd5b6000600560008b8152602001908152602001600020905060008160110160008b8152602001908152602001600020905060008160070160008b815260200190815260200160002090508060000160009054906101000a900473ffffffffffffffffffffffffffffffffffffffff16816004015482600501548360060154846007018560080181805480602002602001604051908101604052809291908181526020018280548015611a0957602002820191906000526020600020905b8154815260200190600101908083116119f5575b5050505050915080805480602002602001604051908101604052809291908181526020018280548015611a5b57602002820191906000526020600020905b815481526020019060010190808311611a47575b5050505050905098509850985098509850985050505093975093979195509350565b600083111515611a8c57600080fd5b60006005600085815260200190815260200160002090503373ffffffffffffffffffffffffffffffffffffffff168160000160009054906101000a900473ffffffffffffffffffffffffffffffffffffffff1673ffffffffffffffffffffffffffffffffffffffff16141515611b90576040517f08c379a00000000000000000000000000000000000000000000000000000000081526004018080602001828103825260288152602001807f4f6e6c7920616c6c6f7720726f6f6d206f776e657220746f207769746864726181526020017f77206d6f6e65792100000000000000000000000000000000000000000000000081525060400191505060405180910390fd5b80600e0160019054906101000a900460ff16151515611c3d576040517f08c379a00000000000000000000000000000000000000000000000000000000081526004018080602001828103825260288152602001807f4f6e6c79206e6f2061637469766520726f756e642063616e207769746864726181526020017f77206d6f6e65792100000000000000000000000000000000000000000000000081525060400191505060405180910390fd5b80601001548311151515611cb9576040517f08c379a00000000000000000000000000000000000000000000000000000000081526004018080602001828103825260148152602001807f5769746864726177206f766572206d6f6e65792100000000000000000000000081525060200191505060405180910390fd5b600081601001541115611d1257611cf58160010160009054906101000a900473ffffffffffffffffffffffffffffffffffffffff168385614293565b15611d1157611d088160100154846149a6565b81601001819055505b5b7fe492f03a13f16d9ab77da04e06cc43e6eb0a495bab6bc3d0018b7d6714e6359f8484836010015460405180848152602001838152602001828152602001935050505060405180910390a150505050565b6000600454905090565b6000809054906101000a900473ffffffffffffffffffffffffffffffffffffffff1673ffffffffffffffffffffffffffffffffffffffff163373ffffffffffffffffffffffffffffffffffffffff16141515611e57576040517f08c379a00000000000000000000000000000000000000000000000000000000081526004018080602001828103825260218152602001807f4f6e6c7920616c6c6f7720636f6e7472616374206f776e657220746f2073657481526020017f210000000000000000000000000000000000000000000000000000000000000081525060400191505060405180910390fd5b8060038190555050565b61271081101515611eda576040517f08c379a000000000000000000000000000000000000000000000000000000000815260040180806020018281038252601a8152602001807f43616e6e6f74206578636565642070726f66697420554e49542100000000000081525060200191505060405180910390fd5b6000809054906101000a900473ffffffffffffffffffffffffffffffffffffffff1673ffffffffffffffffffffffffffffffffffffffff163373ffffffffffffffffffffffffffffffffffffffff16141515611fc4576040517f08c379a00000000000000000000000000000000000000000000000000000000081526004018080602001828103825260218152602001807f4f6e6c7920616c6c6f7720636f6e7472616374206f776e657220746f2073657481526020017f210000000000000000000000000000000000000000000000000000000000000081525060400191505060405180910390fd5b8060028190555050565b6000600254905090565b600082118015611fe85750600081115b1515611ff357600080fd5b600060056000848152602001908152602001600020905061203a8160010160009054906101000a900473ffffffffffffffffffffffffffffffffffffffff163330856144f3565b156120565761204d8160100154836144d2565b81601001819055505b7f1ca606821992e3b34613b5b29c0bbade3a907b2969d7f9f2927f726fa4baccfb8383836010015460405180848152602001838152602001828152602001935050505060405180910390a1505050565b6000806000806000806000881180156120bf5750600087115b15156120ca57600080fd5b6000600560008a8152602001908152602001600020905060008160110160008a8152602001908152602001600020905080600101548160020154826003015483600401548460050154856006015497509750975097509750975050509295509295509295565b60008073ffffffffffffffffffffffffffffffffffffffff168773ffffffffffffffffffffffffffffffffffffffff161415151561216d57600080fd5b60008511151561217c57600080fd5b60008090505b60048110156121e9576000848260048110151561219b57fe5b60200201511180156121d1575082816004811015156121b657fe5b602002015184826004811015156121c957fe5b602002015111155b15156121dc57600080fd5b8080600101915050612182565b506121f6873330886144f3565b1561260b5761220860015460016144d2565b600181905550612216614a29565b33816000019073ffffffffffffffffffffffffffffffffffffffff16908173ffffffffffffffffffffffffffffffffffffffff168152505060015481608001818152505086816040018190525087816020019073ffffffffffffffffffffffffffffffffffffffff16908173ffffffffffffffffffffffffffffffffffffffff1681525050848160600181905250838160a00181905250828160c0018190525060008161014001818152505085816101600181815250506000816101200190151590811515815250506001816101000190151590811515815250508060056000600154815260200190815260200160002060008201518160000160006101000a81548173ffffffffffffffffffffffffffffffffffffffff021916908373ffffffffffffffffffffffffffffffffffffffff16021790555060208201518160010160006101000a81548173ffffffffffffffffffffffffffffffffffffffff021916908373ffffffffffffffffffffffffffffffffffffffff16021790555060408201518160020190805190602001906123b1929190614ac7565b5060608201518160030190805190602001906123ce929190614ac7565b506080820151816004015560a0820151816005019060046123f0929190614b47565b5060c082015181600901906004612408929190614b47565b5060e082015181600d015561010082015181600e0160006101000a81548160ff02191690831515021790555061012082015181600e0160016101000a81548160ff02191690831515021790555061014082015181600f015561016082015181601001559050507fa0f40cac2a163501e8153dd5cf7bdced544c2e40391201acdaa3eb22435e3901338989886001548b604051808773ffffffffffffffffffffffffffffffffffffffff1673ffffffffffffffffffffffffffffffffffffffff1681526020018673ffffffffffffffffffffffffffffffffffffffff1673ffffffffffffffffffffffffffffffffffffffff1681526020018060200180602001858152602001848152602001838103835287818151815260200191508051906020019080838360005b8381101561254b578082015181840152602081019050612530565b50505050905090810190601f1680156125785780820380516001836020036101000a031916815260200191505b50838103825286818151815260200191508051906020019080838360005b838110156125b1578082015181840152602081019050612596565b50505050905090810190601f1680156125de5780820380516001836020036101000a031916815260200191505b509850505050505050505060405180910390a16125ff60015460008061125f565b50600154915050612610565b600090505b9695505050505050565b600073ffffffffffffffffffffffffffffffffffffffff168373ffffffffffffffffffffffffffffffffffffffff16141580156126575750600082115b80156126905750600073ffffffffffffffffffffffffffffffffffffffff168173ffffffffffffffffffffffffffffffffffffffff1614155b151561269b57600080fd5b3373ffffffffffffffffffffffffffffffffffffffff166000809054906101000a900473ffffffffffffffffffffffffffffffffffffffff1673ffffffffffffffffffffffffffffffffffffffff16141515612785576040517f08c379a00000000000000000000000000000000000000000000000000000000081526004018080602001828103825260338152602001807f4f6e6c7920616c6c6f7720636f6e7472616374206f776e657220746f2077697481526020017f68647261772070726f666974206d6f6e6579210000000000000000000000000081525060400191505060405180910390fd5b600660008473ffffffffffffffffffffffffffffffffffffffff1673ffffffffffffffffffffffffffffffffffffffff16815260200190815260200160002054821115151561283c576040517f08c379a000000000000000000000000000000000000000000000000000000000815260040180806020018281038252601b8152602001807f57697468647261772070726f666974206f766572206d6f6e657921000000000081525060200191505060405180910390fd5b612847838284614293565b156128d957612895600660008573ffffffffffffffffffffffffffffffffffffffff1673ffffffffffffffffffffffffffffffffffffffff16815260200190815260200160002054836149a6565b600660008573ffffffffffffffffffffffffffffffffffffffff1673ffffffffffffffffffffffffffffffffffffffff168152602001908152602001600020819055505b505050565b6000821115156128ed57600080fd5b600060056000848152602001908152602001600020905080600d015482148015612925575080600e0160019054906101000a900460ff165b15156129bf576040517f08c379a00000000000000000000000000000000000000000000000000000000081526004018080602001828103825260258152602001807f4f6e6c7920616c6c6f7720636c6f73652063757272656e74206163746976652081526020017f726f756e6400000000000000000000000000000000000000000000000000000081525060400191505060405180910390fd5b80600e0160009054906101000a900460ff161515612a45576040517f08c379a00000000000000000000000000000000000000000000000000000000081526004018080602001828103825260188152602001807f54686520726f6f6d206973206e6f74206163746976656421000000000000000081525060200191505060405180910390fd5b600081601101600084815260200190815260200160002090507f4ad9f3c61840cc264f30781a3122db62ac7c8f39e83f91f5c55146eabbc5554c438260010154604051808381526020018281526020019250505060405180910390a1612ab08160010154600a6144d2565b43111515612b4c576040517f08c379a00000000000000000000000000000000000000000000000000000000081526004018080602001828103825260348152602001807f436c6f736520726f756e64206d7573742068617070656e20616674657220626581526020017f747765656e2031307e32343620626c6f636b732100000000000000000000000081525060400191505060405180910390fd5b60008260010160009054906101000a900473ffffffffffffffffffffffffffffffffffffffff169050612b84826001015460f66144d2565b431115612d24576000600190505b826005015481111515612cdb578173ffffffffffffffffffffffffffffffffffffffff1663a9059cbb84600701600084815260200190815260200160002060000160009054906101000a900473ffffffffffffffffffffffffffffffffffffffff16856007016000858152602001908152602001600020600401546040518363ffffffff167c0100000000000000000000000000000000000000000000000000000000028152600401808373ffffffffffffffffffffffffffffffffffffffff1673ffffffffffffffffffffffffffffffffffffffff16815260200182815260200192505050602060405180830381600087803b158015612c9257600080fd5b505af1158015612ca6573d6000803e3d6000fd5b505050506040513d6020811015612cbc57600080fd5b8101908080519060200190929190505050508080600101915050612b92565b507fdd4ff3e12abed500bf24507486de7a3d3d627cf86c018f996f4da7842901e116438360010154604051808381526020018281526020019250505060405180910390a1613762565b6000826004018190555060008090505b600a8160ff1610156131325760008160ff16846001015401406001900490506000600f821690506000600a8260ff1610158015612d755750600f8260ff1611155b9050600081158015612d8c5750600180841660ff16145b9050600082158015612d9c575081155b90506000600190505b88600501548111151561311f5760008090506001808b600701600085815260200190815260200160002060060154161415612ed55760008a600701600084815260200190815260200160002060070189600a84020160ff16815481101515612e0957fe5b9060005260206000200154118015612e1e5750835b15612ecc57612eaf8a6007016000848152602001908152602001600020600501548c6005016000600481101515612e5157fe5b01548d6009016000600481101515612e6557fe5b01548d60070160008781526020019081526020016000206007018c600a87020160ff16815481101515612e9457fe5b906000526020600020015402811515612ea957fe5b046144d2565b8a6007016000848152602001908152602001600020600501819055505b80806001019150505b6002808b600701600085815260200190815260200160002060060154161415612ff35760008a600701600084815260200190815260200160002060070189600a84020160ff16815481101515612f2757fe5b9060005260206000200154118015612f3c5750825b15612fea57612fcd8a6007016000848152602001908152602001600020600501548c6005016001600481101515612f6f57fe5b01548d6009016001600481101515612f8357fe5b01548d60070160008781526020019081526020016000206007018c600a87020160ff16815481101515612fb257fe5b906000526020600020015402811515612fc757fe5b046144d2565b8a6007016000848152602001908152602001600020600501819055505b80806001019150505b6004808b6007016000858152602001908152602001600020600601541614156131115760008a600701600084815260200190815260200160002060070189600a84020160ff1681548110151561304557fe5b906000526020600020015411801561305a5750845b15613108576130eb8a6007016000848152602001908152602001600020600501548c600501600260048110151561308d57fe5b01548d60090160026004811015156130a157fe5b01548d60070160008781526020019081526020016000206007018c600a87020160ff168154811015156130d057fe5b9060005260206000200154028115156130e557fe5b046144d2565b8a6007016000848152602001908152602001600020600501819055505b80806001019150505b508080600101915050612da5565b5050505050508080600101915050612d34565b506000600190505b8260050154811115156133ef576000809050600180856007016000858152602001908152602001600020600601541614156131785780806001019150505b600280856007016000858152602001908152602001600020600601541614156131a45780806001019150505b600480856007016000858152602001908152602001600020600601541614156131d05780806001019150505b600a81029050600880856007016000858152602001908152602001600020600601541614156133e15760008460070160008481526020019081526020016000206007018280600101935081548110151561322657fe5b9060005260206000200154905060008090505b818110156133de5760008660070160008681526020019081526020016000206007018480600101955081548110151561326e57fe5b90600052602060002001549050600081886001015401406001900490506000600f821690506000896007016000898152602001908152602001600020600701878060010198508154811015156132c057fe5b9060005260206000200154905060008090505b818110156133cc578260ff168b60070160008b81526020019081526020016000206007018981548110151561330457fe5b906000526020600020015414156133b95761339c8b60070160008b8152602001908152602001600020600501548d600501600360048110151561334357fe5b01548e600901600360048110151561335757fe5b01548e60070160008e815260200190815260200160002060070160018d0181548110151561338157fe5b90600052602060002001540281151561339657fe5b046144d2565b8b60070160008b8152602001908152602001600020600501819055505b60028801975080806001019150506132d3565b50505050508080600101915050613239565b50505b50808060010191505061313a565b506000600190505b8260050154811115156134615760008360070160008381526020019081526020016000206005015411156134545761344b8360040154846007016000848152602001908152602001600020600501546144d2565b83600401819055505b80806001019150506133f7565b506000600190505b82600501548111151561363b57600083600701600083815260200190815260200160002060050154111561362e578173ffffffffffffffffffffffffffffffffffffffff1663a9059cbb84600701600084815260200190815260200160002060000160009054906101000a900473ffffffffffffffffffffffffffffffffffffffff16856007016000858152602001908152602001600020600501546040518363ffffffff167c0100000000000000000000000000000000000000000000000000000000028152600401808373ffffffffffffffffffffffffffffffffffffffff1673ffffffffffffffffffffffffffffffffffffffff16815260200182815260200192505050602060405180830381600087803b15801561358a57600080fd5b505af115801561359e573d6000803e3d6000fd5b505050506040513d60208110156135b457600080fd5b8101908080519060200190929190505050507f91afc211a3b50c84dc018c488b69e3b5eea0197080d6ac03fbc5393c2f15b648868683866007016000868152602001908152602001600020600501546040518085815260200184815260200183815260200182815260200194505050505060405180910390a15b8080600101915050613469565b50600061271060025484600201540281151561365357fe5b0490506136c3600660008660010160009054906101000a900473ffffffffffffffffffffffffffffffffffffffff1673ffffffffffffffffffffffffffffffffffffffff1673ffffffffffffffffffffffffffffffffffffffff16815260200190815260200160002054826144d2565b600660008660010160009054906101000a900473ffffffffffffffffffffffffffffffffffffffff1673ffffffffffffffffffffffffffffffffffffffff1673ffffffffffffffffffffffffffffffffffffffff1681526020019081526020016000208190555061373e8460100154828560020154036144d2565b8460100181905550613758846010015484600401546149a6565b8460100181905550505b600083600e0160016101000a81548160ff0219169083151502179055507fe485236df3e922188266a98ecc9b333efb80fce7f5e8a870e72726ca8a6b47718585846002015485600401548660050154604051808681526020018581526020018481526020018381526020018281526020019550505050505060405180910390a15050505050565b6000600660008373ffffffffffffffffffffffffffffffffffffffff1673ffffffffffffffffffffffffffffffffffffffff168152602001908152602001600020549050919050565b6000600154905090565b6000808511151561384c57600080fd5b60006005600087815260200190815260200160002090506000600f8516905060008160ff16141515156138e7576040517f08c379a000000000000000000000000000000000000000000000000000000000815260040180806020018281038252600d8152602001807f496e76616c69642074797065210000000000000000000000000000000000000081525060200191505060405180910390fd5b81600d015486148015613908575081600e0160019054906101000a900460ff165b15156139a2576040517f08c379a00000000000000000000000000000000000000000000000000000000081526004018080602001828103825260298152602001807f4f6e6c7920616c6c6f772062657420666f722063757272656e7420616374697681526020017f656420726f756e6421000000000000000000000000000000000000000000000081525060400191505060405180910390fd5b81600e0160009054906101000a900460ff161515613a28576040517f08c379a00000000000000000000000000000000000000000000000000000000081526004018080602001828103825260188152602001807f54686520726f6f6d206973206e6f74206163746976656421000000000000000081525060200191505060405180910390fd5b60008090506000809050600080905060006001905060006001905060008090505b60038160ff161015613c475760008160ff1660020a6001028816905060008160ff16141515613c3957600a60018701028b5110151515613af1576040517f08c379a00000000000000000000000000000000000000000000000000000000081526004018080602001828103825260138152602001807f4d697373696e67206265742076616c756573210000000000000000000000000081525060200191505060405180910390fd5b886005018260ff16600481101515613b0557fe5b01549350886009018260ff16600481101515613b1d57fe5b0154925060008090505b600a8160ff161015613ba357613b698686868f8560ff16600a8d0201815181101515613b4f57fe5b9060200190602002015102811515613b6357fe5b046144d2565b9550613b94888d8360ff16600a8b0201815181101515613b8557fe5b906020019060200201516144d2565b97508080600101915050613b27565b50613bb2858a600f01546144d2565b945088601001548511151515613c30576040517f08c379a000000000000000000000000000000000000000000000000000000000815260040180806020018281038252601b8152602001807f43616e6e6f7420626574206f76657220636f6d70656e7361746521000000000081525060200191505060405180910390fd5b85806001019650505b508080600101915050613a49565b50600a8402895110151515613cc4576040517f08c379a00000000000000000000000000000000000000000000000000000000081526004018080602001828103825260138152602001807f4d697373696e67206265742076616c756573210000000000000000000000000081525060200191505060405180910390fd5b600a84029350600880871660ff16148015613cdf5750838951115b156140215760008985806001019650815181101515613cfa57fe5b906020019060200201519050848a51111515613d7e576040517f08c379a00000000000000000000000000000000000000000000000000000000081526004018080602001828103825260198152602001807f6265745461696c496e666f20666f726d61742077726f6e67210000000000000081525060200191505060405180910390fd5b876005016003600481101515613d9057fe5b01549250876009016003600481101515613da657fe5b0154915060008090505b81811015613fa25760008b87806001019850815181101515613dce57fe5b90602001906020020151905060008c88806001019950815181101515613df057fe5b9060200190602002015190506002810288018d5110151515613e7a576040517f08c379a00000000000000000000000000000000000000000000000000000000081526004018080602001828103825260198152602001807f6265745461696c496e666f20666f726d61742077726f6e67210000000000000081525060200191505060405180910390fd5b60008210158015613e8c575060098211155b1515613f26576040517f08c379a00000000000000000000000000000000000000000000000000000000081526004018080602001828103825260258152602001807f6265745461696c20626c6f636b206e756d206d757374206265747765656e205b81526020017f302d395d2100000000000000000000000000000000000000000000000000000081525060400191505060405180910390fd5b60008090505b81811015613f925760008e60018b01815181101515613f4757fe5b906020019060200201519050600088888302811515613f6257fe5b049050613f6f8a826144d2565b9950613f7b8c836144d2565b9b5060028b019a5050508080600101915050613f2c565b5050508080600101915050613db0565b508760100154841115151561401f576040517f08c379a000000000000000000000000000000000000000000000000000000000815260040180806020018281038252601b8152602001807f43616e6e6f7420626574206f76657220636f6d70656e7361746521000000000081525060200191505060405180910390fd5b505b6140518760010160009054906101000a900473ffffffffffffffffffffffffffffffffffffffff163330886144f3565b1561427f5760008760110160008d8152602001908152602001600020905061407d8160020154876144d2565b816002018190555061409388600f0154856144d2565b88600f01819055506140aa816005015460016144d2565b81600501819055506140ba614b87565b8d8160200181815250508c8160400181815250508160050154816060018181525050868160800181815250508b8160c00181815250508a8160e0018190525060008160a001818152505033816000019073ffffffffffffffffffffffffffffffffffffffff16908173ffffffffffffffffffffffffffffffffffffffff1681525050808260070160008460050154815260200190815260200160002060008201518160000160006101000a81548173ffffffffffffffffffffffffffffffffffffffff021916908373ffffffffffffffffffffffffffffffffffffffff1602179055506020820151816001015560408201518160020155606082015181600301556080820151816004015560a0820151816005015560c0820151816006015560e08201518160070190805190602001906141f5929190614bea565b50610100820151816008019080519060200190614213929190614bea565b509050507fca313d9481155e759bb8370444544524231a71d3a267c4e52c71b7ca938773898e8e84600501548a6040518085815260200184815260200183815260200182815260200194505050505060405180910390a18160050154995050505050505050505061428b565b60009750505050505050505b949350505050565b60008084905060008173ffffffffffffffffffffffffffffffffffffffff166370a08231306040518263ffffffff167c0100000000000000000000000000000000000000000000000000000000028152600401808273ffffffffffffffffffffffffffffffffffffffff1673ffffffffffffffffffffffffffffffffffffffff16815260200191505060206040518083038186803b15801561433457600080fd5b505afa158015614348573d6000803e3d6000fd5b505050506040513d602081101561435e57600080fd5b810190808051906020019092919050505090508381101515156143e9576040517f08c379a00000000000000000000000000000000000000000000000000000000081526004018080602001828103825260148152602001807f4e6f7420656e6f756768206d6f6e6579203a282100000000000000000000000081525060200191505060405180910390fd5b8173ffffffffffffffffffffffffffffffffffffffff1663a9059cbb86866040518363ffffffff167c0100000000000000000000000000000000000000000000000000000000028152600401808373ffffffffffffffffffffffffffffffffffffffff1673ffffffffffffffffffffffffffffffffffffffff16815260200182815260200192505050602060405180830381600087803b15801561448c57600080fd5b505af11580156144a0573d6000803e3d6000fd5b505050506040513d60208110156144b657600080fd5b8101908080519060200190929190505050925050509392505050565b60008082840190508381101515156144e957600080fd5b8091505092915050565b60008085905060008173ffffffffffffffffffffffffffffffffffffffff166370a08231876040518263ffffffff167c0100000000000000000000000000000000000000000000000000000000028152600401808273ffffffffffffffffffffffffffffffffffffffff1673ffffffffffffffffffffffffffffffffffffffff16815260200191505060206040518083038186803b15801561459457600080fd5b505afa1580156145a8573d6000803e3d6000fd5b505050506040513d60208110156145be57600080fd5b81019080805190602001909291905050509050600084111515614649576040517f08c379a000000000000000000000000000000000000000000000000000000000815260040180806020018281038252601a8152602001807f4d757374207472616e7366657220736f6d6520746f6b656e732100000000000081525060200191505060405180910390fd5b8084111515156146c1576040517f08c379a000000000000000000000000000000000000000000000000000000000815260040180806020018281038252601e8152602001807f43616e6e6f742061626f76652063757272656e7420686f6c64696e677321000081525060200191505060405180910390fd5b60008273ffffffffffffffffffffffffffffffffffffffff1663dd62ed3e88886040518363ffffffff167c0100000000000000000000000000000000000000000000000000000000028152600401808373ffffffffffffffffffffffffffffffffffffffff1673ffffffffffffffffffffffffffffffffffffffff1681526020018273ffffffffffffffffffffffffffffffffffffffff1673ffffffffffffffffffffffffffffffffffffffff1681526020019250505060206040518083038186803b15801561479057600080fd5b505afa1580156147a4573d6000803e3d6000fd5b505050506040513d60208110156147ba57600080fd5b810190808051906020019092919050505090506000811415156147e9578082106147e457806147e6565b815b90505b848110151515614887576040517f08c379a00000000000000000000000000000000000000000000000000000000081526004018080602001828103825260228152602001807f4d75737420617070726f7665206c6f636b656420746f6b656e73206265666f7281526020017f652e00000000000000000000000000000000000000000000000000000000000081525060400191505060405180910390fd5b8273ffffffffffffffffffffffffffffffffffffffff166323b872dd8888886040518463ffffffff167c0100000000000000000000000000000000000000000000000000000000028152600401808473ffffffffffffffffffffffffffffffffffffffff1673ffffffffffffffffffffffffffffffffffffffff1681526020018373ffffffffffffffffffffffffffffffffffffffff1673ffffffffffffffffffffffffffffffffffffffff1681526020018281526020019350505050602060405180830381600087803b15801561495e57600080fd5b505af1158015614972573d6000803e3d6000fd5b505050506040513d602081101561498857600080fd5b81019080805190602001909291905050509350505050949350505050565b60008282111515156149b757600080fd5b600082840390508091505092915050565b608060405190810160405280600490602082028038833980820191505090505090565b60e060405190810160405280600081526020016000815260200160008152602001600081526020016000815260200160008152602001600081525090565b61024060405190810160405280600073ffffffffffffffffffffffffffffffffffffffff168152602001600073ffffffffffffffffffffffffffffffffffffffff168152602001606081526020016060815260200160008152602001614a8d614c37565b8152602001614a9a614c37565b81526020016000815260200160001515815260200160001515815260200160008152602001600081525090565b828054600181600116156101000203166002900490600052602060002090601f016020900481019282601f10614b0857805160ff1916838001178555614b36565b82800160010185558215614b36579182015b82811115614b35578251825591602001919060010190614b1a565b5b509050614b439190614c5a565b5090565b8260048101928215614b76579160200282015b82811115614b75578251825591602001919060010190614b5a565b5b509050614b839190614c5a565b5090565b61012060405190810160405280600073ffffffffffffffffffffffffffffffffffffffff16815260200160008152602001600081526020016000815260200160008152602001600081526020016000815260200160608152602001606081525090565b828054828255906000526020600020908101928215614c26579160200282015b82811115614c25578251825591602001919060010190614c0a565b5b509050614c339190614c5a565b5090565b608060405190810160405280600490602082028038833980820191505090505090565b614c7c91905b80821115614c78576000816000905550600101614c60565b5090565b9056fea165627a7a723058207980a83c62c1c931dac57729d10a633cfdd5f8bbcbf0b7e69a4f6f1a161c9f3f0029",
  "source": "pragma solidity ^0.5.0;\n\n/**\n * @title SafeMath\n * @dev Math operations with safety checks that revert on error\n */\nlibrary SafeMath {\n    int256 constant private INT256_MIN = -2**255;\n\n    /**\n    * @dev Multiplies two unsigned integers, reverts on overflow.\n    */\n    function mul(uint256 a, uint256 b) internal pure returns (uint256) {\n        // Gas optimization: this is cheaper than requiring 'a' not being zero, but the\n        // benefit is lost if 'b' is also tested.\n        // See: https://github.com/OpenZeppelin/openzeppelin-solidity/pull/522\n        if (a == 0) {\n            return 0;\n        }\n\n        uint256 c = a * b;\n        require(c / a == b);\n\n        return c;\n    }\n\n    /**\n    * @dev Multiplies two signed integers, reverts on overflow.\n    */\n    function mul(int256 a, int256 b) internal pure returns (int256) {\n        // Gas optimization: this is cheaper than requiring 'a' not being zero, but the\n        // benefit is lost if 'b' is also tested.\n        // See: https://github.com/OpenZeppelin/openzeppelin-solidity/pull/522\n        if (a == 0) {\n            return 0;\n        }\n\n        require(!(a == -1 && b == INT256_MIN)); // This is the only case of overflow not detected by the check below\n\n        int256 c = a * b;\n        require(c / a == b);\n\n        return c;\n    }\n\n    /**\n    * @dev Integer division of two unsigned integers truncating the quotient, reverts on division by zero.\n    */\n    function div(uint256 a, uint256 b) internal pure returns (uint256) {\n        // Solidity only automatically asserts when dividing by 0\n        require(b > 0);\n        uint256 c = a / b;\n        // assert(a == b * c + a % b); // There is no case in which this doesn't hold\n\n        return c;\n    }\n\n    /**\n    * @dev Integer division of two signed integers truncating the quotient, reverts on division by zero.\n    */\n    function div(int256 a, int256 b) internal pure returns (int256) {\n        require(b != 0); // Solidity only automatically asserts when dividing by 0\n        require(!(b == -1 && a == INT256_MIN)); // This is the only case of overflow\n\n        int256 c = a / b;\n\n        return c;\n    }\n\n    /**\n    * @dev Subtracts two unsigned integers, reverts on overflow (i.e. if subtrahend is greater than minuend).\n    */\n    function sub(uint256 a, uint256 b) internal pure returns (uint256) {\n        require(b <= a);\n        uint256 c = a - b;\n\n        return c;\n    }\n\n    /**\n    * @dev Subtracts two signed integers, reverts on overflow.\n    */\n    function sub(int256 a, int256 b) internal pure returns (int256) {\n        int256 c = a - b;\n        require((b >= 0 && c <= a) || (b < 0 && c > a));\n\n        return c;\n    }\n\n    /**\n    * @dev Adds two unsigned integers, reverts on overflow.\n    */\n    function add(uint256 a, uint256 b) internal pure returns (uint256) {\n        uint256 c = a + b;\n        require(c >= a);\n\n        return c;\n    }\n\n    /**\n    * @dev Adds two signed integers, reverts on overflow.\n    */\n    function add(int256 a, int256 b) internal pure returns (int256) {\n        int256 c = a + b;\n        require((b >= 0 && c >= a) || (b < 0 && c < a));\n\n        return c;\n    }\n\n    /**\n    * @dev Divides two unsigned integers and returns the remainder (unsigned integer modulo),\n    * reverts when dividing by zero.\n    */\n    function mod(uint256 a, uint256 b) internal pure returns (uint256) {\n        require(b != 0);\n        return a % b;\n    }\n}\n\ncontract ERC20 {\n    function totalSupply()\n        public\n        view\n        returns (uint256);\n\n    function balanceOf(\n        address who\n        )\n        public\n        view\n        returns (uint256);\n\n    function allowance(\n        address owner,\n        address spender\n        )\n        public\n        view\n        returns (uint256);\n\n    function transfer(\n        address to,\n        uint256 value\n        )\n        public\n        returns (bool);\n\n    function transferFrom(\n        address from,\n        address to,\n        uint256 value\n        )\n        public\n        returns (bool);\n\n    function approve(\n        address spender,\n        uint256 value\n        )\n        public\n        returns (bool);\n}\n\ncontract HashDice {\n    struct BetOrder{\n        address owner;\n        uint256 roomId;\n        uint256 roundId;\n        uint256 orderId;\n        uint256 totalValue;\n        uint256 gain;\n        uint256 betType;\n        uint256[] betValue;\n        uint256[] betTailInfo;\n    }\n\n    struct Round{\n        uint256 roundId;\n        uint256 startBlock;\n        uint256 totalBetValue;\n        uint256 gain;\n        uint256 compensate;\n        uint256 orderNum;\n        uint256 timeStamp;\n        mapping(uint256 => BetOrder) orders;\n    }\n\n    struct Room{\n        address creator; //RoomOwner\n        address erc20Addr; //ERC20 token address\n        string symbol; //Token name\n        string name; //Room name\n        uint256 id; //Unique room ID\n        uint256[4] nominator; //0:Odd, 1:Even, 2:char, 3:tail\n        uint256[4] denominator; //0:Odd, 1:Even, 2:char, 3:tail\n        uint256 round; //Current round\n        bool active;\n        bool roundActive;\n        uint256 currentMaxCompensate;\n        uint256 lastLockedValue; //Locked token value after last round\n        mapping(uint256 => Round) rounds;\n    }\n\n    event RoomOpened(\n        address creator, //RoomOwner\n        address erc20Addr, //ERC20 token address\n        string symbol, //Token name\n        string name, //Room name\n        uint256 id, //Unique room ID\n        uint256 lastLockedValue //Locked token value after last round\n    );\n\n    event RoomClosed(\n        uint256 roomId\n    );\n\n    event Withdrawed(\n        uint256 roomId,\n        uint256 value,\n        uint256 remained\n    );\n\n    event Deposited(\n        uint256 roomId,\n        uint256 value,\n        uint256 remained\n    );\n\n    event RoundOpened(\n        uint256 roomId,\n        uint256 roundId,\n        uint256 startBlock,\n        uint256 lockedValue,\n        uint256 timeStamp\n    );\n    event RoundClosed(\n        uint256 roomId,\n        uint256 roundId,\n        uint256 totalBetValue,\n        uint256 compensate,\n        uint256 orderNum\n    );\n\n    event NewBetOrder(\n        uint256 roomId,\n        uint256 roundId,\n        uint256 orderId,\n        uint256 value\n    );\n\n    event CloseRoundTooLate(\n        uint256 current,\n        uint256 start\n    );\n\n    event DebugAA(\n        uint256 block,\n        uint256 start\n    );\n\n    event PayBetOwner(\n        uint256 roomId,\n        uint256 roundId,\n        uint256 orderId,\n        uint256 value\n    );\n\n    address public gOwner;\n    uint256 public gRoomId;\n    uint256 public gProfitRatio;\n    uint256 public gRoundWait;\n    uint256 public gRoundPeriod;\n\n    mapping(uint256 => Room) rooms;\n    mapping(address => uint256) profits;\n\n    constructor() public payable{\n        gOwner = msg.sender;\n\t\tgRoomId = 0;\n        gProfitRatio = 100; //Default is 1%, UNIT is 10000\n        gRoundWait = 20; //default is 30\n        gRoundPeriod = 2; //default 10\n \t}\n\n    function CheckTransferFrom(\n        address erc20Addr,\n        address from,\n        address to,\n        uint256 value\n    ) internal returns (bool){\n        //First check whether msg.sender has enough tokens\n        ERC20 token = ERC20(erc20Addr);\n        uint256 totalBalance = token.balanceOf(from);\n        require(value > 0, \"Must transfer some tokens!\");\n        require(value <= totalBalance, \"Cannot above current holdings!\");\n        uint256 spendable = token.allowance(\n            from,\n            to\n        );\n        if (spendable != 0) {\n            spendable = (totalBalance < spendable) ? totalBalance : spendable;\n        }\n        require(spendable >= value, \"Must approve locked tokens before.\");\n\n        //Final tranfer bet valule to contract\n        return token.transferFrom(from, to, value);\n    }\n\n    function CheckTransfer(\n        address erc20Addr,\n        address to,\n        uint256 value\n    ) internal returns (bool) {\n        ERC20 token = ERC20(erc20Addr);\n        uint256 balance = token.balanceOf(address(this));\n        require(balance >= value, \"Not enough money :(!\");\n        //Do the real token transfer\n        return token.transfer(to, value);\n    }\n\n    function GetBetOrder(\n        uint256 roomId,\n        uint256 roundId,\n        uint256 orderId\n    ) public view returns(address, uint256, uint256, uint256, uint256[] memory, uint256[] memory) {\n        require(roomId > 0 && roundId > 0 && orderId > 0);\n        Room storage room = rooms[roomId];\n        Round storage round = room.rounds[roundId];\n        BetOrder storage order = round.orders[orderId];\n        return (order.owner, order.totalValue, order.gain, order.betType, order.betValue, order.betTailInfo);\n    }\n\n    function GetRoundInfo(\n        uint256 roomId,\n        uint256 roundId\n    ) public view returns(uint256, uint256, uint256, uint256, uint256,uint256) {\n        require(roomId > 0 && roundId > 0);\n        Room storage room = rooms[roomId];\n        Round storage round = room.rounds[roundId];\n        return (round.startBlock, round.totalBetValue, round.gain, round.compensate, round.orderNum,round.timeStamp);\n    }\n\n    function GetRoomInfo(\n        uint256 roomId\n    ) public view returns(address, address, string memory, string memory, \n            uint256[4] memory, uint256[4] memory, uint256, bool, bool, uint256, uint256) {\n        require(roomId > 0);\n        Room storage room = rooms[roomId];\n        return (room.creator, room.erc20Addr, room.symbol, room.name,\n            room.nominator, room.denominator, room.round, room.active, room.roundActive,\n            room.currentMaxCompensate, room.lastLockedValue);\n    }\n\n    function GetRooms() public view returns (uint256) {\n        return gRoomId;\n    }\n\n    function GetProfitRatio() public view returns (uint256) {\n        return gProfitRatio;\n    }\n\n    function SetProfitRatio(uint256 ratio) public {\n        require(ratio < 10000, \"Cannot exceed profit UNIT!\");\n        require(msg.sender == gOwner, \"Only allow contract owner to set!\");\n        gProfitRatio = ratio;\n    }\n\n    function GetRoundWait() public view returns (uint256) {\n        return gRoundWait;\n    }\n\n    function SetRoundWait(uint256 value) public {\n        require(msg.sender == gOwner, \"Only allow contract owner to set!\");\n        gRoundWait = value;\n    }\n\n    function GetRoundPeriod() public view returns (uint256) {\n        return gRoundPeriod;\n    }\n\n    function SetRoundPeriod(uint256 value) public {\n        require(msg.sender == gOwner, \"Only allow contract owner to set!\");\n        gRoundPeriod = value;\n    }\n\n    function OpenRoom(\n        address erc20Addr, \n        string memory symbol, \n        uint256 initLockedValue, \n        string memory roomName, \n        uint256[4] memory nominator,\n        uint256[4] memory denominator\n    ) public payable returns(uint256 roomId){\n        require(erc20Addr != address(0));\n        require(initLockedValue > 0);\n        //Must meet (0 < nonimator <= denominator)\n        for (uint i=0; i<4; i++) {\n            require(nominator[i] > 0 && nominator[i] <= denominator[i]);\n        }\n\n        //Do the real token transfer, after that the token is locked in the contract.\n        if (CheckTransferFrom(erc20Addr, msg.sender, address(this), initLockedValue)) {\n            gRoomId = SafeMath.add(gRoomId,1);\n\n            Room memory newRoom;\n            newRoom.creator = msg.sender;\n            newRoom.id = gRoomId;\n            newRoom.symbol = symbol;\n            newRoom.erc20Addr = erc20Addr;\n            newRoom.name = roomName;\n            newRoom.nominator = nominator;\n            newRoom.denominator = denominator;\n            newRoom.currentMaxCompensate = 0;\n            newRoom.lastLockedValue = initLockedValue;\n            newRoom.roundActive = false;\n            newRoom.active = true;\n\n            rooms[gRoomId] = newRoom; //Automatically copy it from memory to storage\n            emit RoomOpened(msg.sender, erc20Addr, symbol, roomName, gRoomId, initLockedValue);\n\n            OpenRound(gRoomId,0,0);\n            return gRoomId;\n        } else {\n            return 0;\n        }\n    }\n\n    function CloseRoom(\n        uint256 roomId\n    ) public payable {\n        require(roomId > 0);\n        Room storage room = rooms[roomId];\n        //Only allow room owner to withdraw money\n        require(room.creator == msg.sender, \n            \"Only allow room owner to withdraw money!\");\n        //Close active round first\n        if (room.roundActive) {\n            CloseRound(roomId, room.round);\n        }\n        //Finally return back the locked tokens to room creator\n        if(room.lastLockedValue > 0){\n            //Do the real token transfer, after that the token is locked in the contract.\n            if(CheckTransfer(room.erc20Addr, room.creator, room.lastLockedValue)) {\n                room.lastLockedValue = 0;\n            }\n        }\n        room.active = false;\n        emit RoomClosed(roomId);\n    }\n\n    function GetProfit(\n        address erc20Addr\n    ) public view returns (uint256) {\n        return profits[erc20Addr];\n    }\n\n    function WithdrawProfit(\n        address erc20Addr,\n        uint256 value,\n        address receiver\n    ) public payable {\n        require(erc20Addr != address(0) && value > 0 && receiver != address(0));\n        require(gOwner == msg.sender, \n            \"Only allow contract owner to withdraw profit money!\");\n        require(value <= profits[erc20Addr], \"Withdraw profit over money!\");\n        //Do the real token transfer\n        if(CheckTransfer(erc20Addr, receiver, value)) {\n            profits[erc20Addr] = SafeMath.sub(profits[erc20Addr], value);\n        }\n    }\n\n    function Withdraw(\n        uint256 roomId,\n        uint256 value,\n        address receiver\n    ) public payable {\n        require(roomId > 0);\n        Room storage room = rooms[roomId];\n        //Only allow room owner to withdraw money\n        require(room.creator == msg.sender, \n            \"Only allow room owner to withdraw money!\");\n        require(!room.roundActive, \"Only no active round can withdraw money!\");\n        require(value <= room.lastLockedValue, \"Withdraw over money!\");\n        //Finally return back the locked tokens to room creator\n        if(room.lastLockedValue > 0){\n            //Do the real token transfer\n            if(CheckTransfer(room.erc20Addr, receiver, value)) {\n                room.lastLockedValue = SafeMath.sub(room.lastLockedValue, value);\n            }\n        }\n        emit Withdrawed(roomId, value, room.lastLockedValue);\n    }\n\n    function Deposit(\n        uint256 roomId,\n        uint256 value\n    ) public payable {\n        require(roomId > 0 && value > 0);\n        Room storage room = rooms[roomId];\n        //Do the real token transfer, after that the token is locked in the contract.\n        if (CheckTransferFrom(room.erc20Addr, msg.sender, address(this), value)) {\n            room.lastLockedValue = SafeMath.add(room.lastLockedValue, value);\n        }\n\n        emit Deposited(roomId, value, room.lastLockedValue);\n    }\n\n    function OpenRound(\n        uint256 roomId,\n        uint256 startBlock,\n        uint256 value\n    ) public payable returns(uint256 roundId){\n        require(roomId > 0);\n        Room storage room = rooms[roomId];\n        //Only allow room owner and contract owner to open new round\n        require(room.creator == msg.sender, \n            \"Only allow room owner to open new round\");\n        require(room.active, \"The room is not actived!\");\n        require(room.roundActive == false, \"Previous round must be closed to open a new round!\");\n\n        Round storage lastRound = room.rounds[room.round];\n        if (startBlock == 0) {\n            startBlock = SafeMath.add(block.number, gRoundWait);\n        } else {\n            require(SafeMath.add(block.number, gRoundWait) <= startBlock, \n                \"New round start block should be in the feature!\");\n        }\n\n        require(room.round == 0 || SafeMath.add(lastRound.startBlock + 10, gRoundPeriod) <= startBlock, \n            \"Two rounds period must above 10 blocks!\");\n        require(room.lastLockedValue > 0, \"Must have tokens to start new round!\");\n\n        if (value > 0 && room.creator == msg.sender) {\n            //Allow room owner to increase locked token for a new round\n            if (CheckTransferFrom(room.erc20Addr, msg.sender, address(this), value)){\n                room.lastLockedValue = SafeMath.add(room.lastLockedValue, value);\n            }\n        }\n\n        Round memory newRound;\n        newRound.startBlock = startBlock;\n        newRound.totalBetValue = 0;\n        newRound.compensate = 0;\n        newRound.orderNum = 0;\n        newRound.timeStamp=block.timestamp;\n        room.round = SafeMath.add(room.round, 1);\n        newRound.roundId = room.round;\n        room.rounds[room.round] = newRound; //Automatically copy it from memory to storage\n        room.roundActive = true;\n        room.currentMaxCompensate = 0;\n        emit RoundOpened(roomId, room.round, startBlock, room.lastLockedValue,block.timestamp);\n        return room.round;\n    }\n\n    /*\n     * We allow anyone to call CloseRound to trigger the hash result\n     * --> Bet order owner should call it asap if he wins and detect room or game owner corruption.\n     * --> Room owner should call it asap if he wins and detect game owner corruption.\n     * --> Normally Game owner should call it after some blocks of open round.\n     */\n    function CloseRound(\n        uint256 roomId,\n        uint256 roundId\n    ) public payable{\n        require(roomId > 0);\n        Room storage room = rooms[roomId];\n        require((roundId == room.round) && room.roundActive, \"Only allow close current active round\");\n        require(room.active, \"The room is not actived!\");\n        Round storage round = room.rounds[roundId];\n        emit DebugAA(block.number, round.startBlock);\n        //Because we can only retrieve the latest 256 block hash\n        require(block.number > SafeMath.add(round.startBlock, 10), \n            \"Close round must happen after between 10~246 blocks!\");\n\n        ERC20 token = ERC20(room.erc20Addr);\n        if(block.number > SafeMath.add(round.startBlock, 246)){\n            //It's too late to close one round, we cannot get the block hash\n            //the only choice is to return back all bet orders for current round.\n            for (uint256 i=1; i<=round.orderNum; i++){\n                //Directly return back bet values\n                token.transfer(round.orders[i].owner, round.orders[i].totalValue);\n            }\n            emit CloseRoundTooLate(block.number, round.startBlock);\n        } else {\n            //Now we should compensate each one according to block hashes.\n            round.compensate = 0;\n            for (uint8 i=0; i<10; i++){\n                uint256 blockHash = uint256(blockhash(round.startBlock + i));\n                uint8 blockHashTail = uint8(blockHash & 0xF);\n                bool isChar = (blockHashTail >= 10 && blockHashTail <=15);\n                bool isOdd = (!isChar && ((blockHashTail & 0x1) == 0x1));\n                bool isEven = (!isChar && !isOdd);\n\n                for (uint256 j=1; j<=round.orderNum; j++){\n                    uint8 count = 0;\n                    if (((round.orders[j].betType & 0x1) == 0x1)){\n                        if((round.orders[j].betValue[count*10 + i] > 0) && isOdd){\n                            //bet order owner wins odd!\n                            round.orders[j].gain = SafeMath.add(round.orders[j].gain, \n                                round.orders[j].betValue[count*10 + i] * room.denominator[0] / room.nominator[0]);\n                        }\n                        count++;\n                    }\n                    if (((round.orders[j].betType & 0x2) == 0x2)){\n                        if((round.orders[j].betValue[count*10 + i] > 0) && isEven){\n                            //bet order owner wins even!\n                            round.orders[j].gain = SafeMath.add(round.orders[j].gain, \n                                round.orders[j].betValue[count*10 + i] * room.denominator[1] / room.nominator[1]);\n                        }\n                        count++;\n                    }\n                    if (((round.orders[j].betType & 0x4) == 0x4)){\n                        if((round.orders[j].betValue[count*10 + i] > 0) && isChar){\n                            //bet order owner wins char!\n                            round.orders[j].gain = SafeMath.add(round.orders[j].gain, \n                                round.orders[j].betValue[count*10 + i] * room.denominator[2] / room.nominator[2]);\n                        }\n                        count++;\n                    }\n                }\n            }\n\n            for (uint256 i=1; i<=round.orderNum; i++){\n                uint256 n = 0;\n                if (((round.orders[i].betType & 0x1) == 0x1)){\n                    n++;\n                }\n                if (((round.orders[i].betType & 0x2) == 0x2)){\n                    n++;\n                }\n                if (((round.orders[i].betType & 0x4) == 0x4)){\n                    n++;\n                }\n                n = n * 10;\n                if (((round.orders[i].betType & 0x8) == 0x8)){\n                    uint256 total_block = round.orders[i].betValue[n++];\n                    for (uint256 j=0; j<total_block; j++) {\n                        uint256 block_num = round.orders[i].betValue[n++];\n                        uint256 blockHash = uint256(blockhash(round.startBlock + block_num));\n                        uint8 blockHashTail = uint8(blockHash & 0xF);\n                        uint256 tail_num = round.orders[i].betValue[n++];\n                        for (uint256 k=0; k<tail_num; k++) {\n                            if (round.orders[i].betValue[n] == blockHashTail) {\n                                //bet order owner wins char!\n                                round.orders[i].gain = SafeMath.add(round.orders[i].gain, \n                                    round.orders[i].betValue[n+1] * room.denominator[3] / room.nominator[3]);\n                            }\n                            n+=2;\n                        }\n                    }\n                }\n            }\n\n            for (uint256 i=1; i<=round.orderNum; i++){\n                if (round.orders[i].gain > 0) {\n                    round.compensate = SafeMath.add(round.compensate, round.orders[i].gain);\n                }\n            }\n            //require(SafeMath.add(room.lastLockedValue, round.totalBetValue) >= round.compensate, \n            //    \"No enough money for compesate!\");\n            //In case of no money for compensation, though it should not happen because we alreay limit\n            //  submmit order if exceed maximum compensation.\n            //First we pay the betor\n            for (uint256 i=1; i<=round.orderNum; i++){\n                if (round.orders[i].gain > 0) {\n                    //Pay the betor\n                    token.transfer(round.orders[i].owner, round.orders[i].gain);\n                    emit PayBetOwner(roomId, roundId, i, round.orders[i].gain);\n                }\n            }\n            //Then pay the profit ratio\n            uint256 profit = round.totalBetValue * gProfitRatio / 10000;\n            profits[room.erc20Addr] = SafeMath.add(profits[room.erc20Addr], profit);\n            //Finally pay the room owner\n            room.lastLockedValue = SafeMath.add(room.lastLockedValue, round.totalBetValue - profit);\n            room.lastLockedValue = SafeMath.sub(room.lastLockedValue, round.compensate);\n        }\n        room.roundActive = false;\n        emit RoundClosed(roomId, roundId, round.totalBetValue, round.compensate, round.orderNum);\n    }\n\n    /*\n     * @param betType, betType format is 4 bit |tail|char|even|odd|\n     * @param betValue, betValue is 10 values per each bit in betType\n     */\n    function SubmitBetOrder(\n        uint256 roomId, \n        uint256 roundId,\n        uint256 betType, \n        uint256[] memory betValue\n    ) public payable returns (uint256){\n        require(roomId > 0);\n        Room storage room = rooms[roomId];\n        uint8 betType8 = uint8(betType & 0xF);\n        require(betType8 != 0, \"Invalid type!\");\n        require((roundId == room.round) && room.roundActive, \"Only allow bet for current actived round!\");\n        require(room.active, \"The room is not actived!\");\n \n        //Pre-calculate the maximum compensate and check whether \n        //room owner can pay the maximum compensate\n        uint256 betBalance = 0;\n        uint256 n = 0;\n        uint256 maxCompensate = 0;\n        uint256 nominator = 1;\n        uint256 denominator = 1;\n        for (uint8 i=0; i<3; i++) {\n            uint8 subType = betType8 & (1 * 2**i);\n            if (subType != 0) {\n                require(betValue.length >= (n+1)*10, \"Missing bet values!\");\n                nominator = room.nominator[i];\n                denominator = room.denominator[i];\n                for (uint8 j=0; j<10; j++){\n                    maxCompensate = SafeMath.add(maxCompensate, betValue[n*10+j] * denominator / nominator);\n                    betBalance = SafeMath.add(betBalance, betValue[n*10 + j]);\n                }\n                maxCompensate = SafeMath.add(maxCompensate, room.currentMaxCompensate);\n                require(maxCompensate <= room.lastLockedValue, \"Cannot bet over compensate!\");\n                n++;\n            }\n        }\n        require(betValue.length >= n*10, \"Missing bet values!\");\n        //Now check the bet tail info, format is\n        //[n, block1, len1, tail1_1, value1_1, tail2_1, value2_1,  , tail1_len1, value1_len1,  , \n        //    blockn, lenm, tailn_1, value_num,  , tailn_m, valuen_m]\n        n = n*10;\n        if (((betType8 & 0x8) == 0x8) && betValue.length > n) {\n            uint256 total_block = betValue[n++];\n            require(betValue.length > n, \"betTailInfo format wrong!\");\n            nominator = room.nominator[3];\n            denominator = room.denominator[3];\n            for (uint256 i=0; i<total_block; i++) {\n                uint256 block_num = betValue[n++];\n                uint256 tail_num = betValue[n++];\n                require(betValue.length >= n + tail_num*2, \"betTailInfo format wrong!\");\n                require(block_num >= 0 && block_num <= 9, \"betTail block num must between [0-9]!\");\n                for (uint256 j=0; j<tail_num;j++) {\n                    uint256 bet_value = betValue[n+1];\n                    uint256 compensate = bet_value * denominator / nominator;\n                    maxCompensate = SafeMath.add(maxCompensate, compensate);\n                    betBalance = SafeMath.add(betBalance, bet_value);\n                    n+=2;\n                }\n            }\n            require(maxCompensate <= room.lastLockedValue, \"Cannot bet over compensate!\");\n        }\n\n        if (CheckTransferFrom(room.erc20Addr, msg.sender, address(this), betBalance)) {\n            Round storage round = room.rounds[roundId];\n            round.totalBetValue = SafeMath.add(round.totalBetValue, betBalance);\n            room.currentMaxCompensate = SafeMath.add(room.currentMaxCompensate, maxCompensate);\n\n            round.orderNum = SafeMath.add(round.orderNum, 1);\n            BetOrder memory newOrder;\n            newOrder.roomId = roomId;\n            newOrder.roundId = roundId;\n            newOrder.orderId = round.orderNum;\n            newOrder.totalValue = betBalance;\n            newOrder.betType = betType;\n            newOrder.betValue = betValue;\n            newOrder.gain = 0;\n            newOrder.owner=msg.sender;\n            round.orders[round.orderNum] = newOrder;\n            emit NewBetOrder(roomId, roundId, round.orderNum, betBalance);\n            return round.orderNum;\n        }\n        return 0;\n    }\n}",
  "sourcePath": "/eth/hashbet/contracts/HashDice.sol",
  "compiler": {
    "name": "solc",
    "version": "0.5.0+commit.1d4f565a.Emscripten.clang"
  },
  "schemaVersion": "3.0.1",
  "updatedAt": "2019-01-24T17:31:50.047Z",
  "devdoc": {
    "methods": {}
  },
  "userdoc": {
    "methods": {}
  }
}