{
  "contractName": "HashDice",
  "abi": [
    {
      "constant": true,
      "inputs": [],
      "name": "gRoundWait",
      "outputs": [
        {
          "name": "",
          "type": "uint256"
        }
      ],
      "payable": false,
      "stateMutability": "view",
      "type": "function"
    },
    {
      "constant": true,
      "inputs": [],
      "name": "gOwner",
      "outputs": [
        {
          "name": "",
          "type": "address"
        }
      ],
      "payable": false,
      "stateMutability": "view",
      "type": "function"
    },
    {
      "constant": true,
      "inputs": [],
      "name": "gRoundPeriod",
      "outputs": [
        {
          "name": "",
          "type": "uint256"
        }
      ],
      "payable": false,
      "stateMutability": "view",
      "type": "function"
    },
    {
      "constant": true,
      "inputs": [],
      "name": "gRoomId",
      "outputs": [
        {
          "name": "",
          "type": "uint256"
        }
      ],
      "payable": false,
      "stateMutability": "view",
      "type": "function"
    },
    {
      "constant": true,
      "inputs": [],
      "name": "gProfitRatio",
      "outputs": [
        {
          "name": "",
          "type": "uint256"
        }
      ],
      "payable": false,
      "stateMutability": "view",
      "type": "function"
    },
    {
      "inputs": [],
      "payable": true,
      "stateMutability": "payable",
      "type": "constructor"
    },
    {
      "anonymous": false,
      "inputs": [
        {
          "indexed": false,
          "name": "creator",
          "type": "address"
        },
        {
          "indexed": false,
          "name": "erc20Addr",
          "type": "address"
        },
        {
          "indexed": false,
          "name": "symbol",
          "type": "string"
        },
        {
          "indexed": false,
          "name": "name",
          "type": "string"
        },
        {
          "indexed": false,
          "name": "id",
          "type": "uint256"
        },
        {
          "indexed": false,
          "name": "lastLockedValue",
          "type": "uint256"
        }
      ],
      "name": "RoomOpened",
      "type": "event"
    },
    {
      "anonymous": false,
      "inputs": [
        {
          "indexed": false,
          "name": "roomId",
          "type": "uint256"
        }
      ],
      "name": "RoomClosed",
      "type": "event"
    },
    {
      "anonymous": false,
      "inputs": [
        {
          "indexed": false,
          "name": "roomId",
          "type": "uint256"
        },
        {
          "indexed": false,
          "name": "value",
          "type": "uint256"
        },
        {
          "indexed": false,
          "name": "remained",
          "type": "uint256"
        }
      ],
      "name": "Withdrawed",
      "type": "event"
    },
    {
      "anonymous": false,
      "inputs": [
        {
          "indexed": false,
          "name": "roomId",
          "type": "uint256"
        },
        {
          "indexed": false,
          "name": "value",
          "type": "uint256"
        },
        {
          "indexed": false,
          "name": "remained",
          "type": "uint256"
        }
      ],
      "name": "Deposited",
      "type": "event"
    },
    {
      "anonymous": false,
      "inputs": [
        {
          "indexed": false,
          "name": "roomId",
          "type": "uint256"
        },
        {
          "indexed": false,
          "name": "orderId",
          "type": "uint256"
        },
        {
          "indexed": false,
          "name": "value",
          "type": "uint256"
        }
      ],
      "name": "NewBetOrder",
      "type": "event"
    },
    {
      "anonymous": false,
      "inputs": [
        {
          "indexed": false,
          "name": "roomId",
          "type": "uint256"
        },
        {
          "indexed": false,
          "name": "orderId",
          "type": "uint256"
        },
        {
          "indexed": false,
          "name": "blockNum",
          "type": "uint256"
        },
        {
          "indexed": false,
          "name": "startBlock",
          "type": "uint256"
        }
      ],
      "name": "CloseRoundTooLate",
      "type": "event"
    },
    {
      "anonymous": false,
      "inputs": [
        {
          "indexed": false,
          "name": "roomId",
          "type": "uint256"
        },
        {
          "indexed": false,
          "name": "orderId",
          "type": "uint256"
        },
        {
          "indexed": false,
          "name": "value",
          "type": "uint256"
        }
      ],
      "name": "PayBetOwner",
      "type": "event"
    },
    {
      "constant": true,
      "inputs": [
        {
          "name": "roomId",
          "type": "uint256"
        },
        {
          "name": "orderId",
          "type": "uint256"
        }
      ],
      "name": "GetBetOrder",
      "outputs": [
        {
          "name": "",
          "type": "address"
        },
        {
          "name": "",
          "type": "uint256"
        },
        {
          "name": "",
          "type": "uint256"
        },
        {
          "name": "",
          "type": "uint256"
        },
        {
          "name": "",
          "type": "uint256"
        },
        {
          "name": "",
          "type": "bool"
        },
        {
          "name": "",
          "type": "uint256[]"
        }
      ],
      "payable": false,
      "stateMutability": "view",
      "type": "function"
    },
    {
      "constant": true,
      "inputs": [
        {
          "name": "roomId",
          "type": "uint256"
        }
      ],
      "name": "GetRoomInfo",
      "outputs": [
        {
          "name": "",
          "type": "address"
        },
        {
          "name": "",
          "type": "address"
        },
        {
          "name": "",
          "type": "string"
        },
        {
          "name": "",
          "type": "string"
        },
        {
          "name": "",
          "type": "uint256[4]"
        },
        {
          "name": "",
          "type": "uint256[4]"
        },
        {
          "name": "",
          "type": "bool"
        },
        {
          "name": "",
          "type": "uint256"
        },
        {
          "name": "",
          "type": "uint256"
        },
        {
          "name": "",
          "type": "uint256"
        },
        {
          "name": "",
          "type": "uint256"
        }
      ],
      "payable": false,
      "stateMutability": "view",
      "type": "function"
    },
    {
      "constant": true,
      "inputs": [],
      "name": "GetRooms",
      "outputs": [
        {
          "name": "",
          "type": "uint256"
        }
      ],
      "payable": false,
      "stateMutability": "view",
      "type": "function"
    },
    {
      "constant": true,
      "inputs": [],
      "name": "GetProfitRatio",
      "outputs": [
        {
          "name": "",
          "type": "uint256"
        }
      ],
      "payable": false,
      "stateMutability": "view",
      "type": "function"
    },
    {
      "constant": false,
      "inputs": [
        {
          "name": "ratio",
          "type": "uint256"
        }
      ],
      "name": "SetProfitRatio",
      "outputs": [],
      "payable": false,
      "stateMutability": "nonpayable",
      "type": "function"
    },
    {
      "constant": true,
      "inputs": [],
      "name": "GetRoundWait",
      "outputs": [
        {
          "name": "",
          "type": "uint256"
        }
      ],
      "payable": false,
      "stateMutability": "view",
      "type": "function"
    },
    {
      "constant": false,
      "inputs": [
        {
          "name": "value",
          "type": "uint256"
        }
      ],
      "name": "SetRoundWait",
      "outputs": [],
      "payable": false,
      "stateMutability": "nonpayable",
      "type": "function"
    },
    {
      "constant": true,
      "inputs": [],
      "name": "GetRoundPeriod",
      "outputs": [
        {
          "name": "",
          "type": "uint256"
        }
      ],
      "payable": false,
      "stateMutability": "view",
      "type": "function"
    },
    {
      "constant": false,
      "inputs": [
        {
          "name": "value",
          "type": "uint256"
        }
      ],
      "name": "SetRoundPeriod",
      "outputs": [],
      "payable": false,
      "stateMutability": "nonpayable",
      "type": "function"
    },
    {
      "constant": false,
      "inputs": [
        {
          "name": "erc20Addr",
          "type": "address"
        },
        {
          "name": "symbol",
          "type": "string"
        },
        {
          "name": "initLockedValue",
          "type": "uint256"
        },
        {
          "name": "roomName",
          "type": "string"
        },
        {
          "name": "nominator",
          "type": "uint256[4]"
        },
        {
          "name": "denominator",
          "type": "uint256[4]"
        }
      ],
      "name": "OpenRoom",
      "outputs": [
        {
          "name": "roomId",
          "type": "uint256"
        }
      ],
      "payable": true,
      "stateMutability": "payable",
      "type": "function"
    },
    {
      "constant": false,
      "inputs": [
        {
          "name": "roomId",
          "type": "uint256"
        }
      ],
      "name": "CloseRoom",
      "outputs": [
        {
          "name": "",
          "type": "bool"
        }
      ],
      "payable": true,
      "stateMutability": "payable",
      "type": "function"
    },
    {
      "constant": true,
      "inputs": [
        {
          "name": "erc20Addr",
          "type": "address"
        }
      ],
      "name": "GetProfit",
      "outputs": [
        {
          "name": "",
          "type": "uint256"
        }
      ],
      "payable": false,
      "stateMutability": "view",
      "type": "function"
    },
    {
      "constant": false,
      "inputs": [
        {
          "name": "erc20Addr",
          "type": "address"
        },
        {
          "name": "value",
          "type": "uint256"
        },
        {
          "name": "receiver",
          "type": "address"
        }
      ],
      "name": "WithdrawProfit",
      "outputs": [],
      "payable": true,
      "stateMutability": "payable",
      "type": "function"
    },
    {
      "constant": false,
      "inputs": [
        {
          "name": "roomId",
          "type": "uint256"
        },
        {
          "name": "value",
          "type": "uint256"
        },
        {
          "name": "receiver",
          "type": "address"
        }
      ],
      "name": "Withdraw",
      "outputs": [],
      "payable": true,
      "stateMutability": "payable",
      "type": "function"
    },
    {
      "constant": false,
      "inputs": [
        {
          "name": "roomId",
          "type": "uint256"
        },
        {
          "name": "value",
          "type": "uint256"
        }
      ],
      "name": "Deposit",
      "outputs": [],
      "payable": true,
      "stateMutability": "payable",
      "type": "function"
    },
    {
      "constant": false,
      "inputs": [
        {
          "name": "roomId",
          "type": "uint256"
        }
      ],
      "name": "CloseBetOrders",
      "outputs": [],
      "payable": true,
      "stateMutability": "payable",
      "type": "function"
    },
    {
      "constant": false,
      "inputs": [
        {
          "name": "roomId",
          "type": "uint256"
        },
        {
          "name": "betType",
          "type": "uint256"
        },
        {
          "name": "betValue",
          "type": "uint256[]"
        }
      ],
      "name": "SubmitBetOrder",
      "outputs": [
        {
          "name": "",
          "type": "uint256"
        }
      ],
      "payable": true,
      "stateMutability": "payable",
      "type": "function"
    }
  ],
  "bytecode": "0x6080604052336000806101000a81548173ffffffffffffffffffffffffffffffffffffffff021916908373ffffffffffffffffffffffffffffffffffffffff16021790555060006001819055506064600281905550600a600381905550600a600481905550613ea8806100736000396000f3fe608060405260043610610128576000357c0100000000000000000000000000000000000000000000000000000000900463ffffffff1680630b5433721461012d5780630df298d114610158578063188c9e09146101935780631d424ea11461027357806333d47a5b146102b957806334e4aa49146102e45780633c3419e61461031257806358fb58d81461051d5780635b1c48cb146105745780635ea431b21461059f578063668b0daf146105ca57806371ef96c4146105f5578063784633231461064d578063876148ac146106785780638a427002146106b35780639b458bd3146106ee578063a3af609b14610719578063b076650a14610751578063c2aaf02814610845578063c2ee982214610a58578063ccc8efcc14610ac6578063dd84095114610b2b575b600080fd5b34801561013957600080fd5b50610142610b56565b6040518082815260200191505060405180910390f35b34801561016457600080fd5b506101916004803603602081101561017b57600080fd5b8101908080359060200190929190505050610b5c565b005b61025d600480360360608110156101a957600080fd5b810190808035906020019092919080359060200190929190803590602001906401000000008111156101da57600080fd5b8201836020820111156101ec57600080fd5b8035906020019184602083028401116401000000008311171561020e57600080fd5b919080806020026020016040519081016040528093929190818152602001838360200280828437600081840152601f19601f820116905080830192505050505050509192919290505050610c50565b6040518082815260200191505060405180910390f35b61029f6004803603602081101561028957600080fd5b81019080803590602001909291905050506115e2565b604051808215151515815260200191505060405180910390f35b3480156102c557600080fd5b506102ce6117ee565b6040518082815260200191505060405180910390f35b610310600480360360208110156102fa57600080fd5b81019080803590602001909291905050506117f8565b005b34801561031e57600080fd5b5061034b6004803603602081101561033557600080fd5b810190808035906020019092919050505061197f565b604051808c73ffffffffffffffffffffffffffffffffffffffff1673ffffffffffffffffffffffffffffffffffffffff1681526020018b73ffffffffffffffffffffffffffffffffffffffff1673ffffffffffffffffffffffffffffffffffffffff16815260200180602001806020018a600460200280838360005b838110156103e25780820151818401526020810190506103c7565b5050505090500189600460200280838360005b838110156104105780820151818401526020810190506103f5565b505050509050018815151515815260200187815260200186815260200185815260200184815260200183810383528c818151815260200191508051906020019080838360005b83811015610471578082015181840152602081019050610456565b50505050905090810190601f16801561049e5780820380516001836020036101000a031916815260200191505b5083810382528b818151815260200191508051906020019080838360005b838110156104d75780820151818401526020810190506104bc565b50505050905090810190601f1680156105045780820380516001836020036101000a031916815260200191505b509d505050505050505050505050505060405180910390f35b34801561052957600080fd5b50610532611c1e565b604051808273ffffffffffffffffffffffffffffffffffffffff1673ffffffffffffffffffffffffffffffffffffffff16815260200191505060405180910390f35b34801561058057600080fd5b50610589611c43565b6040518082815260200191505060405180910390f35b3480156105ab57600080fd5b506105b4611c49565b6040518082815260200191505060405180910390f35b3480156105d657600080fd5b506105df611c4f565b6040518082815260200191505060405180910390f35b61064b6004803603606081101561060b57600080fd5b810190808035906020019092919080359060200190929190803573ffffffffffffffffffffffffffffffffffffffff169060200190929190505050611c55565b005b34801561065957600080fd5b50610662611e94565b6040518082815260200191505060405180910390f35b34801561068457600080fd5b506106b16004803603602081101561069b57600080fd5b8101908080359060200190929190505050611e9e565b005b3480156106bf57600080fd5b506106ec600480360360208110156106d657600080fd5b8101908080359060200190929190505050611f92565b005b3480156106fa57600080fd5b506107036120ff565b6040518082815260200191505060405180910390f35b61074f6004803603604081101561072f57600080fd5b810190808035906020019092919080359060200190929190505050612109565b005b34801561075d57600080fd5b506107946004803603604081101561077457600080fd5b8101908080359060200190929190803590602001909291905050506121d7565b604051808873ffffffffffffffffffffffffffffffffffffffff1673ffffffffffffffffffffffffffffffffffffffff1681526020018781526020018681526020018581526020018481526020018315151515815260200180602001828103825283818151815260200191508051906020019060200280838360005b8381101561082b578082015181840152602081019050610810565b505050509050019850505050505050505060405180910390f35b610a42600480360361018081101561085c57600080fd5b81019080803573ffffffffffffffffffffffffffffffffffffffff1690602001909291908035906020019064010000000081111561089957600080fd5b8201836020820111156108ab57600080fd5b803590602001918460018302840111640100000000831117156108cd57600080fd5b91908080601f016020809104026020016040519081016040528093929190818152602001838380828437600081840152601f19601f820116905080830192505050505050509192919290803590602001909291908035906020019064010000000081111561093a57600080fd5b82018360208201111561094c57600080fd5b8035906020019184600183028401116401000000008311171561096e57600080fd5b91908080601f016020809104026020016040519081016040528093929190818152602001838380828437600081840152601f19601f82011690508083019250505050505050919291929080608001906004806020026040519081016040528092919082600460200280828437600081840152601f19601f820116905080830192505050505050919291929080608001906004806020026040519081016040528092919082600460200280828437600081840152601f19601f82011690508083019250505050505091929192905050506122ea565b6040518082815260200191505060405180910390f35b610ac460048036036060811015610a6e57600080fd5b81019080803573ffffffffffffffffffffffffffffffffffffffff16906020019092919080359060200190929190803573ffffffffffffffffffffffffffffffffffffffff1690602001909291905050506127b4565b005b348015610ad257600080fd5b50610b1560048036036020811015610ae957600080fd5b81019080803573ffffffffffffffffffffffffffffffffffffffff169060200190929190505050612a78565b6040518082815260200191505060405180910390f35b348015610b3757600080fd5b50610b40612ac1565b6040518082815260200191505060405180910390f35b60035481565b6000809054906101000a900473ffffffffffffffffffffffffffffffffffffffff1673ffffffffffffffffffffffffffffffffffffffff163373ffffffffffffffffffffffffffffffffffffffff16141515610c46576040517f08c379a00000000000000000000000000000000000000000000000000000000081526004018080602001828103825260218152602001807f4f6e6c7920616c6c6f7720636f6e7472616374206f776e657220746f2073657481526020017f210000000000000000000000000000000000000000000000000000000000000081525060400191505060405180910390fd5b8060048190555050565b60008084111515610c6057600080fd5b60006005600086815260200190815260200160002090506000600f8516905060008160ff1614151515610cfb576040517f08c379a000000000000000000000000000000000000000000000000000000000815260040180806020018281038252600d8152602001807f496e76616c69642074797065210000000000000000000000000000000000000081525060200191505060405180910390fd5b81600d0160009054906101000a900460ff161515610d81576040517f08c379a00000000000000000000000000000000000000000000000000000000081526004018080602001828103825260188152602001807f54686520726f6f6d206973206e6f74206163746976656421000000000000000081525060200191505060405180910390fd5b60008090506000809050600080905060006001905060006001905060008090505b60038160ff161015610f945760008160ff1660020a6001028816905060008160ff16141515610f865760045460018701028b5110151515610e4b576040517f08c379a00000000000000000000000000000000000000000000000000000000081526004018080602001828103825260138152602001807f4d697373696e67206265742076616c756573210000000000000000000000000081525060200191505060405180910390fd5b886005018260ff16600481101515610e5f57fe5b01549350886009018260ff16600481101515610e7757fe5b0154925060008090505b6004548160ff161015610f0057610ec58686868f8560ff166004548d0201815181101515610eab57fe5b9060200190602002015102811515610ebf57fe5b04612acb565b9550610ef1888d8360ff166004548b0201815181101515610ee257fe5b90602001906020020151612acb565b97508080600101915050610e81565b5088601101548511151515610f7d576040517f08c379a000000000000000000000000000000000000000000000000000000000815260040180806020018281038252601b8152602001807f43616e6e6f7420626574206f76657220636f6d70656e7361746521000000000081525060200191505060405180910390fd5b85806001019650505b508080600101915050610da2565b506004548402895110151515611012576040517f08c379a00000000000000000000000000000000000000000000000000000000081526004018080602001828103825260138152602001807f4d697373696e67206265742076616c756573210000000000000000000000000081525060200191505060405180910390fd5b60045484029350600880871660ff1614801561102e5750838951115b156112f8576000898580600101965081518110151561104957fe5b906020019060200201519050848a511115156110cd576040517f08c379a00000000000000000000000000000000000000000000000000000000081526004018080602001828103825260198152602001807f6265745461696c496e666f20666f726d61742077726f6e67210000000000000081525060200191505060405180910390fd5b8760050160036004811015156110df57fe5b015492508760090160036004811015156110f557fe5b0154915060008090505b818110156112f55760008b8780600101985081518110151561111d57fe5b90602001906020020151905060008c8880600101995081518110151561113f57fe5b9060200190602002015190506002810288018d51101515156111c9576040517f08c379a00000000000000000000000000000000000000000000000000000000081526004018080602001828103825260198152602001807f6265745461696c496e666f20666f726d61742077726f6e67210000000000000081525060200191505060405180910390fd5b600082101580156111df57506001600454038211155b1515611279576040517f08c379a00000000000000000000000000000000000000000000000000000000081526004018080602001828103825260258152602001807f6265745461696c20626c6f636b206e756d206d757374206265747765656e205b81526020017f302d395d2100000000000000000000000000000000000000000000000000000081525060400191505060405180910390fd5b60008090505b818110156112e55760008e60018b0181518110151561129a57fe5b9060200190602002015190506000888883028115156112b557fe5b0490506112c28a82612acb565b99506112ce8c83612acb565b9b5060028b019a505050808060010191505061127f565b50505080806001019150506110ff565b50505b8660100154876011015403831115151561137a576040517f08c379a000000000000000000000000000000000000000000000000000000000815260040180806020018281038252601b8152602001807f43616e6e6f7420626574206f76657220636f6d70656e7361746521000000000081525060200191505060405180910390fd5b6113aa8760010160009054906101000a900473ffffffffffffffffffffffffffffffffffffffff16333088612aec565b156115cf576113bd876010015484612acb565b87601001819055506113d487600e01546001612acb565b87600e01819055506113e4613bfc565b8b81602001818152505087600e0154816060018181525050858160800181815250508a8160e00181815250508981610120018190525033816000019073ffffffffffffffffffffffffffffffffffffffff16908173ffffffffffffffffffffffffffffffffffffffff168152505060008161010001901515908115158152505060008160c0018181525050838160a00181815250506003544301816040018181525050808860120160008360600151815260200190815260200160002060008201518160000160006101000a81548173ffffffffffffffffffffffffffffffffffffffff021916908373ffffffffffffffffffffffffffffffffffffffff1602179055506020820151816001015560408201518160020155606082015181600301556080820151816004015560a0820151816005015560c0820151816006015560e082015181600701556101008201518160080160006101000a81548160ff02191690831515021790555061012082015181600901908051906020019061156c929190613c68565b509050507f3bcc29ebfaf3c11e8448a4d3659f7e312a211f4d9979bcbdbb42923150a4918d8c89600e01548860405180848152602001838152602001828152602001935050505060405180910390a187600e0154985050505050505050506115db565b60009750505050505050505b9392505050565b600080821115156115f257600080fd5b60006005600084815260200190815260200160002090503373ffffffffffffffffffffffffffffffffffffffff168160000160009054906101000a900473ffffffffffffffffffffffffffffffffffffffff1673ffffffffffffffffffffffffffffffffffffffff161415156116f6576040517f08c379a00000000000000000000000000000000000000000000000000000000081526004018080602001828103825260288152602001807f4f6e6c7920616c6c6f7720726f6f6d206f776e657220746f207769746864726181526020017f77206d6f6e65792100000000000000000000000000000000000000000000000081525060400191505060405180910390fd5b6116ff836117f8565b80600e015481600f015414151561171a5760009150506117e9565b60008160110154111561178f5761177e8160010160009054906101000a900473ffffffffffffffffffffffffffffffffffffffff168260000160009054906101000a900473ffffffffffffffffffffffffffffffffffffffff168360110154612f9f565b1561178e57600081601101819055505b5b600081600d0160006101000a81548160ff0219169083151502179055507f67acaceb58ff1ad2aa8b3069f69c4cd076824e06a09184b75fb197ead7040be7836040518082815260200191505060405180910390a160019150505b919050565b6000600354905090565b600081111515611870576040517f08c379a000000000000000000000000000000000000000000000000000000000815260040180806020018281038252600d8152602001807f77726f6e6720726f6f6d4964210000000000000000000000000000000000000081525060200191505060405180910390fd5b600060056000838152602001908152602001600020905080600d0160009054906101000a900460ff16151561190d576040517f08c379a00000000000000000000000000000000000000000000000000000000081526004018080602001828103825260188152602001807f54686520726f6f6d206973206e6f74206163746976656421000000000000000081525060200191505060405180910390fd5b6000600182600f01540190505b81600e01548111151561197a57600082601201600083815260200190815260200160002090506119508160020154600454612acb565b4311156119665761196184836131de565b61196c565b5061197a565b50808060010191505061191a565b505050565b60008060608061198d613cb5565b611995613cb5565b6000806000806000808c1115156119ab57600080fd5b6000600560008e815260200190815260200160002090508060000160009054906101000a900473ffffffffffffffffffffffffffffffffffffffff168160010160009054906101000a900473ffffffffffffffffffffffffffffffffffffffff168260020183600301846005018560090186600d0160009054906101000a900460ff1687600e015488600f015489601001548a60110154888054600181600116156101000203166002900480601f016020809104026020016040519081016040528092919081815260200182805460018160011615610100020316600290048015611ad75780601f10611aac57610100808354040283529160200191611ad7565b820191906000526020600020905b815481529060010190602001808311611aba57829003601f168201915b50505050509850878054600181600116156101000203166002900480601f016020809104026020016040519081016040528092919081815260200182805460018160011615610100020316600290048015611b735780601f10611b4857610100808354040283529160200191611b73565b820191906000526020600020905b815481529060010190602001808311611b5657829003601f168201915b5050505050975086600480602002604051908101604052809291908260048015611bb2576020028201915b815481526020019060010190808311611b9e575b5050505050965085600480602002604051908101604052809291908260048015611bf1576020028201915b815481526020019060010190808311611bdd575b505050505095509b509b509b509b509b509b509b509b509b509b509b505091939597999b90929496989a50565b6000809054906101000a900473ffffffffffffffffffffffffffffffffffffffff1681565b60045481565b60015481565b60025481565b600083111515611c6457600080fd5b60006005600085815260200190815260200160002090503373ffffffffffffffffffffffffffffffffffffffff168160000160009054906101000a900473ffffffffffffffffffffffffffffffffffffffff1673ffffffffffffffffffffffffffffffffffffffff16141515611d68576040517f08c379a00000000000000000000000000000000000000000000000000000000081526004018080602001828103825260288152602001807f4f6e6c7920616c6c6f7720726f6f6d206f776e657220746f207769746864726181526020017f77206d6f6e65792100000000000000000000000000000000000000000000000081525060400191505060405180910390fd5b80601001548160110154038311151515611dea576040517f08c379a00000000000000000000000000000000000000000000000000000000081526004018080602001828103825260148152602001807f5769746864726177206f766572206d6f6e65792100000000000000000000000081525060200191505060405180910390fd5b600081601101541115611e4357611e268160010160009054906101000a900473ffffffffffffffffffffffffffffffffffffffff168385612f9f565b15611e4257611e39816011015484613bda565b81601101819055505b5b7fe492f03a13f16d9ab77da04e06cc43e6eb0a495bab6bc3d0018b7d6714e6359f8484836011015460405180848152602001838152602001828152602001935050505060405180910390a150505050565b6000600454905090565b6000809054906101000a900473ffffffffffffffffffffffffffffffffffffffff1673ffffffffffffffffffffffffffffffffffffffff163373ffffffffffffffffffffffffffffffffffffffff16141515611f88576040517f08c379a00000000000000000000000000000000000000000000000000000000081526004018080602001828103825260218152602001807f4f6e6c7920616c6c6f7720636f6e7472616374206f776e657220746f2073657481526020017f210000000000000000000000000000000000000000000000000000000000000081525060400191505060405180910390fd5b8060038190555050565b6127108110151561200b576040517f08c379a000000000000000000000000000000000000000000000000000000000815260040180806020018281038252601a8152602001807f43616e6e6f74206578636565642070726f66697420554e49542100000000000081525060200191505060405180910390fd5b6000809054906101000a900473ffffffffffffffffffffffffffffffffffffffff1673ffffffffffffffffffffffffffffffffffffffff163373ffffffffffffffffffffffffffffffffffffffff161415156120f5576040517f08c379a00000000000000000000000000000000000000000000000000000000081526004018080602001828103825260218152602001807f4f6e6c7920616c6c6f7720636f6e7472616374206f776e657220746f2073657481526020017f210000000000000000000000000000000000000000000000000000000000000081525060400191505060405180910390fd5b8060028190555050565b6000600254905090565b6000821180156121195750600081115b151561212457600080fd5b600060056000848152602001908152602001600020905061216b8160010160009054906101000a900473ffffffffffffffffffffffffffffffffffffffff16333085612aec565b156121875761217e816011015483612acb565b81601101819055505b7f1ca606821992e3b34613b5b29c0bbade3a907b2969d7f9f2927f726fa4baccfb8383836011015460405180848152602001838152602001828152602001935050505060405180910390a1505050565b60008060008060008060606000891180156121f25750600088115b15156121fd57600080fd5b6000600560008b8152602001908152602001600020905060008160120160008b815260200190815260200160002090508060000160009054906101000a900473ffffffffffffffffffffffffffffffffffffffff1681600201548260040154836006015484600701548560080160009054906101000a900460ff1686600901808054806020026020016040519081016040528092919081815260200182805480156122c757602002820191906000526020600020905b8154815260200190600101908083116122b3575b505050505090509850985098509850985098509850505092959891949750929550565b60008073ffffffffffffffffffffffffffffffffffffffff168773ffffffffffffffffffffffffffffffffffffffff161415151561232757600080fd5b60008511151561233657600080fd5b60008090505b60048110156123a3576000848260048110151561235557fe5b602002015111801561238b5750828160048110151561237057fe5b6020020151848260048110151561238357fe5b602002015111155b151561239657600080fd5b808060010191505061233c565b506123b087333088612aec565b156127a5576123c26001546001612acb565b6001819055506123d0613cd8565b33816000019073ffffffffffffffffffffffffffffffffffffffff16908173ffffffffffffffffffffffffffffffffffffffff168152505060015481608001818152505086816040018190525087816020019073ffffffffffffffffffffffffffffffffffffffff16908173ffffffffffffffffffffffffffffffffffffffff1681525050848160600181905250838160a00181905250828160c00181905250600081610140018181525050858161016001818152505060018160e00190151590811515815250506000816101000181815250506000816101200181815250508060056000600154815260200190815260200160002060008201518160000160006101000a81548173ffffffffffffffffffffffffffffffffffffffff021916908373ffffffffffffffffffffffffffffffffffffffff16021790555060208201518160010160006101000a81548173ffffffffffffffffffffffffffffffffffffffff021916908373ffffffffffffffffffffffffffffffffffffffff1602179055506040820151816002019080519060200190612570929190613d74565b50606082015181600301908051906020019061258d929190613d74565b506080820151816004015560a0820151816005019060046125af929190613df4565b5060c0820151816009019060046125c7929190613df4565b5060e082015181600d0160006101000a81548160ff02191690831515021790555061010082015181600e015561012082015181600f0155610140820151816010015561016082015181601101559050507fa0f40cac2a163501e8153dd5cf7bdced544c2e40391201acdaa3eb22435e3901338989886001548b604051808773ffffffffffffffffffffffffffffffffffffffff1673ffffffffffffffffffffffffffffffffffffffff1681526020018673ffffffffffffffffffffffffffffffffffffffff1673ffffffffffffffffffffffffffffffffffffffff1681526020018060200180602001858152602001848152602001838103835287818151815260200191508051906020019080838360005b838110156126f45780820151818401526020810190506126d9565b50505050905090810190601f1680156127215780820380516001836020036101000a031916815260200191505b50838103825286818151815260200191508051906020019080838360005b8381101561275a57808201518184015260208101905061273f565b50505050905090810190601f1680156127875780820380516001836020036101000a031916815260200191505b509850505050505050505060405180910390a16001549150506127aa565b600090505b9695505050505050565b600073ffffffffffffffffffffffffffffffffffffffff168373ffffffffffffffffffffffffffffffffffffffff16141580156127f15750600082115b801561282a5750600073ffffffffffffffffffffffffffffffffffffffff168173ffffffffffffffffffffffffffffffffffffffff1614155b151561283557600080fd5b3373ffffffffffffffffffffffffffffffffffffffff166000809054906101000a900473ffffffffffffffffffffffffffffffffffffffff1673ffffffffffffffffffffffffffffffffffffffff1614151561291f576040517f08c379a00000000000000000000000000000000000000000000000000000000081526004018080602001828103825260338152602001807f4f6e6c7920616c6c6f7720636f6e7472616374206f776e657220746f2077697481526020017f68647261772070726f666974206d6f6e6579210000000000000000000000000081525060400191505060405180910390fd5b600660008473ffffffffffffffffffffffffffffffffffffffff1673ffffffffffffffffffffffffffffffffffffffff1681526020019081526020016000205482111515156129d6576040517f08c379a000000000000000000000000000000000000000000000000000000000815260040180806020018281038252601b8152602001807f57697468647261772070726f666974206f766572206d6f6e657921000000000081525060200191505060405180910390fd5b6129e1838284612f9f565b15612a7357612a2f600660008573ffffffffffffffffffffffffffffffffffffffff1673ffffffffffffffffffffffffffffffffffffffff1681526020019081526020016000205483613bda565b600660008573ffffffffffffffffffffffffffffffffffffffff1673ffffffffffffffffffffffffffffffffffffffff168152602001908152602001600020819055505b505050565b6000600660008373ffffffffffffffffffffffffffffffffffffffff1673ffffffffffffffffffffffffffffffffffffffff168152602001908152602001600020549050919050565b6000600154905090565b6000808284019050838110151515612ae257600080fd5b8091505092915050565b60008085905060008173ffffffffffffffffffffffffffffffffffffffff166370a08231876040518263ffffffff167c0100000000000000000000000000000000000000000000000000000000028152600401808273ffffffffffffffffffffffffffffffffffffffff1673ffffffffffffffffffffffffffffffffffffffff16815260200191505060206040518083038186803b158015612b8d57600080fd5b505afa158015612ba1573d6000803e3d6000fd5b505050506040513d6020811015612bb757600080fd5b81019080805190602001909291905050509050600084111515612c42576040517f08c379a000000000000000000000000000000000000000000000000000000000815260040180806020018281038252601a8152602001807f4d757374207472616e7366657220736f6d6520746f6b656e732100000000000081525060200191505060405180910390fd5b808411151515612cba576040517f08c379a000000000000000000000000000000000000000000000000000000000815260040180806020018281038252601e8152602001807f43616e6e6f742061626f76652063757272656e7420686f6c64696e677321000081525060200191505060405180910390fd5b60008273ffffffffffffffffffffffffffffffffffffffff1663dd62ed3e88886040518363ffffffff167c0100000000000000000000000000000000000000000000000000000000028152600401808373ffffffffffffffffffffffffffffffffffffffff1673ffffffffffffffffffffffffffffffffffffffff1681526020018273ffffffffffffffffffffffffffffffffffffffff1673ffffffffffffffffffffffffffffffffffffffff1681526020019250505060206040518083038186803b158015612d8957600080fd5b505afa158015612d9d573d6000803e3d6000fd5b505050506040513d6020811015612db357600080fd5b81019080805190602001909291905050509050600081141515612de257808210612ddd5780612ddf565b815b90505b848110151515612e80576040517f08c379a00000000000000000000000000000000000000000000000000000000081526004018080602001828103825260228152602001807f4d75737420617070726f7665206c6f636b656420746f6b656e73206265666f7281526020017f652e00000000000000000000000000000000000000000000000000000000000081525060400191505060405180910390fd5b8273ffffffffffffffffffffffffffffffffffffffff166323b872dd8888886040518463ffffffff167c0100000000000000000000000000000000000000000000000000000000028152600401808473ffffffffffffffffffffffffffffffffffffffff1673ffffffffffffffffffffffffffffffffffffffff1681526020018373ffffffffffffffffffffffffffffffffffffffff1673ffffffffffffffffffffffffffffffffffffffff1681526020018281526020019350505050602060405180830381600087803b158015612f5757600080fd5b505af1158015612f6b573d6000803e3d6000fd5b505050506040513d6020811015612f8157600080fd5b81019080805190602001909291905050509350505050949350505050565b60008084905060008173ffffffffffffffffffffffffffffffffffffffff166370a08231306040518263ffffffff167c0100000000000000000000000000000000000000000000000000000000028152600401808273ffffffffffffffffffffffffffffffffffffffff1673ffffffffffffffffffffffffffffffffffffffff16815260200191505060206040518083038186803b15801561304057600080fd5b505afa158015613054573d6000803e3d6000fd5b505050506040513d602081101561306a57600080fd5b810190808051906020019092919050505090508381101515156130f5576040517f08c379a00000000000000000000000000000000000000000000000000000000081526004018080602001828103825260148152602001807f4e6f7420656e6f756768206d6f6e6579203a282100000000000000000000000081525060200191505060405180910390fd5b8173ffffffffffffffffffffffffffffffffffffffff1663a9059cbb86866040518363ffffffff167c0100000000000000000000000000000000000000000000000000000000028152600401808373ffffffffffffffffffffffffffffffffffffffff1673ffffffffffffffffffffffffffffffffffffffff16815260200182815260200192505050602060405180830381600087803b15801561319857600080fd5b505af11580156131ac573d6000803e3d6000fd5b505050506040513d60208110156131c257600080fd5b8101908080519060200190929190505050925050509392505050565b6000821180156131ee5750600081115b15156131f957600080fd5b6000600560008481526020019081526020016000209050600081601201600084815260200190815260200160002090508060080160009054906101000a900460ff161515156132b0576040517f08c379a00000000000000000000000000000000000000000000000000000000081526004018080602001828103825260208152602001807f54686520626574206f7264657220697320616c726561647920636c6f7365642181525060200191505060405180910390fd5b60008260010160009054906101000a900473ffffffffffffffffffffffffffffffffffffffff1690506132ed826002015460045461010003612acb565b43111561345b578073ffffffffffffffffffffffffffffffffffffffff1663a9059cbb8360000160009054906101000a900473ffffffffffffffffffffffffffffffffffffffff1684600401546040518363ffffffff167c0100000000000000000000000000000000000000000000000000000000028152600401808373ffffffffffffffffffffffffffffffffffffffff1673ffffffffffffffffffffffffffffffffffffffff16815260200182815260200192505050602060405180830381600087803b1580156133bf57600080fd5b505af11580156133d3573d6000803e3d6000fd5b505050506040513d60208110156133e957600080fd5b8101908080519060200190929190505050507f84842e1cd70dcda5b4f0df63bcd2e252233f6e5419d41793fd75645b14f12087826001015483600301544385600201546040518085815260200184815260200183815260200182815260200194505050505060405180910390a1613ba9565b600080905060008090505b6004548160ff16101561372f5760008160ff16856002015401406001900490506000600f821690506000600a8260ff16101580156134a85750600f8260ff1611155b90506000811580156134bf5750600180841660ff16145b90506000821580156134cf575081155b905060008090506001808b600701541614156135985760008a6009018860ff166004548460ff16020181548110151561350457fe5b90600052602060002001541180156135195750825b1561358f576135868a600601548c600501600060048110151561353857fe5b01548d600901600060048110151561354c57fe5b01548d6009018b60ff166004548760ff16020181548110151561356b57fe5b90600052602060002001540281151561358057fe5b04612acb565b8a600601819055505b80806001019150505b6002808b6007015416141561365a5760008a6009018860ff166004548460ff1602018154811015156135c657fe5b90600052602060002001541180156135db5750815b15613651576136488a600601548c60050160016004811015156135fa57fe5b01548d600901600160048110151561360e57fe5b01548d6009018b60ff166004548760ff16020181548110151561362d57fe5b90600052602060002001540281151561364257fe5b04612acb565b8a600601819055505b80806001019150505b6004808b6007015416141561371c5760008a6009018860ff166004548460ff16020181548110151561368857fe5b906000526020600020015411801561369d5750835b156137135761370a8a600601548c60050160026004811015156136bc57fe5b01548d60090160026004811015156136d057fe5b01548d6009018b60ff166004548760ff1602018154811015156136ef57fe5b90600052602060002001540281151561370457fe5b04612acb565b8a600601819055505b80806001019150505b5050505050508080600101915050613466565b5060008090506000600f856007015416905060008090505b60038160ff1610156137875760008160ff1660020a6001028316905060008160ff161415156137795783806001019450505b508080600101915050613747565b506004548202915060088086600701541614156138fa57600085600901838060010194508154811015156137b757fe5b9060005260206000200154905060008090505b818110156138f757600087600901858060010196508154811015156137eb57fe5b90600052602060002001549050600081896002015401406001900490506000600f8216905060008a6009018880600101995081548110151561382957fe5b9060005260206000200154905060008090505b818110156138e5578260ff168c6009018a81548110151561385957fe5b906000526020600020015414156138d2576138c98c600601548e600501600360048110151561388457fe5b01548f600901600360048110151561389857fe5b01548f60090160018e018154811015156138ae57fe5b9060005260206000200154028115156138c357fe5b04612acb565b8c600601819055505b600289019850808060010191505061383c565b505050505080806001019150506137ca565b50505b600085600601541115613a6a578373ffffffffffffffffffffffffffffffffffffffff1663a9059cbb8660000160009054906101000a900473ffffffffffffffffffffffffffffffffffffffff1687600601546040518363ffffffff167c0100000000000000000000000000000000000000000000000000000000028152600401808373ffffffffffffffffffffffffffffffffffffffff1673ffffffffffffffffffffffffffffffffffffffff16815260200182815260200192505050602060405180830381600087803b1580156139d257600080fd5b505af11580156139e6573d6000803e3d6000fd5b505050506040513d60208110156139fc57600080fd5b8101908080519060200190929190505050507fc6463bc3c0665fea9e0be72485dd8124a9b05c1632ffa17f1935722c5851cdfe8888876006015460405180848152602001838152602001828152602001935050505060405180910390a1613a67838660060154612acb565b92505b6000612710600254876004015402811515613a8157fe5b049050613af1600660008960010160009054906101000a900473ffffffffffffffffffffffffffffffffffffffff1673ffffffffffffffffffffffffffffffffffffffff1673ffffffffffffffffffffffffffffffffffffffff1681526020019081526020016000205482612acb565b600660008960010160009054906101000a900473ffffffffffffffffffffffffffffffffffffffff1673ffffffffffffffffffffffffffffffffffffffff1673ffffffffffffffffffffffffffffffffffffffff16815260200190815260200160002081905550613b6c876011015482886004015403612acb565b8760110181905550613b82876011015485613bda565b8760110181905550613b9c87601001548760050154613bda565b8760100181905550505050505b60018260080160006101000a81548160ff021916908315150217905550816003015483600f01819055505050505050565b6000828211151515613beb57600080fd5b600082840390508091505092915050565b61014060405190810160405280600073ffffffffffffffffffffffffffffffffffffffff16815260200160008152602001600081526020016000815260200160008152602001600081526020016000815260200160008152602001600015158152602001606081525090565b828054828255906000526020600020908101928215613ca4579160200282015b82811115613ca3578251825591602001919060010190613c88565b5b509050613cb19190613e34565b5090565b608060405190810160405280600490602082028038833980820191505090505090565b61024060405190810160405280600073ffffffffffffffffffffffffffffffffffffffff168152602001600073ffffffffffffffffffffffffffffffffffffffff168152602001606081526020016060815260200160008152602001613d3c613e59565b8152602001613d49613e59565b8152602001600015158152602001600081526020016000815260200160008152602001600081525090565b828054600181600116156101000203166002900490600052602060002090601f016020900481019282601f10613db557805160ff1916838001178555613de3565b82800160010185558215613de3579182015b82811115613de2578251825591602001919060010190613dc7565b5b509050613df09190613e34565b5090565b8260048101928215613e23579160200282015b82811115613e22578251825591602001919060010190613e07565b5b509050613e309190613e34565b5090565b613e5691905b80821115613e52576000816000905550600101613e3a565b5090565b90565b60806040519081016040528060049060208202803883398082019150509050509056fea165627a7a7230582050b7ab48ddd2d3cca563543d207bb0b1444bd4ae61f6e10de4ff5cb9151467ec0029",
  "source": "pragma solidity ^0.5.0;\n\n/**\n * @title SafeMath\n * @dev Math operations with safety checks that revert on error\n */\nlibrary SafeMath {\n    int256 constant private INT256_MIN = -2**255;\n\n    /**\n    * @dev Multiplies two unsigned integers, reverts on overflow.\n    */\n    function mul(uint256 a, uint256 b) internal pure returns (uint256) {\n        // Gas optimization: this is cheaper than requiring 'a' not being zero, but the\n        // benefit is lost if 'b' is also tested.\n        // See: https://github.com/OpenZeppelin/openzeppelin-solidity/pull/522\n        if (a == 0) {\n            return 0;\n        }\n\n        uint256 c = a * b;\n        require(c / a == b);\n\n        return c;\n    }\n\n    /**\n    * @dev Multiplies two signed integers, reverts on overflow.\n    */\n    function mul(int256 a, int256 b) internal pure returns (int256) {\n        // Gas optimization: this is cheaper than requiring 'a' not being zero, but the\n        // benefit is lost if 'b' is also tested.\n        // See: https://github.com/OpenZeppelin/openzeppelin-solidity/pull/522\n        if (a == 0) {\n            return 0;\n        }\n\n        require(!(a == -1 && b == INT256_MIN)); // This is the only case of overflow not detected by the check below\n\n        int256 c = a * b;\n        require(c / a == b);\n\n        return c;\n    }\n\n    /**\n    * @dev Integer division of two unsigned integers truncating the quotient, reverts on division by zero.\n    */\n    function div(uint256 a, uint256 b) internal pure returns (uint256) {\n        // Solidity only automatically asserts when dividing by 0\n        require(b > 0);\n        uint256 c = a / b;\n        // assert(a == b * c + a % b); // There is no case in which this doesn't hold\n\n        return c;\n    }\n\n    /**\n    * @dev Integer division of two signed integers truncating the quotient, reverts on division by zero.\n    */\n    function div(int256 a, int256 b) internal pure returns (int256) {\n        require(b != 0); // Solidity only automatically asserts when dividing by 0\n        require(!(b == -1 && a == INT256_MIN)); // This is the only case of overflow\n\n        int256 c = a / b;\n\n        return c;\n    }\n\n    /**\n    * @dev Subtracts two unsigned integers, reverts on overflow (i.e. if subtrahend is greater than minuend).\n    */\n    function sub(uint256 a, uint256 b) internal pure returns (uint256) {\n        require(b <= a);\n        uint256 c = a - b;\n\n        return c;\n    }\n\n    /**\n    * @dev Subtracts two signed integers, reverts on overflow.\n    */\n    function sub(int256 a, int256 b) internal pure returns (int256) {\n        int256 c = a - b;\n        require((b >= 0 && c <= a) || (b < 0 && c > a));\n\n        return c;\n    }\n\n    /**\n    * @dev Adds two unsigned integers, reverts on overflow.\n    */\n    function add(uint256 a, uint256 b) internal pure returns (uint256) {\n        uint256 c = a + b;\n        require(c >= a);\n\n        return c;\n    }\n\n    /**\n    * @dev Adds two signed integers, reverts on overflow.\n    */\n    function add(int256 a, int256 b) internal pure returns (int256) {\n        int256 c = a + b;\n        require((b >= 0 && c >= a) || (b < 0 && c < a));\n\n        return c;\n    }\n\n    /**\n    * @dev Divides two unsigned integers and returns the remainder (unsigned integer modulo),\n    * reverts when dividing by zero.\n    */\n    function mod(uint256 a, uint256 b) internal pure returns (uint256) {\n        require(b != 0);\n        return a % b;\n    }\n}\n\ncontract ERC20 {\n    function totalSupply()\n        public\n        view\n        returns (uint256);\n\n    function balanceOf(\n        address who\n        )\n        public\n        view\n        returns (uint256);\n\n    function allowance(\n        address owner,\n        address spender\n        )\n        public\n        view\n        returns (uint256);\n\n    function transfer(\n        address to,\n        uint256 value\n        )\n        public\n        returns (bool);\n\n    function transferFrom(\n        address from,\n        address to,\n        uint256 value\n        )\n        public\n        returns (bool);\n\n    function approve(\n        address spender,\n        uint256 value\n        )\n        public\n        returns (bool);\n}\n\ncontract HashDice {\n    struct BetOrder{\n        address owner;\n        uint256 roomId;\n        uint256 startBlock;\n        uint256 orderId;\n        uint256 totalValue;\n        uint256 maxCompensate;\n        uint256 gain;\n        uint256 betType;\n        bool closed;\n        uint256[] betValue;\n    }\n\n    struct Room{\n        address creator; //RoomOwner\n        address erc20Addr; //ERC20 token address\n        string symbol; //Token name\n        string name; //Room name\n        uint256 id; //Unique room ID\n        uint256[4] nominator; //0:Odd, 1:Even, 2:char, 3:tail\n        uint256[4] denominator; //0:Odd, 1:Even, 2:char, 3:tail\n        bool active;\n        uint256 currentOrderId; //Current bet order id\n        uint256 lastClosedOrderId; //Last time closed order id\n        uint256 currentMaxCompensate;\n        uint256 lastLockedValue; //Locked token value after last closed order\n        mapping(uint256 => BetOrder) orders;\n    }\n\n    event RoomOpened(\n        address creator, //RoomOwner\n        address erc20Addr, //ERC20 token address\n        string symbol, //Token name\n        string name, //Room name\n        uint256 id, //Unique room ID\n        uint256 lastLockedValue //Locked token value after last round\n    );\n\n    event RoomClosed(\n        uint256 roomId\n    );\n\n    event Withdrawed(\n        uint256 roomId,\n        uint256 value,\n        uint256 remained\n    );\n\n    event Deposited(\n        uint256 roomId,\n        uint256 value,\n        uint256 remained\n    );\n\n    event NewBetOrder(\n        uint256 roomId,\n        uint256 orderId,\n        uint256 value\n    );\n\n    event CloseRoundTooLate(\n        uint256 roomId,\n        uint256 orderId,\n        uint256 blockNum,\n        uint256 startBlock\n    );\n\n    event PayBetOwner(\n        uint256 roomId,\n        uint256 orderId,\n        uint256 value\n    );\n\n    address public gOwner;\n    uint256 public gRoomId;\n    uint256 public gProfitRatio;\n    uint256 public gRoundWait;\n    uint256 public gRoundPeriod;\n\n    mapping(uint256 => Room) rooms;\n    mapping(address => uint256) profits;\n\n    constructor() public payable{\n        gOwner = msg.sender;\n\t\tgRoomId = 0;\n        gProfitRatio = 100; //Default is 1%, UNIT is 10000\n        gRoundWait = 10; //Default wait 10 block for any bet order\n        gRoundPeriod = 10; //Default bet for 10 blocks\n \t}\n\n    function CheckTransferFrom(\n        address erc20Addr,\n        address from,\n        address to,\n        uint256 value\n    ) internal returns (bool){\n        //First check whether msg.sender has enough tokens\n        ERC20 token = ERC20(erc20Addr);\n        uint256 totalBalance = token.balanceOf(from);\n        require(value > 0, \"Must transfer some tokens!\");\n        require(value <= totalBalance, \"Cannot above current holdings!\");\n        uint256 spendable = token.allowance(\n            from,\n            to\n        );\n        if (spendable != 0) {\n            spendable = (totalBalance < spendable) ? totalBalance : spendable;\n        }\n        require(spendable >= value, \"Must approve locked tokens before.\");\n\n        //Final tranfer bet valule to contract\n        return token.transferFrom(from, to, value);\n    }\n\n    function CheckTransfer(\n        address erc20Addr,\n        address to,\n        uint256 value\n    ) internal returns (bool) {\n        ERC20 token = ERC20(erc20Addr);\n        uint256 balance = token.balanceOf(address(this));\n        require(balance >= value, \"Not enough money :(!\");\n        //Do the real token transfer\n        return token.transfer(to, value);\n    }\n\n    function GetBetOrder(\n        uint256 roomId,\n        uint256 orderId\n    ) public view returns(address, uint256, uint256, uint256, uint256, bool, uint256[] memory) {\n        require(roomId > 0 && orderId > 0);\n        Room storage room = rooms[roomId];\n        BetOrder storage order = room.orders[orderId];\n        return (order.owner, order.startBlock, order.totalValue, order.gain, order.betType, \n            order.closed, order.betValue);\n    }\n\n    function GetRoomInfo(\n        uint256 roomId\n    ) public view returns(address, address, string memory, string memory, \n            uint256[4] memory, uint256[4] memory, bool, uint256, uint256, uint256, uint256) {\n        require(roomId > 0);\n        Room storage room = rooms[roomId];\n        return (room.creator, room.erc20Addr, room.symbol, room.name,\n            room.nominator, room.denominator, room.active, room.currentOrderId, room.lastClosedOrderId,\n            room.currentMaxCompensate, room.lastLockedValue);\n    }\n\n    function GetRooms() public view returns (uint256) {\n        return gRoomId;\n    }\n\n    function GetProfitRatio() public view returns (uint256) {\n        return gProfitRatio;\n    }\n\n    function SetProfitRatio(uint256 ratio) public {\n        require(ratio < 10000, \"Cannot exceed profit UNIT!\");\n        require(msg.sender == gOwner, \"Only allow contract owner to set!\");\n        gProfitRatio = ratio;\n    }\n\n    function GetRoundWait() public view returns (uint256) {\n        return gRoundWait;\n    }\n\n    function SetRoundWait(uint256 value) public {\n        require(msg.sender == gOwner, \"Only allow contract owner to set!\");\n        gRoundWait = value;\n    }\n\n    function GetRoundPeriod() public view returns (uint256) {\n        return gRoundPeriod;\n    }\n\n    function SetRoundPeriod(uint256 value) public {\n        require(msg.sender == gOwner, \"Only allow contract owner to set!\");\n        gRoundPeriod = value;\n    }\n\n    function OpenRoom(\n        address erc20Addr, \n        string memory symbol, \n        uint256 initLockedValue, \n        string memory roomName, \n        uint256[4] memory nominator,\n        uint256[4] memory denominator\n    ) public payable returns(uint256 roomId){\n        require(erc20Addr != address(0));\n        require(initLockedValue > 0);\n        //Must meet (0 < nonimator <= denominator)\n        for (uint i=0; i<4; i++) {\n            require(nominator[i] > 0 && nominator[i] <= denominator[i]);\n        }\n\n        //Do the real token transfer, after that the token is locked in the contract.\n        if (CheckTransferFrom(erc20Addr, msg.sender, address(this), initLockedValue)) {\n            gRoomId = SafeMath.add(gRoomId,1);\n\n            Room memory newRoom;\n            newRoom.creator = msg.sender;\n            newRoom.id = gRoomId;\n            newRoom.symbol = symbol;\n            newRoom.erc20Addr = erc20Addr;\n            newRoom.name = roomName;\n            newRoom.nominator = nominator;\n            newRoom.denominator = denominator;\n            newRoom.currentMaxCompensate = 0;\n            newRoom.lastLockedValue = initLockedValue;\n            newRoom.active = true;\n            newRoom.currentOrderId = 0;\n            newRoom.lastClosedOrderId = 0;\n\n            rooms[gRoomId] = newRoom; //Automatically copy it from memory to storage\n            emit RoomOpened(msg.sender, erc20Addr, symbol, roomName, gRoomId, initLockedValue);\n            return gRoomId;\n        } else {\n            return 0;\n        }\n    }\n\n    function CloseRoom(\n        uint256 roomId\n    ) public payable returns (bool) {\n        require(roomId > 0);\n        Room storage room = rooms[roomId];\n        //Only allow room owner to withdraw money\n        require(room.creator == msg.sender, \n            \"Only allow room owner to withdraw money!\");\n        //Try to close active bet order first\n        CloseBetOrders(roomId);\n        if(room.lastClosedOrderId != room.currentOrderId) {\n            //There exsits some future bet orders to be closed\n            return false;\n        }\n        //Finally return back the locked tokens to room creator\n        if(room.lastLockedValue > 0){\n            //Do the real token transfer, after that the token is locked in the contract.\n            if(CheckTransfer(room.erc20Addr, room.creator, room.lastLockedValue)) {\n                room.lastLockedValue = 0;\n            }\n        }\n        room.active = false;\n        emit RoomClosed(roomId);\n        return true;\n    }\n\n    function GetProfit(\n        address erc20Addr\n    ) public view returns (uint256) {\n        return profits[erc20Addr];\n    }\n\n    function WithdrawProfit(\n        address erc20Addr,\n        uint256 value,\n        address receiver\n    ) public payable {\n        require(erc20Addr != address(0) && value > 0 && receiver != address(0));\n        require(gOwner == msg.sender, \n            \"Only allow contract owner to withdraw profit money!\");\n        require(value <= profits[erc20Addr], \"Withdraw profit over money!\");\n        //Do the real token transfer\n        if(CheckTransfer(erc20Addr, receiver, value)) {\n            profits[erc20Addr] = SafeMath.sub(profits[erc20Addr], value);\n        }\n    }\n\n    function Withdraw(\n        uint256 roomId,\n        uint256 value,\n        address receiver\n    ) public payable {\n        require(roomId > 0);\n        Room storage room = rooms[roomId];\n        //Only allow room owner to withdraw money\n        require(room.creator == msg.sender, \n            \"Only allow room owner to withdraw money!\");\n        require(value <= room.lastLockedValue - room.currentMaxCompensate, \"Withdraw over money!\");\n        //Finally return back the locked tokens to room creator\n        if(room.lastLockedValue > 0){\n            //Do the real token transfer\n            if(CheckTransfer(room.erc20Addr, receiver, value)) {\n                room.lastLockedValue = SafeMath.sub(room.lastLockedValue, value);\n            }\n        }\n        emit Withdrawed(roomId, value, room.lastLockedValue);\n    }\n\n    function Deposit(\n        uint256 roomId,\n        uint256 value\n    ) public payable {\n        require(roomId > 0 && value > 0);\n        Room storage room = rooms[roomId];\n        //Do the real token transfer, after that the token is locked in the contract.\n        if (CheckTransferFrom(room.erc20Addr, msg.sender, address(this), value)) {\n            room.lastLockedValue = SafeMath.add(room.lastLockedValue, value);\n        }\n\n        emit Deposited(roomId, value, room.lastLockedValue);\n    }\n\n    /*\n     * We allow anyone to call CloseBetOrders to trigger the hash result\n     * --> Bet order owner should call it asap if he wins and detect room or game owner corruption.\n     * --> Room owner should call it asap if he wins and detect game owner corruption.\n     * --> Normally Game owner should call it after some blocks of open round.\n     */\n    function CloseBetOrders(\n        uint256 roomId\n    ) public payable {\n        require(roomId > 0, \"wrong roomId!\");\n        Room storage room = rooms[roomId];\n        require(room.active, \"The room is not actived!\");\n        uint256 orderId = room.lastClosedOrderId + 1;\n        for (; orderId<=room.currentOrderId; orderId++) {\n            BetOrder storage order = room.orders[orderId];\n            //Close all bet orders whose start block is 10 less than current block\n            if (block.number > SafeMath.add(order.startBlock, gRoundPeriod)){\n                _CloseBetOrder(roomId, orderId);\n            } else {\n                break;\n            }\n        }\n    }\n\n    function _CloseBetOrder(\n        uint256 roomId,\n        uint256 orderId\n    ) internal {\n        require(roomId > 0 && orderId > 0);\n        Room storage room = rooms[roomId];\n        BetOrder storage order = room.orders[orderId];\n        require(!order.closed, \"The bet order is already closed!\");\n\n        ERC20 token = ERC20(room.erc20Addr);\n        if(block.number > SafeMath.add(order.startBlock, 256 - gRoundPeriod)){\n            //It's too late to close one bet order, we cannot get the block hash\n            //the only choice is to return back bet money.\n            //Directly return back bet values\n            token.transfer(order.owner, order.totalValue);\n            emit CloseRoundTooLate(order.roomId, order.orderId, block.number, order.startBlock);\n        } else {\n            //Now we should compensate each one according to block hashes.\n            uint256 compensate = 0;\n            for (uint8 i=0; i<gRoundPeriod; i++){\n                uint256 blockHash = uint256(blockhash(order.startBlock + i));\n                uint8 blockHashTail = uint8(blockHash & 0xF);\n                bool isChar = (blockHashTail >= 10 && blockHashTail <=15);\n                bool isOdd = (!isChar && ((blockHashTail & 0x1) == 0x1));\n                bool isEven = (!isChar && !isOdd);\n\n                uint8 count = 0;\n                if (((order.betType & 0x1) == 0x1)){\n                    if((order.betValue[count*gRoundPeriod + i] > 0) && isOdd){\n                        //bet order owner wins odd!\n                        order.gain = SafeMath.add(order.gain, \n                            order.betValue[count*gRoundPeriod + i] * room.denominator[0] / room.nominator[0]);\n                    }\n                    count++;\n                }\n                if (((order.betType & 0x2) == 0x2)){\n                    if((order.betValue[count*gRoundPeriod + i] > 0) && isEven){\n                        //bet order owner wins even!\n                        order.gain = SafeMath.add(order.gain, \n                            order.betValue[count*gRoundPeriod + i] * room.denominator[1] / room.nominator[1]);\n                    }\n                    count++;\n                }\n                if (((order.betType & 0x4) == 0x4)){\n                    if((order.betValue[count*gRoundPeriod + i] > 0) && isChar){\n                        //bet order owner wins char!\n                        order.gain = SafeMath.add(order.gain, \n                            order.betValue[count*gRoundPeriod + i] * room.denominator[2] / room.nominator[2]);\n                    }\n                    count++;\n                }\n            }\n            uint256 n = 0;\n            uint8 betType8 = uint8(order.betType & 0xF);\n            for (uint8 i=0; i<3; i++) {\n                uint8 subType = betType8 & (1 * 2**i);\n                if (subType != 0) {\n                    n++;\n                }\n            }\n            n = n * gRoundPeriod;\n            if (((order.betType & 0x8) == 0x8)){\n                uint256 total_block = order.betValue[n++];\n                for (uint256 j=0; j<total_block; j++) {\n                    uint256 block_num = order.betValue[n++];\n                    uint256 blockHash = uint256(blockhash(order.startBlock + block_num));\n                    uint8 blockHashTail = uint8(blockHash & 0xF);\n                    uint256 tail_num = order.betValue[n++];\n                    for (uint256 k=0; k<tail_num; k++) {\n                        if (order.betValue[n] == blockHashTail) {\n                            //bet order owner wins char!\n                            order.gain = SafeMath.add(order.gain, \n                                order.betValue[n+1] * room.denominator[3] / room.nominator[3]);\n                        }\n                        n+=2;\n                    }\n                }\n            }\n\n            //require(SafeMath.add(room.lastLockedValue, round.totalBetValue) >= round.compensate, \n            //    \"No enough money for compesate!\");\n            //In case of no money for compensation, though it should not happen because we alreay limit\n            //  submmit order if exceed maximum compensation.\n            if (order.gain > 0) {\n                //Pay the betor\n                token.transfer(order.owner, order.gain);\n                emit PayBetOwner(roomId, orderId, order.gain);\n                compensate = SafeMath.add(compensate, order.gain);\n            }\n            //Then pay the profit ratio\n            uint256 profit = order.totalValue * gProfitRatio / 10000;\n            profits[room.erc20Addr] = SafeMath.add(profits[room.erc20Addr], profit);\n            //Finally pay the room owner\n            room.lastLockedValue = SafeMath.add(room.lastLockedValue, order.totalValue - profit);\n            room.lastLockedValue = SafeMath.sub(room.lastLockedValue, compensate);\n            room.currentMaxCompensate = SafeMath.sub(room.currentMaxCompensate, order.maxCompensate);\n        }\n        order.closed = true;\n        room.lastClosedOrderId = order.orderId;\n    }\n\n    /*\n     * @param betType, betType format is 4 bit |tail|char|even|odd|\n     * @param betValue, betValue is 10 values per each bit in betType\n     */\n    function SubmitBetOrder(\n        uint256 roomId, \n        uint256 betType, \n        uint256[] memory betValue\n    ) public payable returns (uint256){\n        require(roomId > 0);\n        Room storage room = rooms[roomId];\n        uint8 betType8 = uint8(betType & 0xF);\n        require(betType8 != 0, \"Invalid type!\");\n        require(room.active, \"The room is not actived!\");\n \n        //Pre-calculate the maximum compensate and check whether \n        //room owner can pay the maximum compensate\n        uint256 betBalance = 0;\n        uint256 n = 0;\n        uint256 maxCompensate = 0;\n        uint256 nominator = 1;\n        uint256 denominator = 1;\n        for (uint8 i=0; i<3; i++) {\n            uint8 subType = betType8 & (1 * 2**i);\n            if (subType != 0) {\n                require(betValue.length >= (n+1)*gRoundPeriod, \"Missing bet values!\");\n                nominator = room.nominator[i];\n                denominator = room.denominator[i];\n                for (uint8 j=0; j<gRoundPeriod; j++){\n                    maxCompensate = SafeMath.add(maxCompensate, betValue[n*gRoundPeriod+j] * denominator / nominator);\n                    betBalance = SafeMath.add(betBalance, betValue[n*gRoundPeriod + j]);\n                }\n                require(maxCompensate <= room.lastLockedValue, \"Cannot bet over compensate!\");\n                n++;\n            }\n        }\n        require(betValue.length >= n*gRoundPeriod, \"Missing bet values!\");\n        //Now check the bet tail info, format is\n        //[n, block1, len1, tail1_1, value1_1, tail2_1, value2_1,  , tail1_len1, value1_len1,  , \n        //    blockn, lenm, tailn_1, value_num,  , tailn_m, valuen_m]\n        n = n*gRoundPeriod;\n        if (((betType8 & 0x8) == 0x8) && betValue.length > n) {\n            uint256 total_block = betValue[n++];\n            require(betValue.length > n, \"betTailInfo format wrong!\");\n            nominator = room.nominator[3];\n            denominator = room.denominator[3];\n            for (uint256 i=0; i<total_block; i++) {\n                uint256 block_num = betValue[n++];\n                uint256 tail_num = betValue[n++];\n                require(betValue.length >= n + tail_num*2, \"betTailInfo format wrong!\");\n                require(block_num >= 0 && block_num <= gRoundPeriod - 1, \"betTail block num must between [0-9]!\");\n                for (uint256 j=0; j<tail_num;j++) {\n                    uint256 bet_value = betValue[n+1];\n                    uint256 compensate = bet_value * denominator / nominator;\n                    maxCompensate = SafeMath.add(maxCompensate, compensate);\n                    betBalance = SafeMath.add(betBalance, bet_value);\n                    n+=2;\n                }\n            }\n        }\n\n        require(maxCompensate <= room.lastLockedValue - room.currentMaxCompensate, \"Cannot bet over compensate!\");\n\n        if (CheckTransferFrom(room.erc20Addr, msg.sender, address(this), betBalance)) {\n            //round.totalBetValue = SafeMath.add(round.totalBetValue, betBalance);\n            room.currentMaxCompensate = SafeMath.add(room.currentMaxCompensate, maxCompensate);\n\n            room.currentOrderId = SafeMath.add(room.currentOrderId, 1);\n            BetOrder memory newOrder;\n            newOrder.roomId = roomId;\n            newOrder.orderId = room.currentOrderId;\n            newOrder.totalValue = betBalance;\n            newOrder.betType = betType;\n            newOrder.betValue = betValue;\n            newOrder.owner = msg.sender;\n            newOrder.closed = false;\n            newOrder.gain = 0;\n            newOrder.maxCompensate = maxCompensate;\n            newOrder.startBlock = block.number + gRoundWait;\n            room.orders[newOrder.orderId] = newOrder;\n            emit NewBetOrder(roomId, room.currentOrderId, betBalance);\n            return room.currentOrderId;\n        }\n        return 0;\n    }\n}",
  "sourcePath": "/hash/HashBet/contracts/HashDice.sol",
  "compiler": {
    "name": "solc",
    "version": "0.5.0+commit.1d4f565a.Emscripten.clang"
  },
  "schemaVersion": "3.0.1",
  "updatedAt": "2019-02-28T07:58:18.699Z",
  "devdoc": {
    "methods": {}
  },
  "userdoc": {
    "methods": {}
  }
}