{
  "contractName": "HashDice",
  "abi": [
    {
      "constant": true,
      "inputs": [],
      "name": "gRoundWait",
      "outputs": [
        {
          "name": "",
          "type": "uint256"
        }
      ],
      "payable": false,
      "stateMutability": "view",
      "type": "function"
    },
    {
      "constant": true,
      "inputs": [],
      "name": "gOwner",
      "outputs": [
        {
          "name": "",
          "type": "address"
        }
      ],
      "payable": false,
      "stateMutability": "view",
      "type": "function"
    },
    {
      "constant": true,
      "inputs": [],
      "name": "gRoundPeriod",
      "outputs": [
        {
          "name": "",
          "type": "uint256"
        }
      ],
      "payable": false,
      "stateMutability": "view",
      "type": "function"
    },
    {
      "constant": true,
      "inputs": [],
      "name": "gRoomId",
      "outputs": [
        {
          "name": "",
          "type": "uint256"
        }
      ],
      "payable": false,
      "stateMutability": "view",
      "type": "function"
    },
    {
      "constant": true,
      "inputs": [],
      "name": "gProfitRatio",
      "outputs": [
        {
          "name": "",
          "type": "uint256"
        }
      ],
      "payable": false,
      "stateMutability": "view",
      "type": "function"
    },
    {
      "inputs": [],
      "payable": true,
      "stateMutability": "payable",
      "type": "constructor"
    },
    {
      "anonymous": false,
      "inputs": [
        {
          "indexed": false,
          "name": "creator",
          "type": "address"
        },
        {
          "indexed": false,
          "name": "erc20Addr",
          "type": "address"
        },
        {
          "indexed": false,
          "name": "symbol",
          "type": "string"
        },
        {
          "indexed": false,
          "name": "name",
          "type": "string"
        },
        {
          "indexed": false,
          "name": "id",
          "type": "uint256"
        },
        {
          "indexed": false,
          "name": "lastLockedValue",
          "type": "uint256"
        }
      ],
      "name": "RoomOpened",
      "type": "event"
    },
    {
      "anonymous": false,
      "inputs": [
        {
          "indexed": false,
          "name": "roomId",
          "type": "uint256"
        }
      ],
      "name": "RoomClosed",
      "type": "event"
    },
    {
      "anonymous": false,
      "inputs": [
        {
          "indexed": false,
          "name": "roomId",
          "type": "uint256"
        },
        {
          "indexed": false,
          "name": "value",
          "type": "uint256"
        },
        {
          "indexed": false,
          "name": "remained",
          "type": "uint256"
        }
      ],
      "name": "Withdrawed",
      "type": "event"
    },
    {
      "anonymous": false,
      "inputs": [
        {
          "indexed": false,
          "name": "roomId",
          "type": "uint256"
        },
        {
          "indexed": false,
          "name": "value",
          "type": "uint256"
        },
        {
          "indexed": false,
          "name": "remained",
          "type": "uint256"
        }
      ],
      "name": "Deposited",
      "type": "event"
    },
    {
      "anonymous": false,
      "inputs": [
        {
          "indexed": false,
          "name": "roomId",
          "type": "uint256"
        },
        {
          "indexed": false,
          "name": "orderId",
          "type": "uint256"
        },
        {
          "indexed": false,
          "name": "value",
          "type": "uint256"
        }
      ],
      "name": "NewBetOrder",
      "type": "event"
    },
    {
      "anonymous": false,
      "inputs": [
        {
          "indexed": false,
          "name": "roomId",
          "type": "uint256"
        },
        {
          "indexed": false,
          "name": "orderId",
          "type": "uint256"
        },
        {
          "indexed": false,
          "name": "blockNum",
          "type": "uint256"
        },
        {
          "indexed": false,
          "name": "startBlock",
          "type": "uint256"
        }
      ],
      "name": "CloseRoundTooLate",
      "type": "event"
    },
    {
      "anonymous": false,
      "inputs": [
        {
          "indexed": false,
          "name": "roomId",
          "type": "uint256"
        },
        {
          "indexed": false,
          "name": "orderId",
          "type": "uint256"
        },
        {
          "indexed": false,
          "name": "value",
          "type": "uint256"
        }
      ],
      "name": "PayBetOwner",
      "type": "event"
    },
    {
      "constant": true,
      "inputs": [
        {
          "name": "roomId",
          "type": "uint256"
        },
        {
          "name": "orderId",
          "type": "uint256"
        }
      ],
      "name": "GetBetOrder",
      "outputs": [
        {
          "name": "",
          "type": "address"
        },
        {
          "name": "",
          "type": "uint256"
        },
        {
          "name": "",
          "type": "uint256"
        },
        {
          "name": "",
          "type": "uint256"
        },
        {
          "name": "",
          "type": "uint256"
        },
        {
          "name": "",
          "type": "bool"
        },
        {
          "name": "",
          "type": "uint256[]"
        }
      ],
      "payable": false,
      "stateMutability": "view",
      "type": "function"
    },
    {
      "constant": true,
      "inputs": [
        {
          "name": "roomId",
          "type": "uint256"
        }
      ],
      "name": "GetRoomInfo",
      "outputs": [
        {
          "name": "",
          "type": "address"
        },
        {
          "name": "",
          "type": "address"
        },
        {
          "name": "",
          "type": "string"
        },
        {
          "name": "",
          "type": "string"
        },
        {
          "name": "",
          "type": "uint256[4]"
        },
        {
          "name": "",
          "type": "uint256[4]"
        },
        {
          "name": "",
          "type": "bool"
        },
        {
          "name": "",
          "type": "uint256"
        },
        {
          "name": "",
          "type": "uint256"
        },
        {
          "name": "",
          "type": "uint256"
        },
        {
          "name": "",
          "type": "uint256"
        }
      ],
      "payable": false,
      "stateMutability": "view",
      "type": "function"
    },
    {
      "constant": true,
      "inputs": [],
      "name": "GetRooms",
      "outputs": [
        {
          "name": "",
          "type": "uint256"
        }
      ],
      "payable": false,
      "stateMutability": "view",
      "type": "function"
    },
    {
      "constant": true,
      "inputs": [],
      "name": "GetProfitRatio",
      "outputs": [
        {
          "name": "",
          "type": "uint256"
        }
      ],
      "payable": false,
      "stateMutability": "view",
      "type": "function"
    },
    {
      "constant": false,
      "inputs": [
        {
          "name": "ratio",
          "type": "uint256"
        }
      ],
      "name": "SetProfitRatio",
      "outputs": [],
      "payable": false,
      "stateMutability": "nonpayable",
      "type": "function"
    },
    {
      "constant": true,
      "inputs": [],
      "name": "GetRoundWait",
      "outputs": [
        {
          "name": "",
          "type": "uint256"
        }
      ],
      "payable": false,
      "stateMutability": "view",
      "type": "function"
    },
    {
      "constant": false,
      "inputs": [
        {
          "name": "value",
          "type": "uint256"
        }
      ],
      "name": "SetRoundWait",
      "outputs": [],
      "payable": false,
      "stateMutability": "nonpayable",
      "type": "function"
    },
    {
      "constant": true,
      "inputs": [],
      "name": "GetRoundPeriod",
      "outputs": [
        {
          "name": "",
          "type": "uint256"
        }
      ],
      "payable": false,
      "stateMutability": "view",
      "type": "function"
    },
    {
      "constant": false,
      "inputs": [
        {
          "name": "value",
          "type": "uint256"
        }
      ],
      "name": "SetRoundPeriod",
      "outputs": [],
      "payable": false,
      "stateMutability": "nonpayable",
      "type": "function"
    },
    {
      "constant": false,
      "inputs": [
        {
          "name": "erc20Addr",
          "type": "address"
        },
        {
          "name": "symbol",
          "type": "string"
        },
        {
          "name": "initLockedValue",
          "type": "uint256"
        },
        {
          "name": "roomName",
          "type": "string"
        },
        {
          "name": "nominator",
          "type": "uint256[4]"
        },
        {
          "name": "denominator",
          "type": "uint256[4]"
        }
      ],
      "name": "OpenRoom",
      "outputs": [
        {
          "name": "roomId",
          "type": "uint256"
        }
      ],
      "payable": true,
      "stateMutability": "payable",
      "type": "function"
    },
    {
      "constant": false,
      "inputs": [
        {
          "name": "roomId",
          "type": "uint256"
        }
      ],
      "name": "CloseRoom",
      "outputs": [
        {
          "name": "",
          "type": "bool"
        }
      ],
      "payable": true,
      "stateMutability": "payable",
      "type": "function"
    },
    {
      "constant": true,
      "inputs": [
        {
          "name": "erc20Addr",
          "type": "address"
        }
      ],
      "name": "GetProfit",
      "outputs": [
        {
          "name": "",
          "type": "uint256"
        }
      ],
      "payable": false,
      "stateMutability": "view",
      "type": "function"
    },
    {
      "constant": false,
      "inputs": [
        {
          "name": "erc20Addr",
          "type": "address"
        },
        {
          "name": "value",
          "type": "uint256"
        },
        {
          "name": "receiver",
          "type": "address"
        }
      ],
      "name": "WithdrawProfit",
      "outputs": [],
      "payable": true,
      "stateMutability": "payable",
      "type": "function"
    },
    {
      "constant": false,
      "inputs": [
        {
          "name": "roomId",
          "type": "uint256"
        },
        {
          "name": "value",
          "type": "uint256"
        },
        {
          "name": "receiver",
          "type": "address"
        }
      ],
      "name": "Withdraw",
      "outputs": [],
      "payable": true,
      "stateMutability": "payable",
      "type": "function"
    },
    {
      "constant": false,
      "inputs": [
        {
          "name": "roomId",
          "type": "uint256"
        },
        {
          "name": "value",
          "type": "uint256"
        }
      ],
      "name": "Deposit",
      "outputs": [],
      "payable": true,
      "stateMutability": "payable",
      "type": "function"
    },
    {
      "constant": false,
      "inputs": [
        {
          "name": "roomId",
          "type": "uint256"
        }
      ],
      "name": "CloseBetOrders",
      "outputs": [],
      "payable": true,
      "stateMutability": "payable",
      "type": "function"
    },
    {
      "constant": false,
      "inputs": [
        {
          "name": "roomId",
          "type": "uint256"
        },
        {
          "name": "betType",
          "type": "uint256"
        },
        {
          "name": "betValue",
          "type": "uint256[]"
        }
      ],
      "name": "SubmitBetOrder",
      "outputs": [
        {
          "name": "",
          "type": "uint256"
        }
      ],
      "payable": true,
      "stateMutability": "payable",
      "type": "function"
    }
  ],
  "bytecode": "0x608060405260008054600160a060020a031916331781556001556064600255600a6003819055600455612c9c806100376000396000f3fe60806040526004361061010e5763ffffffff60e060020a6000350416630b54337281146101135780630df298d11461013a578063188c9e09146101665780631d424ea11461021557806333d47a5b1461024657806334e4aa491461025b5780633c3419e61461027857806358fb58d8146104165780635b1c48cb146104475780635ea431b21461045c578063668b0daf1461047157806371ef96c41461048657806378463323146104b8578063876148ac146104cd5780638a427002146104f75780639b458bd314610521578063a3af609b14610536578063b076650a14610559578063c2aaf0281461061d578063c2ee9822146107bb578063ccc8efcc146107f1578063dd84095114610824575b600080fd5b34801561011f57600080fd5b50610128610839565b60408051918252519081900360200190f35b34801561014657600080fd5b506101646004803603602081101561015d57600080fd5b503561083f565b005b6101286004803603606081101561017c57600080fd5b8135916020810135918101906060810160408201356401000000008111156101a357600080fd5b8201836020820111156101b557600080fd5b803590602001918460208302840111640100000000831117156101d757600080fd5b9190808060200260200160405190810160405280939291908181526020018383602002808284376000920191909152509295506108cc945050505050565b6102326004803603602081101561022b57600080fd5b5035611070565b604080519115158252519081900360200190f35b34801561025257600080fd5b506101286111bc565b6101646004803603602081101561027157600080fd5b50356111c3565b34801561028457600080fd5b506102a26004803603602081101561029b57600080fd5b50356112e7565b60408051600160a060020a03808e1682528c166020820152908101606082016080808401908b9080838360005b838110156102e75781810151838201526020016102cf565b5050505090500189600460200280838360005b838110156103125781810151838201526020016102fa565b505050509050018815151515815260200187815260200186815260200185815260200184815260200183810383528c818151815260200191508051906020019080838360005b83811015610370578181015183820152602001610358565b50505050905090810190601f16801561039d5780820380516001836020036101000a031916815260200191505b5083810382528b5181528b516020918201918d019080838360005b838110156103d05781810151838201526020016103b8565b50505050905090810190601f1680156103fd5780820380516001836020036101000a031916815260200191505b509d505050505050505050505050505060405180910390f35b34801561042257600080fd5b5061042b611509565b60408051600160a060020a039092168252519081900360200190f35b34801561045357600080fd5b50610128611518565b34801561046857600080fd5b5061012861151e565b34801561047d57600080fd5b50610128611524565b6101646004803603606081101561049c57600080fd5b5080359060208101359060400135600160a060020a031661152a565b3480156104c457600080fd5b506101286116b8565b3480156104d957600080fd5b50610164600480360360208110156104f057600080fd5b50356116be565b34801561050357600080fd5b506101646004803603602081101561051a57600080fd5b503561174b565b34801561052d57600080fd5b50610128611831565b6101646004803603604081101561054c57600080fd5b5080359060200135611837565b34801561056557600080fd5b506105896004803603604081101561057c57600080fd5b50803590602001356118dd565b6040518088600160a060020a0316600160a060020a031681526020018781526020018681526020018581526020018481526020018315151515815260200180602001828103825283818151815260200191508051906020019060200280838360005b838110156106035781810151838201526020016105eb565b505050509050019850505050505050505060405180910390f35b610128600480360361018081101561063457600080fd5b600160a060020a03823516919081019060408101602082013564010000000081111561065f57600080fd5b82018360208201111561067157600080fd5b8035906020019184600183028401116401000000008311171561069357600080fd5b91908080601f016020809104026020016040519081016040528093929190818152602001838380828437600092019190915250929584359590949093506040810192506020013590506401000000008111156106ee57600080fd5b82018360208201111561070057600080fd5b8035906020019184600183028401116401000000008311171561072257600080fd5b91908080601f01602080910402602001604051908101604052809392919081815260200183838082843760009201919091525050604080516080818101909252939695948181019493509150600490839083908082843760009201919091525050604080516080818101909252929594938181019392509060049083908390808284376000920191909152509194506119c49350505050565b610164600480360360608110156107d157600080fd5b50600160a060020a03813581169160208101359160409091013516611d35565b3480156107fd57600080fd5b506101286004803603602081101561081457600080fd5b5035600160a060020a0316611eb5565b34801561083057600080fd5b50610128611ed0565b60035481565b600054600160a060020a031633146108c7576040805160e560020a62461bcd02815260206004820152602160248201527f4f6e6c7920616c6c6f7720636f6e7472616374206f776e657220746f2073657460448201527f2100000000000000000000000000000000000000000000000000000000000000606482015290519081900360840190fd5b600455565b60008084116108da57600080fd5b6000848152600560205260409020600f8416801515610943576040805160e560020a62461bcd02815260206004820152600d60248201527f496e76616c696420747970652100000000000000000000000000000000000000604482015290519081900360640190fd5b600d82015460ff1615156109a1576040805160e560020a62461bcd02815260206004820152601860248201527f54686520726f6f6d206973206e6f742061637469766564210000000000000000604482015290519081900360640190fd5b60008080600180825b60038160ff161015610b405760ff80821660020a881690811615610b375760045486600101028b5110151515610a2a576040805160e560020a62461bcd02815260206004820152601360248201527f4d697373696e67206265742076616c7565732100000000000000000000000000604482015290519081900360640190fd5b6005890160ff831660048110610a3c57fe5b015493506009890160ff831660048110610a5257fe5b0154925060005b6004548160ff161015610ad357610a9d8686868f8560ff166004548d0201815181101515610a8357fe5b9060200190602002015102811515610a9757fe5b04611ed6565b9550610ac9888d8360ff166004548b0201815181101515610aba57fe5b90602001906020020151611ed6565b9750600101610a59565b506011890154851115610b30576040805160e560020a62461bcd02815260206004820152601b60248201527f43616e6e6f7420626574206f76657220636f6d70656e73617465210000000000604482015290519081900360640190fd5b6001909501945b506001016109aa565b506004548402895110151515610ba0576040805160e560020a62461bcd02815260206004820152601360248201527f4d697373696e67206265742076616c7565732100000000000000000000000000604482015290519081900360640190fd5b60045493909302926008808716148015610bba5750838951115b15610dfc57885160018501946000918b91908110610bd457fe5b906020019060200201519050848a51111515610c3a576040805160e560020a62461bcd02815260206004820152601960248201527f6265745461696c496e666f20666f726d61742077726f6e672100000000000000604482015290519081900360640190fd5b6008880154600c890154909350915060005b81811015610df9578a5160018701966000918d91908110610c6957fe5b90602001906020020151905060008c88806001019950815181101515610c8b57fe5b9060200190602002015190508060020288018d5110151515610cf7576040805160e560020a62461bcd02815260206004820152601960248201527f6265745461696c496e666f20666f726d61742077726f6e672100000000000000604482015290519081900360640190fd5b60008210158015610d0d57506001600454038211155b1515610d89576040805160e560020a62461bcd02815260206004820152602560248201527f6265745461696c20626c6f636b206e756d206d757374206265747765656e205b60448201527f302d395d21000000000000000000000000000000000000000000000000000000606482015290519081900360840190fd5b60005b81811015610dee5760008e8a600101815181101515610da757fe5b906020019060200201519050600088888302811515610dc257fe5b049050610dcf8a82611ed6565b9950610ddb8c83611ed6565b9b50505060029890980197600101610d8c565b505050600101610c4c565b50505b6010870154601188015403831115610e5e576040805160e560020a62461bcd02815260206004820152601b60248201527f43616e6e6f7420626574206f76657220636f6d70656e73617465210000000000604482015290519081900360640190fd5b6001870154610e7890600160a060020a0316333088611ee8565b1561105d57610e8b876010015484611ed6565b6010880155600e870154610ea0906001611ed6565b600e880155610ead612a71565b8b81602001818152505087600e0154816060018181525050858160800181815250508a8160e001818152505089816101200181905250338160000190600160a060020a03169081600160a060020a03168152505060008161010001901515908115158152505060008160c0018181525050838160a00181815250506003544301816040018181525050808860120160008360600151815260200190815260200160002060008201518160000160006101000a815481600160a060020a030219169083600160a060020a031602179055506020820151816001015560408201518160020155606082015181600301556080820151816004015560a0820151816005015560c0820151816006015560e082015181600701556101008201518160080160006101000a81548160ff021916908315150217905550610120820151816009019080519060200190611001929190612ad0565b505050600e880154604080518e81526020810192909252818101889052517f3bcc29ebfaf3c11e8448a4d3659f7e312a211f4d9979bcbdbb42923150a4918d9181900360600190a187600e015498505050505050505050611069565b60009750505050505050505b9392505050565b600080821161107e57600080fd5b60008281526005602052604090208054600160a060020a03163314611113576040805160e560020a62461bcd02815260206004820152602860248201527f4f6e6c7920616c6c6f7720726f6f6d206f776e657220746f207769746864726160448201527f77206d6f6e657921000000000000000000000000000000000000000000000000606482015290519081900360840190fd5b61111c836111c3565b600e810154600f820154146111355760009150506111b7565b6000816011015411156111725760018101548154601183015461116592600160a060020a03908116921690612203565b1561117257600060118201555b600d8101805460ff191690556040805184815290517f67acaceb58ff1ad2aa8b3069f69c4cd076824e06a09184b75fb197ead7040be79181900360200190a160019150505b919050565b6003545b90565b6000811161121b576040805160e560020a62461bcd02815260206004820152600d60248201527f77726f6e6720726f6f6d49642100000000000000000000000000000000000000604482015290519081900360640190fd5b6000818152600560205260409020600d81015460ff161515611287576040805160e560020a62461bcd02815260206004820152601860248201527f54686520726f6f6d206973206e6f742061637469766564210000000000000000604482015290519081900360640190fd5b600f8101546001015b600e82015481116112e2576000818152601283016020526040902060028101546004546112bd9190611ed6565b4311156112d3576112ce8483612389565b6112d9565b506112e2565b50600101611290565b505050565b6000806060806112f5612b1b565b6112fd612b1b565b600080808080808c1161130f57600080fd5b60008c8152600560208181526040928390208054600180830154600d840154600e850154600f860154601087015460118801546002808a0180548e516101009a8216159a909a02600019011691909104601f81018c90048c0289018c01909d528c8852989b600160a060020a039889169b989096169960038d01988d019760098e019760ff9097169690918b91908301828280156113ee5780601f106113c3576101008083540402835291602001916113ee565b820191906000526020600020905b8154815290600101906020018083116113d157829003601f168201915b50508b5460408051602060026001851615610100026000190190941693909304601f8101849004840282018401909252818152959e508d94509250840190508282801561147c5780601f106114515761010080835404028352916020019161147c565b820191906000526020600020905b81548152906001019060200180831161145f57829003601f168201915b5050604080516080810191829052949c508b935060049250905082845b815481526020019060010190808311611499575050604080516080810191829052949b508a935060049250905082845b8154815260200190600101908083116114c957505050505095509b509b509b509b509b509b509b509b509b509b509b505091939597999b90929496989a50565b600054600160a060020a031681565b60045481565b60015481565b60025481565b6000831161153757600080fd5b60008381526005602052604090208054600160a060020a031633146115cc576040805160e560020a62461bcd02815260206004820152602860248201527f4f6e6c7920616c6c6f7720726f6f6d206f776e657220746f207769746864726160448201527f77206d6f6e657921000000000000000000000000000000000000000000000000606482015290519081900360840190fd5b601081015460118201540383111561162e576040805160e560020a62461bcd02815260206004820152601460248201527f5769746864726177206f766572206d6f6e657921000000000000000000000000604482015290519081900360640190fd5b60008160110154111561166d57600181015461165490600160a060020a03168385612203565b1561166d57611667816011015484612a5c565b60118201555b6011810154604080518681526020810186905280820192909252517fe492f03a13f16d9ab77da04e06cc43e6eb0a495bab6bc3d0018b7d6714e6359f9181900360600190a150505050565b60045490565b600054600160a060020a03163314611746576040805160e560020a62461bcd02815260206004820152602160248201527f4f6e6c7920616c6c6f7720636f6e7472616374206f776e657220746f2073657460448201527f2100000000000000000000000000000000000000000000000000000000000000606482015290519081900360840190fd5b600355565b61271081106117a4576040805160e560020a62461bcd02815260206004820152601a60248201527f43616e6e6f74206578636565642070726f66697420554e495421000000000000604482015290519081900360640190fd5b600054600160a060020a0316331461182c576040805160e560020a62461bcd02815260206004820152602160248201527f4f6e6c7920616c6c6f7720636f6e7472616374206f776e657220746f2073657460448201527f2100000000000000000000000000000000000000000000000000000000000000606482015290519081900360840190fd5b600255565b60025490565b6000821180156118475750600081115b151561185257600080fd5b6000828152600560205260409020600181015461187a90600160a060020a0316333085611ee8565b156118935761188d816011015483611ed6565b60118201555b6011810154604080518581526020810185905280820192909252517f1ca606821992e3b34613b5b29c0bbade3a907b2969d7f9f2927f726fa4baccfb9181900360600190a1505050565b60008060008060008060606000891180156118f85750600088115b151561190357600080fd5b60008981526005602090815260408083208b8452601281018352928190208054600282015460048301546006840154600785015460088601546009870180548951818c0281018c01909a52808a529799600160a060020a0390971698959794969395929460ff9092169390929183918301828280156119a157602002820191906000526020600020905b81548152602001906001019080831161198d575b505050505090509850985098509850985098509850505092959891949750929550565b6000600160a060020a03871615156119db57600080fd5b600085116119e857600080fd5b60005b6004811015611a47576000848260048110611a0257fe5b6020020151118015611a345750828160048110611a1b57fe5b6020020151848260048110611a2c57fe5b602002015111155b1515611a3f57600080fd5b6001016119eb565b50611a5487333088611ee8565b15611d2757611a666001546001611ed6565b600155611a71612b3a565b338152600180546080830181905260408084018a8152600160a060020a038c81166020808801918252606088018c905260a088018b905260c088018a90526000610140890181905261016089018e905260e089018890526101008901819052610120890181905295865260058152939094208651815490831673ffffffffffffffffffffffffffffffffffffffff1991821617825594519581018054969092169590941694909417909355915180518493611b33926002850192910190612bbc565b5060608201518051611b4f916003840191602090910190612bbc565b506080820151816004015560a082015181600501906004611b71929190612c29565b5060c0820151611b879060098301906004612c29565b5060e082015181600d0160006101000a81548160ff02191690831515021790555061010082015181600e015561012082015181600f0155610140820151816010015561016082015181601101559050507fa0f40cac2a163501e8153dd5cf7bdced544c2e40391201acdaa3eb22435e3901338989886001548b6040518087600160a060020a0316600160a060020a0316815260200186600160a060020a0316600160a060020a031681526020018060200180602001858152602001848152602001838103835287818151815260200191508051906020019080838360005b83811015611c7d578181015183820152602001611c65565b50505050905090810190601f168015611caa5780820380516001836020036101000a031916815260200191505b50838103825286518152865160209182019188019080838360005b83811015611cdd578181015183820152602001611cc5565b50505050905090810190601f168015611d0a5780820380516001836020036101000a031916815260200191505b509850505050505050505060405180910390a15050600154611d2b565b5060005b9695505050505050565b600160a060020a03831615801590611d4d5750600082115b8015611d615750600160a060020a03811615155b1515611d6c57600080fd5b600054600160a060020a03163314611df4576040805160e560020a62461bcd02815260206004820152603360248201527f4f6e6c7920616c6c6f7720636f6e7472616374206f776e657220746f2077697460448201527f68647261772070726f666974206d6f6e65792100000000000000000000000000606482015290519081900360840190fd5b600160a060020a038316600090815260066020526040902054821115611e64576040805160e560020a62461bcd02815260206004820152601b60248201527f57697468647261772070726f666974206f766572206d6f6e6579210000000000604482015290519081900360640190fd5b611e6f838284612203565b156112e257600160a060020a038316600090815260066020526040902054611e979083612a5c565b600160a060020a038416600090815260066020526040902055505050565b600160a060020a031660009081526006602052604090205490565b60015490565b60008282018381101561106957600080fd5b600080859050600081600160a060020a03166370a08231876040518263ffffffff1660e060020a0281526004018082600160a060020a0316600160a060020a0316815260200191505060206040518083038186803b158015611f4957600080fd5b505afa158015611f5d573d6000803e3d6000fd5b505050506040513d6020811015611f7357600080fd5b5051905060008411611fcf576040805160e560020a62461bcd02815260206004820152601a60248201527f4d757374207472616e7366657220736f6d6520746f6b656e7321000000000000604482015290519081900360640190fd5b80841115612027576040805160e560020a62461bcd02815260206004820152601e60248201527f43616e6e6f742061626f76652063757272656e7420686f6c64696e6773210000604482015290519081900360640190fd5b604080517fdd62ed3e000000000000000000000000000000000000000000000000000000008152600160a060020a0388811660048301528781166024830152915160009285169163dd62ed3e916044808301926020929190829003018186803b15801561209357600080fd5b505afa1580156120a7573d6000803e3d6000fd5b505050506040513d60208110156120bd57600080fd5b5051905080156120d9578082106120d457806120d6565b815b90505b84811015612157576040805160e560020a62461bcd02815260206004820152602260248201527f4d75737420617070726f7665206c6f636b656420746f6b656e73206265666f7260448201527f652e000000000000000000000000000000000000000000000000000000000000606482015290519081900360840190fd5b604080517f23b872dd000000000000000000000000000000000000000000000000000000008152600160a060020a0389811660048301528881166024830152604482018890529151918516916323b872dd916064808201926020929091908290030181600087803b1580156121cb57600080fd5b505af11580156121df573d6000803e3d6000fd5b505050506040513d60208110156121f557600080fd5b505198975050505050505050565b604080517f70a08231000000000000000000000000000000000000000000000000000000008152306004820152905160009185918391600160a060020a038416916370a0823191602480820192602092909190829003018186803b15801561226a57600080fd5b505afa15801561227e573d6000803e3d6000fd5b505050506040513d602081101561229457600080fd5b50519050838110156122f0576040805160e560020a62461bcd02815260206004820152601460248201527f4e6f7420656e6f756768206d6f6e6579203a2821000000000000000000000000604482015290519081900360640190fd5b81600160a060020a031663a9059cbb86866040518363ffffffff1660e060020a0281526004018083600160a060020a0316600160a060020a0316815260200182815260200192505050602060405180830381600087803b15801561235357600080fd5b505af1158015612367573d6000803e3d6000fd5b505050506040513d602081101561237d57600080fd5b50519695505050505050565b6000821180156123995750600081115b15156123a457600080fd5b600082815260056020908152604080832084845260128101909252909120600881015460ff161561241f576040805160e560020a62461bcd02815260206004820181905260248201527f54686520626574206f7264657220697320616c726561647920636c6f73656421604482015290519081900360640190fd5b60018201546002820154600454600160a060020a0390921691612446919061010003611ed6565b431115612547578154600480840154604080517fa9059cbb000000000000000000000000000000000000000000000000000000008152600160a060020a03948516938101939093526024830191909152519183169163a9059cbb916044808201926020929091908290030181600087803b1580156124c357600080fd5b505af11580156124d7573d6000803e3d6000fd5b505050506040513d60208110156124ed57600080fd5b505060018201546003830154600284015460408051938452602084019290925243838301526060830152517f84842e1cd70dcda5b4f0df63bcd2e252233f6e5419d41793fd75645b14f120879181900360800190a1612a25565b6000805b6004548160ff16101561273457600284015460ff82160140600f81166000600a821080159061257e5750600f8260ff1611155b905060008115801561259257506001808416145b90506000821580156125a2575081155b905060008090508960070154600116600114156126465760008a6009018860ff166004548460ff1602018154811015156125d857fe5b90600052602060002001541180156125ed5750825b156126425760068a015460058c015461263c919060098e0160005b01548d6009018b60ff166004548760ff16020181548110151561262757fe5b906000526020600020015402811515610a9757fe5b60068b01555b6001015b8960070154600216600214156126b55760008a6009018860ff166004548460ff16020181548110151561267557fe5b906000526020600020015411801561268a5750815b156126b15760068a01546126ab9060058d016001015460098e016001612608565b60068b01555b6001015b8960070154600416600414156127225760008a6009018860ff166004548460ff1602018154811015156126e457fe5b90600052602060002001541180156126f95750835b1561271e5760068a015460078c0154612718919060098e016002612608565b60068b01555b6001015b50506001909401935061254b92505050565b506007830154600090600f16815b60038160ff1610156127705760ff80821660020a831690811615612767576001909301925b50600101612742565b506004548202915084600701546008166008141561289c57600985018054600184019360009291811061279f57fe5b600091825260208220015491505b818110156128995760098701805460018601956000929181106127cc57fe5b600091825260208220015460028a015460098b01805460018a01999395509185014093600f851693909281106127fe57fe5b600091825260208220015491505b81811015612888578260ff168c6009018a81548110151561282957fe5b906000526020600020015414156128795760068c01546128739060058f01600301548f600901600360048110151561285d57fe5b01548f6009018d60010181548110151561262757fe5b60068d01555b6002989098019760010161280c565b5050600190930192506127ad915050565b50505b60008560060154111561299e5784546006860154604080517fa9059cbb000000000000000000000000000000000000000000000000000000008152600160a060020a0393841660048201526024810192909252519186169163a9059cbb916044808201926020929091908290030181600087803b15801561291c57600080fd5b505af1158015612930573d6000803e3d6000fd5b505050506040513d602081101561294657600080fd5b50506006850154604080518a8152602081018a905280820192909252517fc6463bc3c0665fea9e0be72485dd8124a9b05c1632ffa17f1935722c5851cdfe9181900360600190a161299b838660060154611ed6565b92505b60025460048601546001880154600160a060020a03166000908152600660205260409020546127109190920204906129d69082611ed6565b6001880154600160a060020a031660009081526006602052604090205560118701546004870154612a0a9190839003611ed6565b60118801819055612a1b9085612a5c565b6011880155505050505b60088201805460ff1916600117905560108301546005830154612a489190612a5c565b60108401555060030154600f909101555050565b600082821115612a6b57600080fd5b50900390565b610140604051908101604052806000600160a060020a0316815260200160008152602001600081526020016000815260200160008152602001600081526020016000815260200160008152602001600015158152602001606081525090565b828054828255906000526020600020908101928215612b0b579160200282015b82811115612b0b578251825591602001919060010190612af0565b50612b17929150612c56565b5090565b6080604051908101604052806004906020820280388339509192915050565b610240604051908101604052806000600160a060020a031681526020016000600160a060020a03168152602001606081526020016060815260200160008152602001612b84612b1b565b8152602001612b91612b1b565b8152602001600015158152602001600081526020016000815260200160008152602001600081525090565b828054600181600116156101000203166002900490600052602060002090601f016020900481019282601f10612bfd57805160ff1916838001178555612b0b565b82800160010185558215612b0b5791820182811115612b0b578251825591602001919060010190612af0565b8260048101928215612b0b5791602002820182811115612b0b578251825591602001919060010190612af0565b6111c091905b80821115612b175760008155600101612c5c56fea165627a7a72305820027f0e5d2bae777b697b224a44d681d77e2b6b29af287e41a95a677c47ebb82f0029",
  "source": "pragma solidity ^0.5.0;\n\n/**\n * @title SafeMath\n * @dev Math operations with safety checks that revert on error\n */\nlibrary SafeMath {\n    int256 constant private INT256_MIN = -2**255;\n\n    /**\n    * @dev Multiplies two unsigned integers, reverts on overflow.\n    */\n    function mul(uint256 a, uint256 b) internal pure returns (uint256) {\n        // Gas optimization: this is cheaper than requiring 'a' not being zero, but the\n        // benefit is lost if 'b' is also tested.\n        // See: https://github.com/OpenZeppelin/openzeppelin-solidity/pull/522\n        if (a == 0) {\n            return 0;\n        }\n\n        uint256 c = a * b;\n        require(c / a == b);\n\n        return c;\n    }\n\n    /**\n    * @dev Multiplies two signed integers, reverts on overflow.\n    */\n    function mul(int256 a, int256 b) internal pure returns (int256) {\n        // Gas optimization: this is cheaper than requiring 'a' not being zero, but the\n        // benefit is lost if 'b' is also tested.\n        // See: https://github.com/OpenZeppelin/openzeppelin-solidity/pull/522\n        if (a == 0) {\n            return 0;\n        }\n\n        require(!(a == -1 && b == INT256_MIN)); // This is the only case of overflow not detected by the check below\n\n        int256 c = a * b;\n        require(c / a == b);\n\n        return c;\n    }\n\n    /**\n    * @dev Integer division of two unsigned integers truncating the quotient, reverts on division by zero.\n    */\n    function div(uint256 a, uint256 b) internal pure returns (uint256) {\n        // Solidity only automatically asserts when dividing by 0\n        require(b > 0);\n        uint256 c = a / b;\n        // assert(a == b * c + a % b); // There is no case in which this doesn't hold\n\n        return c;\n    }\n\n    /**\n    * @dev Integer division of two signed integers truncating the quotient, reverts on division by zero.\n    */\n    function div(int256 a, int256 b) internal pure returns (int256) {\n        require(b != 0); // Solidity only automatically asserts when dividing by 0\n        require(!(b == -1 && a == INT256_MIN)); // This is the only case of overflow\n\n        int256 c = a / b;\n\n        return c;\n    }\n\n    /**\n    * @dev Subtracts two unsigned integers, reverts on overflow (i.e. if subtrahend is greater than minuend).\n    */\n    function sub(uint256 a, uint256 b) internal pure returns (uint256) {\n        require(b <= a);\n        uint256 c = a - b;\n\n        return c;\n    }\n\n    /**\n    * @dev Subtracts two signed integers, reverts on overflow.\n    */\n    function sub(int256 a, int256 b) internal pure returns (int256) {\n        int256 c = a - b;\n        require((b >= 0 && c <= a) || (b < 0 && c > a));\n\n        return c;\n    }\n\n    /**\n    * @dev Adds two unsigned integers, reverts on overflow.\n    */\n    function add(uint256 a, uint256 b) internal pure returns (uint256) {\n        uint256 c = a + b;\n        require(c >= a);\n\n        return c;\n    }\n\n    /**\n    * @dev Adds two signed integers, reverts on overflow.\n    */\n    function add(int256 a, int256 b) internal pure returns (int256) {\n        int256 c = a + b;\n        require((b >= 0 && c >= a) || (b < 0 && c < a));\n\n        return c;\n    }\n\n    /**\n    * @dev Divides two unsigned integers and returns the remainder (unsigned integer modulo),\n    * reverts when dividing by zero.\n    */\n    function mod(uint256 a, uint256 b) internal pure returns (uint256) {\n        require(b != 0);\n        return a % b;\n    }\n}\n\ncontract ERC20 {\n    function totalSupply()\n        public\n        view\n        returns (uint256);\n\n    function balanceOf(\n        address who\n        )\n        public\n        view\n        returns (uint256);\n\n    function allowance(\n        address owner,\n        address spender\n        )\n        public\n        view\n        returns (uint256);\n\n    function transfer(\n        address to,\n        uint256 value\n        )\n        public\n        returns (bool);\n\n    function transferFrom(\n        address from,\n        address to,\n        uint256 value\n        )\n        public\n        returns (bool);\n\n    function approve(\n        address spender,\n        uint256 value\n        )\n        public\n        returns (bool);\n}\n\ncontract HashDice {\n    struct BetOrder{\n        address owner;\n        uint256 roomId;\n        uint256 startBlock;\n        uint256 orderId;\n        uint256 totalValue;\n        uint256 maxCompensate;\n        uint256 gain;\n        uint256 betType;\n        bool closed;\n        uint256[] betValue;\n    }\n\n    struct Room{\n        address creator; //RoomOwner\n        address erc20Addr; //ERC20 token address\n        string symbol; //Token name\n        string name; //Room name\n        uint256 id; //Unique room ID\n        uint256[4] nominator; //0:Odd, 1:Even, 2:char, 3:tail\n        uint256[4] denominator; //0:Odd, 1:Even, 2:char, 3:tail\n        bool active;\n        uint256 currentOrderId; //Current bet order id\n        uint256 lastClosedOrderId; //Last time closed order id\n        uint256 currentMaxCompensate;\n        uint256 lastLockedValue; //Locked token value after last closed order\n        mapping(uint256 => BetOrder) orders;\n    }\n\n    event RoomOpened(\n        address creator, //RoomOwner\n        address erc20Addr, //ERC20 token address\n        string symbol, //Token name\n        string name, //Room name\n        uint256 id, //Unique room ID\n        uint256 lastLockedValue //Locked token value after last round\n    );\n\n    event RoomClosed(\n        uint256 roomId\n    );\n\n    event Withdrawed(\n        uint256 roomId,\n        uint256 value,\n        uint256 remained\n    );\n\n    event Deposited(\n        uint256 roomId,\n        uint256 value,\n        uint256 remained\n    );\n\n    event NewBetOrder(\n        uint256 roomId,\n        uint256 orderId,\n        uint256 value\n    );\n\n    event CloseRoundTooLate(\n        uint256 roomId,\n        uint256 orderId,\n        uint256 blockNum,\n        uint256 startBlock\n    );\n\n    event PayBetOwner(\n        uint256 roomId,\n        uint256 orderId,\n        uint256 value\n    );\n\n    address public gOwner;\n    uint256 public gRoomId;\n    uint256 public gProfitRatio;\n    uint256 public gRoundWait;\n    uint256 public gRoundPeriod;\n\n    mapping(uint256 => Room) rooms;\n    mapping(address => uint256) profits;\n\n    constructor() public payable{\n        gOwner = msg.sender;\n\t\tgRoomId = 0;\n        gProfitRatio = 100; //Default is 1%, UNIT is 10000\n        gRoundWait = 10; //Default wait 10 block for any bet order\n        gRoundPeriod = 10; //Default bet for 10 blocks\n \t}\n\n    function CheckTransferFrom(\n        address erc20Addr,\n        address from,\n        address to,\n        uint256 value\n    ) internal returns (bool){\n        //First check whether msg.sender has enough tokens\n        ERC20 token = ERC20(erc20Addr);\n        uint256 totalBalance = token.balanceOf(from);\n        require(value > 0, \"Must transfer some tokens!\");\n        require(value <= totalBalance, \"Cannot above current holdings!\");\n        uint256 spendable = token.allowance(\n            from,\n            to\n        );\n        if (spendable != 0) {\n            spendable = (totalBalance < spendable) ? totalBalance : spendable;\n        }\n        require(spendable >= value, \"Must approve locked tokens before.\");\n\n        //Final tranfer bet valule to contract\n        return token.transferFrom(from, to, value);\n    }\n\n    function CheckTransfer(\n        address erc20Addr,\n        address to,\n        uint256 value\n    ) internal returns (bool) {\n        ERC20 token = ERC20(erc20Addr);\n        uint256 balance = token.balanceOf(address(this));\n        require(balance >= value, \"Not enough money :(!\");\n        //Do the real token transfer\n        return token.transfer(to, value);\n    }\n\n    function GetBetOrder(\n        uint256 roomId,\n        uint256 orderId\n    ) public view returns(address, uint256, uint256, uint256, uint256, bool, uint256[] memory) {\n        require(roomId > 0 && orderId > 0);\n        Room storage room = rooms[roomId];\n        BetOrder storage order = room.orders[orderId];\n        return (order.owner, order.startBlock, order.totalValue, order.gain, order.betType, \n            order.closed, order.betValue);\n    }\n\n    function GetRoomInfo(\n        uint256 roomId\n    ) public view returns(address, address, string memory, string memory, \n            uint256[4] memory, uint256[4] memory, bool, uint256, uint256, uint256, uint256) {\n        require(roomId > 0);\n        Room storage room = rooms[roomId];\n        return (room.creator, room.erc20Addr, room.symbol, room.name,\n            room.nominator, room.denominator, room.active, room.currentOrderId, room.lastClosedOrderId,\n            room.currentMaxCompensate, room.lastLockedValue);\n    }\n\n    function GetRooms() public view returns (uint256) {\n        return gRoomId;\n    }\n\n    function GetProfitRatio() public view returns (uint256) {\n        return gProfitRatio;\n    }\n\n    function SetProfitRatio(uint256 ratio) public {\n        require(ratio < 10000, \"Cannot exceed profit UNIT!\");\n        require(msg.sender == gOwner, \"Only allow contract owner to set!\");\n        gProfitRatio = ratio;\n    }\n\n    function GetRoundWait() public view returns (uint256) {\n        return gRoundWait;\n    }\n\n    function SetRoundWait(uint256 value) public {\n        require(msg.sender == gOwner, \"Only allow contract owner to set!\");\n        gRoundWait = value;\n    }\n\n    function GetRoundPeriod() public view returns (uint256) {\n        return gRoundPeriod;\n    }\n\n    function SetRoundPeriod(uint256 value) public {\n        require(msg.sender == gOwner, \"Only allow contract owner to set!\");\n        gRoundPeriod = value;\n    }\n\n    function OpenRoom(\n        address erc20Addr, \n        string memory symbol, \n        uint256 initLockedValue, \n        string memory roomName, \n        uint256[4] memory nominator,\n        uint256[4] memory denominator\n    ) public payable returns(uint256 roomId){\n        require(erc20Addr != address(0));\n        require(initLockedValue > 0);\n        //Must meet (0 < nonimator <= denominator)\n        for (uint i=0; i<4; i++) {\n            require(nominator[i] > 0 && nominator[i] <= denominator[i]);\n        }\n\n        //Do the real token transfer, after that the token is locked in the contract.\n        if (CheckTransferFrom(erc20Addr, msg.sender, address(this), initLockedValue)) {\n            gRoomId = SafeMath.add(gRoomId,1);\n\n            Room memory newRoom;\n            newRoom.creator = msg.sender;\n            newRoom.id = gRoomId;\n            newRoom.symbol = symbol;\n            newRoom.erc20Addr = erc20Addr;\n            newRoom.name = roomName;\n            newRoom.nominator = nominator;\n            newRoom.denominator = denominator;\n            newRoom.currentMaxCompensate = 0;\n            newRoom.lastLockedValue = initLockedValue;\n            newRoom.active = true;\n            newRoom.currentOrderId = 0;\n            newRoom.lastClosedOrderId = 0;\n\n            rooms[gRoomId] = newRoom; //Automatically copy it from memory to storage\n            emit RoomOpened(msg.sender, erc20Addr, symbol, roomName, gRoomId, initLockedValue);\n            return gRoomId;\n        } else {\n            return 0;\n        }\n    }\n\n    function CloseRoom(\n        uint256 roomId\n    ) public payable returns (bool) {\n        require(roomId > 0);\n        Room storage room = rooms[roomId];\n        //Only allow room owner to withdraw money\n        require(room.creator == msg.sender, \n            \"Only allow room owner to withdraw money!\");\n        //Try to close active bet order first\n        CloseBetOrders(roomId);\n        if(room.lastClosedOrderId != room.currentOrderId) {\n            //There exsits some future bet orders to be closed\n            return false;\n        }\n        //Finally return back the locked tokens to room creator\n        if(room.lastLockedValue > 0){\n            //Do the real token transfer, after that the token is locked in the contract.\n            if(CheckTransfer(room.erc20Addr, room.creator, room.lastLockedValue)) {\n                room.lastLockedValue = 0;\n            }\n        }\n        room.active = false;\n        emit RoomClosed(roomId);\n        return true;\n    }\n\n    function GetProfit(\n        address erc20Addr\n    ) public view returns (uint256) {\n        return profits[erc20Addr];\n    }\n\n    function WithdrawProfit(\n        address erc20Addr,\n        uint256 value,\n        address receiver\n    ) public payable {\n        require(erc20Addr != address(0) && value > 0 && receiver != address(0));\n        require(gOwner == msg.sender, \n            \"Only allow contract owner to withdraw profit money!\");\n        require(value <= profits[erc20Addr], \"Withdraw profit over money!\");\n        //Do the real token transfer\n        if(CheckTransfer(erc20Addr, receiver, value)) {\n            profits[erc20Addr] = SafeMath.sub(profits[erc20Addr], value);\n        }\n    }\n\n    function Withdraw(\n        uint256 roomId,\n        uint256 value,\n        address receiver\n    ) public payable {\n        require(roomId > 0);\n        Room storage room = rooms[roomId];\n        //Only allow room owner to withdraw money\n        require(room.creator == msg.sender, \n            \"Only allow room owner to withdraw money!\");\n        require(value <= room.lastLockedValue - room.currentMaxCompensate, \"Withdraw over money!\");\n        //Finally return back the locked tokens to room creator\n        if(room.lastLockedValue > 0){\n            //Do the real token transfer\n            if(CheckTransfer(room.erc20Addr, receiver, value)) {\n                room.lastLockedValue = SafeMath.sub(room.lastLockedValue, value);\n            }\n        }\n        emit Withdrawed(roomId, value, room.lastLockedValue);\n    }\n\n    function Deposit(\n        uint256 roomId,\n        uint256 value\n    ) public payable {\n        require(roomId > 0 && value > 0);\n        Room storage room = rooms[roomId];\n        //Do the real token transfer, after that the token is locked in the contract.\n        if (CheckTransferFrom(room.erc20Addr, msg.sender, address(this), value)) {\n            room.lastLockedValue = SafeMath.add(room.lastLockedValue, value);\n        }\n\n        emit Deposited(roomId, value, room.lastLockedValue);\n    }\n\n    /*\n     * We allow anyone to call CloseBetOrders to trigger the hash result\n     * --> Bet order owner should call it asap if he wins and detect room or game owner corruption.\n     * --> Room owner should call it asap if he wins and detect game owner corruption.\n     * --> Normally Game owner should call it after some blocks of open round.\n     */\n    function CloseBetOrders(\n        uint256 roomId\n    ) public payable {\n        require(roomId > 0, \"wrong roomId!\");\n        Room storage room = rooms[roomId];\n        require(room.active, \"The room is not actived!\");\n        uint256 orderId = room.lastClosedOrderId + 1;\n        for (; orderId<=room.currentOrderId; orderId++) {\n            BetOrder storage order = room.orders[orderId];\n            //Close all bet orders whose start block is 10 less than current block\n            if (block.number > SafeMath.add(order.startBlock, gRoundPeriod)){\n                _CloseBetOrder(roomId, orderId);\n            } else {\n                break;\n            }\n        }\n    }\n\n    function _CloseBetOrder(\n        uint256 roomId,\n        uint256 orderId\n    ) internal {\n        require(roomId > 0 && orderId > 0);\n        Room storage room = rooms[roomId];\n        BetOrder storage order = room.orders[orderId];\n        require(!order.closed, \"The bet order is already closed!\");\n\n        ERC20 token = ERC20(room.erc20Addr);\n        if(block.number > SafeMath.add(order.startBlock, 256 - gRoundPeriod)){\n            //It's too late to close one bet order, we cannot get the block hash\n            //the only choice is to return back bet money.\n            //Directly return back bet values\n            token.transfer(order.owner, order.totalValue);\n            emit CloseRoundTooLate(order.roomId, order.orderId, block.number, order.startBlock);\n        } else {\n            //Now we should compensate each one according to block hashes.\n            uint256 compensate = 0;\n            for (uint8 i=0; i<gRoundPeriod; i++){\n                uint256 blockHash = uint256(blockhash(order.startBlock + i));\n                uint8 blockHashTail = uint8(blockHash & 0xF);\n                bool isChar = (blockHashTail >= 10 && blockHashTail <=15);\n                bool isOdd = (!isChar && ((blockHashTail & 0x1) == 0x1));\n                bool isEven = (!isChar && !isOdd);\n\n                uint8 count = 0;\n                if (((order.betType & 0x1) == 0x1)){\n                    if((order.betValue[count*gRoundPeriod + i] > 0) && isOdd){\n                        //bet order owner wins odd!\n                        order.gain = SafeMath.add(order.gain, \n                            order.betValue[count*gRoundPeriod + i] * room.denominator[0] / room.nominator[0]);\n                    }\n                    count++;\n                }\n                if (((order.betType & 0x2) == 0x2)){\n                    if((order.betValue[count*gRoundPeriod + i] > 0) && isEven){\n                        //bet order owner wins even!\n                        order.gain = SafeMath.add(order.gain, \n                            order.betValue[count*gRoundPeriod + i] * room.denominator[1] / room.nominator[1]);\n                    }\n                    count++;\n                }\n                if (((order.betType & 0x4) == 0x4)){\n                    if((order.betValue[count*gRoundPeriod + i] > 0) && isChar){\n                        //bet order owner wins char!\n                        order.gain = SafeMath.add(order.gain, \n                            order.betValue[count*gRoundPeriod + i] * room.denominator[2] / room.nominator[2]);\n                    }\n                    count++;\n                }\n            }\n            uint256 n = 0;\n            uint8 betType8 = uint8(order.betType & 0xF);\n            for (uint8 i=0; i<3; i++) {\n                uint8 subType = betType8 & (1 * 2**i);\n                if (subType != 0) {\n                    n++;\n                }\n            }\n            n = n * gRoundPeriod;\n            if (((order.betType & 0x8) == 0x8)){\n                uint256 total_block = order.betValue[n++];\n                for (uint256 j=0; j<total_block; j++) {\n                    uint256 block_num = order.betValue[n++];\n                    uint256 blockHash = uint256(blockhash(order.startBlock + block_num));\n                    uint8 blockHashTail = uint8(blockHash & 0xF);\n                    uint256 tail_num = order.betValue[n++];\n                    for (uint256 k=0; k<tail_num; k++) {\n                        if (order.betValue[n] == blockHashTail) {\n                            //bet order owner wins char!\n                            order.gain = SafeMath.add(order.gain, \n                                order.betValue[n+1] * room.denominator[3] / room.nominator[3]);\n                        }\n                        n+=2;\n                    }\n                }\n            }\n\n            //require(SafeMath.add(room.lastLockedValue, round.totalBetValue) >= round.compensate, \n            //    \"No enough money for compesate!\");\n            //In case of no money for compensation, though it should not happen because we alreay limit\n            //  submmit order if exceed maximum compensation.\n            if (order.gain > 0) {\n                //Pay the betor\n                token.transfer(order.owner, order.gain);\n                emit PayBetOwner(roomId, orderId, order.gain);\n                compensate = SafeMath.add(compensate, order.gain);\n            }\n            //Then pay the profit ratio\n            uint256 profit = order.totalValue * gProfitRatio / 10000;\n            profits[room.erc20Addr] = SafeMath.add(profits[room.erc20Addr], profit);\n            //Finally pay the room owner\n            room.lastLockedValue = SafeMath.add(room.lastLockedValue, order.totalValue - profit);\n            room.lastLockedValue = SafeMath.sub(room.lastLockedValue, compensate);\n        }\n        order.closed = true;\n        room.currentMaxCompensate = SafeMath.sub(room.currentMaxCompensate, order.maxCompensate);\n        room.lastClosedOrderId = order.orderId;\n    }\n\n    /*\n     * @param betType, betType format is 4 bit |tail|char|even|odd|\n     * @param betValue, betValue is 10 values per each bit in betType\n     */\n    function SubmitBetOrder(\n        uint256 roomId, \n        uint256 betType, \n        uint256[] memory betValue\n    ) public payable returns (uint256){\n        require(roomId > 0);\n        Room storage room = rooms[roomId];\n        uint8 betType8 = uint8(betType & 0xF);\n        require(betType8 != 0, \"Invalid type!\");\n        require(room.active, \"The room is not actived!\");\n \n        //Pre-calculate the maximum compensate and check whether \n        //room owner can pay the maximum compensate\n        uint256 betBalance = 0;\n        uint256 n = 0;\n        uint256 maxCompensate = 0;\n        uint256 nominator = 1;\n        uint256 denominator = 1;\n        for (uint8 i=0; i<3; i++) {\n            uint8 subType = betType8 & (1 * 2**i);\n            if (subType != 0) {\n                require(betValue.length >= (n+1)*gRoundPeriod, \"Missing bet values!\");\n                nominator = room.nominator[i];\n                denominator = room.denominator[i];\n                for (uint8 j=0; j<gRoundPeriod; j++){\n                    maxCompensate = SafeMath.add(maxCompensate, betValue[n*gRoundPeriod+j] * denominator / nominator);\n                    betBalance = SafeMath.add(betBalance, betValue[n*gRoundPeriod + j]);\n                }\n                require(maxCompensate <= room.lastLockedValue, \"Cannot bet over compensate!\");\n                n++;\n            }\n        }\n        require(betValue.length >= n*gRoundPeriod, \"Missing bet values!\");\n        //Now check the bet tail info, format is\n        //[n, block1, len1, tail1_1, value1_1, tail2_1, value2_1,  , tail1_len1, value1_len1,  , \n        //    blockn, lenm, tailn_1, value_num,  , tailn_m, valuen_m]\n        n = n*gRoundPeriod;\n        if (((betType8 & 0x8) == 0x8) && betValue.length > n) {\n            uint256 total_block = betValue[n++];\n            require(betValue.length > n, \"betTailInfo format wrong!\");\n            nominator = room.nominator[3];\n            denominator = room.denominator[3];\n            for (uint256 i=0; i<total_block; i++) {\n                uint256 block_num = betValue[n++];\n                uint256 tail_num = betValue[n++];\n                require(betValue.length >= n + tail_num*2, \"betTailInfo format wrong!\");\n                require(block_num >= 0 && block_num <= gRoundPeriod - 1, \"betTail block num must between [0-9]!\");\n                for (uint256 j=0; j<tail_num;j++) {\n                    uint256 bet_value = betValue[n+1];\n                    uint256 compensate = bet_value * denominator / nominator;\n                    maxCompensate = SafeMath.add(maxCompensate, compensate);\n                    betBalance = SafeMath.add(betBalance, bet_value);\n                    n+=2;\n                }\n            }\n        }\n\n        require(maxCompensate <= room.lastLockedValue - room.currentMaxCompensate, \"Cannot bet over compensate!\");\n\n        if (CheckTransferFrom(room.erc20Addr, msg.sender, address(this), betBalance)) {\n            room.currentMaxCompensate = SafeMath.add(room.currentMaxCompensate, maxCompensate);\n\n            room.currentOrderId = SafeMath.add(room.currentOrderId, 1);\n            BetOrder memory newOrder;\n            newOrder.roomId = roomId;\n            newOrder.orderId = room.currentOrderId;\n            newOrder.totalValue = betBalance;\n            newOrder.betType = betType;\n            newOrder.betValue = betValue;\n            newOrder.owner = msg.sender;\n            newOrder.closed = false;\n            newOrder.gain = 0;\n            newOrder.maxCompensate = maxCompensate;\n            newOrder.startBlock = block.number + gRoundWait;\n            room.orders[newOrder.orderId] = newOrder;\n            emit NewBetOrder(roomId, room.currentOrderId, betBalance);\n            return room.currentOrderId;\n        }\n        return 0;\n    }\n}",
  "sourcePath": "/hash/HashBet/contracts/HashDice.sol",
  "compiler": {
    "name": "solc",
    "version": "0.5.0+commit.1d4f565a.Emscripten.clang"
  },
  "schemaVersion": "3.0.1",
  "updatedAt": "2019-02-28T13:25:04.158Z",
  "devdoc": {
    "methods": {}
  },
  "userdoc": {
    "methods": {}
  }
}